{
  "_format": "hh-sol-artifact-1",
  "contractName": "MKGenesisV3",
  "sourceName": "contracts/MKGenesisV3.sol",
  "abi": [
    {
      "inputs": [
        {
          "internalType": "address",
          "name": "operator",
          "type": "address"
        }
      ],
      "name": "OperatorNotAllowed",
      "type": "error"
    },
    {
      "anonymous": false,
      "inputs": [
        {
          "indexed": true,
          "internalType": "address",
          "name": "owner",
          "type": "address"
        },
        {
          "indexed": true,
          "internalType": "address",
          "name": "approved",
          "type": "address"
        },
        {
          "indexed": true,
          "internalType": "uint256",
          "name": "tokenId",
          "type": "uint256"
        }
      ],
      "name": "Approval",
      "type": "event"
    },
    {
      "anonymous": false,
      "inputs": [
        {
          "indexed": true,
          "internalType": "address",
          "name": "owner",
          "type": "address"
        },
        {
          "indexed": true,
          "internalType": "address",
          "name": "operator",
          "type": "address"
        },
        {
          "indexed": false,
          "internalType": "bool",
          "name": "approved",
          "type": "bool"
        }
      ],
      "name": "ApprovalForAll",
      "type": "event"
    },
    {
      "anonymous": false,
      "inputs": [
        {
          "indexed": true,
          "internalType": "address",
          "name": "newSigner",
          "type": "address"
        }
      ],
      "name": "AuthSignerSet",
      "type": "event"
    },
    {
      "anonymous": false,
      "inputs": [
        {
          "indexed": false,
          "internalType": "uint8",
          "name": "version",
          "type": "uint8"
        }
      ],
      "name": "Initialized",
      "type": "event"
    },
    {
      "anonymous": false,
      "inputs": [
        {
          "indexed": true,
          "internalType": "address",
          "name": "previousOwner",
          "type": "address"
        },
        {
          "indexed": true,
          "internalType": "address",
          "name": "newOwner",
          "type": "address"
        }
      ],
      "name": "OwnershipTransferred",
      "type": "event"
    },
    {
      "anonymous": false,
      "inputs": [
        {
          "indexed": false,
          "internalType": "address",
          "name": "account",
          "type": "address"
        }
      ],
      "name": "Paused",
      "type": "event"
    },
    {
      "anonymous": false,
      "inputs": [
        {
          "indexed": true,
          "internalType": "address",
          "name": "from",
          "type": "address"
        },
        {
          "indexed": true,
          "internalType": "address",
          "name": "to",
          "type": "address"
        },
        {
          "indexed": true,
          "internalType": "uint256",
          "name": "tokenId",
          "type": "uint256"
        }
      ],
      "name": "Transfer",
      "type": "event"
    },
    {
      "anonymous": false,
      "inputs": [
        {
          "indexed": false,
          "internalType": "address",
          "name": "account",
          "type": "address"
        }
      ],
      "name": "Unpaused",
      "type": "event"
    },
    {
      "inputs": [],
      "name": "MAX_SUPPLY",
      "outputs": [
        {
          "internalType": "uint256",
          "name": "",
          "type": "uint256"
        }
      ],
      "stateMutability": "view",
      "type": "function"
    },
    {
      "inputs": [],
      "name": "OPERATOR_FILTER_REGISTRY",
      "outputs": [
        {
          "internalType": "contract IOperatorFilterRegistry",
          "name": "",
          "type": "address"
        }
      ],
      "stateMutability": "view",
      "type": "function"
    },
    {
      "inputs": [
        {
          "internalType": "address",
          "name": "",
          "type": "address"
        }
      ],
      "name": "_balances",
      "outputs": [
        {
          "internalType": "uint256",
          "name": "",
          "type": "uint256"
        }
      ],
      "stateMutability": "view",
      "type": "function"
    },
    {
      "inputs": [
        {
          "internalType": "uint256",
          "name": "",
          "type": "uint256"
        }
      ],
      "name": "_owners",
      "outputs": [
        {
          "internalType": "address",
          "name": "",
          "type": "address"
        }
      ],
      "stateMutability": "view",
      "type": "function"
    },
    {
      "inputs": [
        {
          "internalType": "address",
          "name": "operator",
          "type": "address"
        },
        {
          "internalType": "uint256",
          "name": "tokenId",
          "type": "uint256"
        }
      ],
      "name": "approve",
      "outputs": [],
      "stateMutability": "nonpayable",
      "type": "function"
    },
    {
      "inputs": [
        {
          "internalType": "address",
          "name": "",
          "type": "address"
        }
      ],
      "name": "approvedContract",
      "outputs": [
        {
          "internalType": "bool",
          "name": "",
          "type": "bool"
        }
      ],
      "stateMutability": "view",
      "type": "function"
    },
    {
      "inputs": [],
      "name": "authSigner",
      "outputs": [
        {
          "internalType": "address",
          "name": "",
          "type": "address"
        }
      ],
      "stateMutability": "view",
      "type": "function"
    },
    {
      "inputs": [
        {
          "internalType": "address",
          "name": "owner",
          "type": "address"
        }
      ],
      "name": "balanceOf",
      "outputs": [
        {
          "internalType": "uint256",
          "name": "",
          "type": "uint256"
        }
      ],
      "stateMutability": "view",
      "type": "function"
    },
    {
      "inputs": [],
      "name": "baseURI",
      "outputs": [
        {
          "internalType": "string",
          "name": "",
          "type": "string"
        }
      ],
      "stateMutability": "view",
      "type": "function"
    },
    {
      "inputs": [
        {
          "internalType": "uint256",
          "name": "tokenId",
          "type": "uint256"
        }
      ],
      "name": "burn",
      "outputs": [],
      "stateMutability": "nonpayable",
      "type": "function"
    },
    {
      "inputs": [
        {
          "internalType": "uint256",
          "name": "_id",
          "type": "uint256"
        },
        {
          "internalType": "uint256",
          "name": "pos",
          "type": "uint256"
        }
      ],
      "name": "clearLockId",
      "outputs": [],
      "stateMutability": "nonpayable",
      "type": "function"
    },
    {
      "inputs": [],
      "name": "dbMigrationComplete",
      "outputs": [
        {
          "internalType": "bool",
          "name": "",
          "type": "bool"
        }
      ],
      "stateMutability": "view",
      "type": "function"
    },
    {
      "inputs": [
        {
          "internalType": "uint256",
          "name": "_id",
          "type": "uint256"
        },
        {
          "internalType": "address",
          "name": "addr",
          "type": "address"
        }
      ],
      "name": "findPos",
      "outputs": [
        {
          "internalType": "uint256",
          "name": "",
          "type": "uint256"
        }
      ],
      "stateMutability": "view",
      "type": "function"
    },
    {
      "inputs": [
        {
          "internalType": "uint256",
          "name": "tokenId",
          "type": "uint256"
        }
      ],
      "name": "getApproved",
      "outputs": [
        {
          "internalType": "address",
          "name": "",
          "type": "address"
        }
      ],
      "stateMutability": "view",
      "type": "function"
    },
    {
      "inputs": [
        {
          "internalType": "string",
          "name": "tokenName",
          "type": "string"
        },
        {
          "internalType": "string",
          "name": "tokenSymbol",
          "type": "string"
        },
        {
          "internalType": "uint256",
          "name": "maxSupply",
          "type": "uint256"
        },
        {
          "internalType": "address",
          "name": "_authSigner",
          "type": "address"
        },
        {
          "internalType": "string",
          "name": "__baseURI",
          "type": "string"
        }
      ],
      "name": "initialize",
      "outputs": [],
      "stateMutability": "nonpayable",
      "type": "function"
    },
    {
      "inputs": [],
      "name": "initializeV2",
      "outputs": [],
      "stateMutability": "nonpayable",
      "type": "function"
    },
    {
      "inputs": [],
      "name": "initializeV3",
      "outputs": [],
      "stateMutability": "nonpayable",
      "type": "function"
    },
    {
      "inputs": [
        {
          "internalType": "address",
          "name": "owner",
          "type": "address"
        },
        {
          "internalType": "address",
          "name": "operator",
          "type": "address"
        }
      ],
      "name": "isApprovedForAll",
      "outputs": [
        {
          "internalType": "bool",
          "name": "",
          "type": "bool"
        }
      ],
      "stateMutability": "view",
      "type": "function"
    },
    {
      "inputs": [
        {
          "internalType": "uint256",
          "name": "_id",
          "type": "uint256"
        }
      ],
      "name": "isUnlocked",
      "outputs": [
        {
          "internalType": "bool",
          "name": "",
          "type": "bool"
        }
      ],
      "stateMutability": "view",
      "type": "function"
    },
    {
      "inputs": [
        {
          "internalType": "uint256",
          "name": "_id",
          "type": "uint256"
        }
      ],
      "name": "lock",
      "outputs": [],
      "stateMutability": "nonpayable",
      "type": "function"
    },
    {
      "inputs": [
        {
          "internalType": "uint256",
          "name": "",
          "type": "uint256"
        },
        {
          "internalType": "uint256",
          "name": "",
          "type": "uint256"
        }
      ],
      "name": "locks",
      "outputs": [
        {
          "internalType": "address",
          "name": "",
          "type": "address"
        }
      ],
      "stateMutability": "view",
      "type": "function"
    },
    {
      "inputs": [
        {
          "internalType": "uint256[]",
          "name": "tokenIds",
          "type": "uint256[]"
        },
        {
          "internalType": "bytes",
          "name": "sig",
          "type": "bytes"
        },
        {
          "internalType": "string",
          "name": "solSig",
          "type": "string"
        }
      ],
      "name": "migrate",
      "outputs": [],
      "stateMutability": "nonpayable",
      "type": "function"
    },
    {
      "inputs": [
        {
          "internalType": "address[]",
          "name": "owner",
          "type": "address[]"
        },
        {
          "internalType": "uint256",
          "name": "offset",
          "type": "uint256"
        }
      ],
      "name": "migrateDB",
      "outputs": [],
      "stateMutability": "nonpayable",
      "type": "function"
    },
    {
      "inputs": [
        {
          "internalType": "uint256[]",
          "name": "tokenIds",
          "type": "uint256[]"
        }
      ],
      "name": "migrateDBLocks",
      "outputs": [],
      "stateMutability": "nonpayable",
      "type": "function"
    },
    {
      "inputs": [],
      "name": "name",
      "outputs": [
        {
          "internalType": "string",
          "name": "",
          "type": "string"
        }
      ],
      "stateMutability": "view",
      "type": "function"
    },
    {
      "inputs": [],
      "name": "owner",
      "outputs": [
        {
          "internalType": "address",
          "name": "",
          "type": "address"
        }
      ],
      "stateMutability": "view",
      "type": "function"
    },
    {
      "inputs": [
        {
          "internalType": "uint256",
          "name": "tokenId",
          "type": "uint256"
        }
      ],
      "name": "ownerOf",
      "outputs": [
        {
          "internalType": "address",
          "name": "",
          "type": "address"
        }
      ],
      "stateMutability": "view",
      "type": "function"
    },
    {
      "inputs": [],
      "name": "pause",
      "outputs": [],
      "stateMutability": "nonpayable",
      "type": "function"
    },
    {
      "inputs": [],
      "name": "paused",
      "outputs": [
        {
          "internalType": "bool",
          "name": "",
          "type": "bool"
        }
      ],
      "stateMutability": "view",
      "type": "function"
    },
    {
      "inputs": [
        {
          "internalType": "address",
          "name": "tokenAddress",
          "type": "address"
        }
      ],
      "name": "recoverERC20",
      "outputs": [],
      "stateMutability": "nonpayable",
      "type": "function"
    },
    {
      "inputs": [],
      "name": "renounceOwnership",
      "outputs": [],
      "stateMutability": "nonpayable",
      "type": "function"
    },
    {
      "inputs": [
        {
          "internalType": "address",
          "name": "from",
          "type": "address"
        },
        {
          "internalType": "address",
          "name": "to",
          "type": "address"
        },
        {
          "internalType": "uint256",
          "name": "tokenId",
          "type": "uint256"
        }
      ],
      "name": "safeTransferFrom",
      "outputs": [],
      "stateMutability": "nonpayable",
      "type": "function"
    },
    {
      "inputs": [
        {
          "internalType": "address",
          "name": "from",
          "type": "address"
        },
        {
          "internalType": "address",
          "name": "to",
          "type": "address"
        },
        {
          "internalType": "uint256",
          "name": "tokenId",
          "type": "uint256"
        },
        {
          "internalType": "bytes",
          "name": "data",
          "type": "bytes"
        }
      ],
      "name": "safeTransferFrom",
      "outputs": [],
      "stateMutability": "nonpayable",
      "type": "function"
    },
    {
      "inputs": [
        {
          "internalType": "address",
          "name": "operator",
          "type": "address"
        },
        {
          "internalType": "bool",
          "name": "approved",
          "type": "bool"
        }
      ],
      "name": "setApprovalForAll",
      "outputs": [],
      "stateMutability": "nonpayable",
      "type": "function"
    },
    {
      "inputs": [
        {
          "internalType": "address",
          "name": "_authSigner",
          "type": "address"
        }
      ],
      "name": "setAuthSigner",
      "outputs": [],
      "stateMutability": "nonpayable",
      "type": "function"
    },
    {
      "inputs": [
        {
          "internalType": "string",
          "name": "newURI",
          "type": "string"
        }
      ],
      "name": "setBaseURI",
      "outputs": [],
      "stateMutability": "nonpayable",
      "type": "function"
    },
    {
      "inputs": [],
      "name": "setDbMigrationComplete",
      "outputs": [],
      "stateMutability": "nonpayable",
      "type": "function"
    },
    {
      "inputs": [
        {
          "internalType": "bytes4",
          "name": "interfaceId",
          "type": "bytes4"
        }
      ],
      "name": "supportsInterface",
      "outputs": [
        {
          "internalType": "bool",
          "name": "",
          "type": "bool"
        }
      ],
      "stateMutability": "view",
      "type": "function"
    },
    {
      "inputs": [],
      "name": "symbol",
      "outputs": [
        {
          "internalType": "string",
          "name": "",
          "type": "string"
        }
      ],
      "stateMutability": "view",
      "type": "function"
    },
    {
      "inputs": [],
      "name": "test",
      "outputs": [
        {
          "internalType": "uint256",
          "name": "",
          "type": "uint256"
        }
      ],
      "stateMutability": "view",
      "type": "function"
    },
    {
      "inputs": [
        {
          "internalType": "uint256",
          "name": "index",
          "type": "uint256"
        }
      ],
      "name": "tokenByIndex",
      "outputs": [
        {
          "internalType": "uint256",
          "name": "",
          "type": "uint256"
        }
      ],
      "stateMutability": "view",
      "type": "function"
    },
    {
      "inputs": [
        {
          "internalType": "address",
          "name": "owner",
          "type": "address"
        },
        {
          "internalType": "uint256",
          "name": "index",
          "type": "uint256"
        }
      ],
      "name": "tokenOfOwnerByIndex",
      "outputs": [
        {
          "internalType": "uint256",
          "name": "",
          "type": "uint256"
        }
      ],
      "stateMutability": "view",
      "type": "function"
    },
    {
      "inputs": [
        {
          "internalType": "uint256",
          "name": "tokenId",
          "type": "uint256"
        }
      ],
      "name": "tokenURI",
      "outputs": [
        {
          "internalType": "string",
          "name": "",
          "type": "string"
        }
      ],
      "stateMutability": "view",
      "type": "function"
    },
    {
      "inputs": [],
      "name": "totalSupply",
      "outputs": [
        {
          "internalType": "uint256",
          "name": "",
          "type": "uint256"
        }
      ],
      "stateMutability": "view",
      "type": "function"
    },
    {
      "inputs": [
        {
          "internalType": "address",
          "name": "from",
          "type": "address"
        },
        {
          "internalType": "address",
          "name": "to",
          "type": "address"
        },
        {
          "internalType": "uint256",
          "name": "tokenId",
          "type": "uint256"
        }
      ],
      "name": "transferFrom",
      "outputs": [],
      "stateMutability": "nonpayable",
      "type": "function"
    },
    {
      "inputs": [
        {
          "internalType": "address",
          "name": "newOwner",
          "type": "address"
        }
      ],
      "name": "transferOwnership",
      "outputs": [],
      "stateMutability": "nonpayable",
      "type": "function"
    },
    {
      "inputs": [
        {
          "internalType": "uint256",
          "name": "_id",
          "type": "uint256"
        },
        {
          "internalType": "uint256",
          "name": "pos",
          "type": "uint256"
        }
      ],
      "name": "unlock",
      "outputs": [],
      "stateMutability": "nonpayable",
      "type": "function"
    },
    {
      "inputs": [],
      "name": "unpause",
      "outputs": [],
      "stateMutability": "nonpayable",
      "type": "function"
    },
    {
      "inputs": [
        {
          "internalType": "address[]",
          "name": "_contracts",
          "type": "address[]"
        },
        {
          "internalType": "bool[]",
          "name": "_values",
          "type": "bool[]"
        }
      ],
      "name": "updateApprovedContracts",
      "outputs": [],
      "stateMutability": "nonpayable",
      "type": "function"
    }
  ],
  "bytecode": "0x60806040523480156200001157600080fd5b506200001c62000022565b620000e4565b600054610100900460ff16156200008f5760405162461bcd60e51b815260206004820152602760248201527f496e697469616c697a61626c653a20636f6e747261637420697320696e697469604482015266616c697a696e6760c81b606482015260840160405180910390fd5b60005460ff9081161015620000e2576000805460ff191660ff9081179091556040519081527f7f26b83ff96e1f2b6a682f133852f6798a09c465da95921460cefb38474024989060200160405180910390a15b565b614a7280620000f46000396000f3fe608060405234801561001057600080fd5b506004361061032b5760003560e01c806370a08231116101b2578063ac52e644116100f9578063cfdaf2f6116100a2578063ef28533f1161007c578063ef28533f146106fc578063f2fde38b1461070a578063f82c3d951461071d578063f8a8fd6d1461073057600080fd5b8063cfdaf2f61461068d578063dd467064146106a0578063e985e9c5146106b357600080fd5b8063b88d4fde116100d3578063b88d4fde1461065f578063c87b56dd14610672578063cedc59521461068557600080fd5b8063ac52e64414610607578063b1a6505f1461061a578063b42348ac1461063e57600080fd5b80638da5cb5b1161015b578063992924a611610135578063992924a6146105ab5780639e8c708e146105e1578063a22cb465146105f457600080fd5b80638da5cb5b1461057257806395d89b411461059057806397710ddd1461059857600080fd5b8063806802071161018c578063806802071461054457806383f27020146105575780638456cb591461056a57600080fd5b806370a0823114610507578063715018a61461051a57806372abc8b71461052257600080fd5b80633f4ba83a116102765780635bfadb241161021f5780636352211e116101f95780636352211e146104cc5780636c0360eb146104df5780636ebcf607146104e757600080fd5b80635bfadb24146104a65780635c975abb146104b95780635cd8a76b146104c457600080fd5b806342966c681161025057806342966c681461046d5780634f6ccce71461048057806355f804b31461049357600080fd5b80633f4ba83a1461043d57806341f434341461044557806342842e0e1461045a57600080fd5b806319913405116102d85780632f745c59116102b25780632f745c591461041857806332cb6b0c1461042b57806338e454b11461043557600080fd5b806319913405146103df57806323b872dd146103f25780632cffdfb61461040557600080fd5b8063081812fc11610309578063081812fc14610382578063095ea7b3146103ba57806318160ddd146103cd57600080fd5b806301ffc9a7146103305780630532bca11461035857806306fdde031461036d575b600080fd5b61034361033e366004613f83565b61073a565b60405190151581526020015b60405180910390f35b61036b610366366004613fc9565b61074b565b005b6103756107c3565b60405161034f9190614052565b610395610390366004614065565b610855565b60405173ffffffffffffffffffffffffffffffffffffffff909116815260200161034f565b61036b6103c836600461407e565b610889565b6099545b60405190815260200161034f565b61036b6103ed3660046140f4565b6108a2565b61036b610400366004614140565b6109cf565b61036b61041336600461417c565b610a07565b6103d161042636600461407e565b610c14565b6103d16101915481565b61036b610cc9565b61036b610df1565b6103956daaeb6d7670e522a718067333cd4e81565b61036b610468366004614140565b610e03565b61036b61047b366004614065565b610e35565b6103d161048e366004614065565b610ebe565b61036b6104a1366004614281565b610f62565b61036b6104b436600461417c565b610f7b565b60c95460ff16610343565b61036b6111d3565b6103956104da366004614065565b611318565b61037561138a565b6103d16104f5366004613fc9565b60686020526000908152604090205481565b6103d1610515366004613fc9565b611419565b61036b6114cd565b610343610530366004614065565b600090815261016060205260409020541590565b61036b6105523660046142b6565b6114df565b61039561056536600461417c565b611689565b61036b6116cf565b60fb5473ffffffffffffffffffffffffffffffffffffffff16610395565b6103756116df565b61036b6105a6366004614359565b6116ee565b6103956105b9366004614065565b60676020526000908152604090205473ffffffffffffffffffffffffffffffffffffffff1681565b61036b6105ef366004613fc9565b6117dc565b61036b6106023660046143a9565b611942565b61036b6106153660046143e0565b611956565b610343610628366004613fc9565b61015f6020526000908152604090205460ff1681565b610192546103959073ffffffffffffffffffffffffffffffffffffffff1681565b61036b61066d36600461444c565b611a6d565b610375610680366004614065565b611aa0565b61036b611b07565b61036b61069b36600461450a565b611b3d565b61036b6106ae366004614065565b611c6a565b6103436106c13660046145a4565b73ffffffffffffffffffffffffffffffffffffffff9182166000908152606a6020908152604080832093909416825291909152205460ff1690565b610195546103439060ff1681565b61036b610718366004613fc9565b611dc9565b6103d161072b3660046145d7565b611e63565b6103d16101945481565b600061074582611f41565b92915050565b610753611f97565b61019280547fffffffffffffffffffffffff00000000000000000000000000000000000000001673ffffffffffffffffffffffffffffffffffffffff83169081179091556040517f9ee0f407fe781f489d612b2879aea89a7ce73492166d123f0b55ec4295626e4d90600090a250565b6060606580546107d2906145fa565b80601f01602080910402602001604051908101604052809291908181526020018280546107fe906145fa565b801561084b5780601f106108205761010080835404028352916020019161084b565b820191906000526020600020905b81548152906001019060200180831161082e57829003601f168201915b5050505050905090565b600061086082611ffe565b5060009081526069602052604090205473ffffffffffffffffffffffffffffffffffffffff1690565b816108938161206f565b61089d8383612174565b505050565b6108aa611f97565b6101955460ff16156109035760405162461bcd60e51b815260206004820152601660248201527f4442206d6967726174696f6e20636f6d706c657465640000000000000000000060448201526064015b60405180910390fd5b60005b600084848381811061091a5761091a61464d565b905060200201602081019061092f9190613fc9565b73ffffffffffffffffffffffffffffffffffffffff8116600081815260686020908152604080832080546001019055868801808452606790925280832080547fffffffffffffffffffffffff0000000000000000000000000000000000000000168517905551939450927fddf252ad1be2c89b69c2b068fc378daa952ba7f163c4a11628f55a4df523b3ef908290a4506001018281106109065750505050565b8273ffffffffffffffffffffffffffffffffffffffff811633146109f6576109f63361206f565b610a018484846122c7565b50505050565b600082815261016060205260408120805483908110610a2857610a2861464d565b600091825260208083209091015473ffffffffffffffffffffffffffffffffffffffff1680835261015f90915260409091205490915060ff1615610aae5760405162461bcd60e51b815260206004820152600d60248201527f4163636573732064656e6965640000000000000000000000000000000000000060448201526064016108fa565b600083815261016060205260409020547fffffffffffffffffffffffffffffffffffffffffffffffffffffffffffffffff01828114610b9857600084815261016060205260409020805482908110610b0857610b0861464d565b60009182526020808320909101548683526101609091526040909120805473ffffffffffffffffffffffffffffffffffffffff9092169185908110610b4f57610b4f61464d565b9060005260206000200160006101000a81548173ffffffffffffffffffffffffffffffffffffffff021916908373ffffffffffffffffffffffffffffffffffffffff1602179055505b600084815261016060205260409020805480610bb657610bb661467c565b60008281526020902081017fffffffffffffffffffffffffffffffffffffffffffffffffffffffffffffffff90810180547fffffffffffffffffffffffff000000000000000000000000000000000000000016905501905550505050565b6000610c1f83611419565b8210610c935760405162461bcd60e51b815260206004820152602b60248201527f455243373231456e756d657261626c653a206f776e657220696e646578206f7560448201527f74206f6620626f756e647300000000000000000000000000000000000000000060648201526084016108fa565b5073ffffffffffffffffffffffffffffffffffffffff919091166000908152609760209081526040808320938352929052205490565b600054600390610100900460ff16158015610ceb575060005460ff8083169116105b610d5d5760405162461bcd60e51b815260206004820152602e60248201527f496e697469616c697a61626c653a20636f6e747261637420697320616c72656160448201527f647920696e697469616c697a656400000000000000000000000000000000000060648201526084016108fa565b6000805461115b610191557fffffffffffffffffffffffffffffffffffffffffffffffffffffffffffff00001660ff8316908117610100177fffffffffffffffffffffffffffffffffffffffffffffffffffffffffffff00ff169091556040519081527f7f26b83ff96e1f2b6a682f133852f6798a09c465da95921460cefb3847402498906020015b60405180910390a150565b610df9611f97565b610e0161234d565b565b8273ffffffffffffffffffffffffffffffffffffffff81163314610e2a57610e2a3361206f565b610a018484846123ca565b610e40335b826123e5565b610eb25760405162461bcd60e51b815260206004820152602d60248201527f4552433732313a2063616c6c6572206973206e6f7420746f6b656e206f776e6560448201527f72206f7220617070726f7665640000000000000000000000000000000000000060648201526084016108fa565b610ebb816124a5565b50565b6000610ec960995490565b8210610f3d5760405162461bcd60e51b815260206004820152602c60248201527f455243373231456e756d657261626c653a20676c6f62616c20696e646578206f60448201527f7574206f6620626f756e6473000000000000000000000000000000000000000060648201526084016108fa565b60998281548110610f5057610f5061464d565b90600052602060002001549050919050565b610f6a611f97565b610193610f7782826146f1565b5050565b33600090815261015f602052604090205460ff16610fdb5760405162461bcd60e51b815260206004820152600d60248201527f4163636573732064656e6965640000000000000000000000000000000000000060448201526064016108fa565b600082815261016060205260409020805433919083908110610fff57610fff61464d565b60009182526020909120015473ffffffffffffffffffffffffffffffffffffffff161461106e5760405162461bcd60e51b815260206004820152600d60248201527f506f7320696e636f72726563740000000000000000000000000000000000000060448201526064016108fa565b600082815261016060205260409020547fffffffffffffffffffffffffffffffffffffffffffffffffffffffffffffffff01818114611158576000838152610160602052604090208054829081106110c8576110c861464d565b60009182526020808320909101548583526101609091526040909120805473ffffffffffffffffffffffffffffffffffffffff909216918490811061110f5761110f61464d565b9060005260206000200160006101000a81548173ffffffffffffffffffffffffffffffffffffffff021916908373ffffffffffffffffffffffffffffffffffffffff1602179055505b6000838152610160602052604090208054806111765761117661467c565b60008281526020902081017fffffffffffffffffffffffffffffffffffffffffffffffffffffffffffffffff90810180547fffffffffffffffffffffffff0000000000000000000000000000000000000000169055019055505050565b600054600290610100900460ff161580156111f5575060005460ff8083169116105b6112675760405162461bcd60e51b815260206004820152602e60248201527f496e697469616c697a61626c653a20636f6e747261637420697320616c72656160448201527f647920696e697469616c697a656400000000000000000000000000000000000060648201526084016108fa565b600080547fffffffffffffffffffffffffffffffffffffffffffffffffffffffffffff00001660ff8316176101001790556112b7733cc6cdda760b79bafa08df41ecfa224f810dceb6600161258b565b600161019455600080547fffffffffffffffffffffffffffffffffffffffffffffffffffffffffffff00ff16905560405160ff821681527f7f26b83ff96e1f2b6a682f133852f6798a09c465da95921460cefb384740249890602001610de6565b60008181526067602052604081205473ffffffffffffffffffffffffffffffffffffffff16806107455760405162461bcd60e51b815260206004820152601860248201527f4552433732313a20696e76616c696420746f6b656e204944000000000000000060448201526064016108fa565b6101938054611398906145fa565b80601f01602080910402602001604051908101604052809291908181526020018280546113c4906145fa565b80156114115780601f106113e657610100808354040283529160200191611411565b820191906000526020600020905b8154815290600101906020018083116113f457829003601f168201915b505050505081565b600073ffffffffffffffffffffffffffffffffffffffff82166114a45760405162461bcd60e51b815260206004820152602960248201527f4552433732313a2061646472657373207a65726f206973206e6f74206120766160448201527f6c6964206f776e6572000000000000000000000000000000000000000000000060648201526084016108fa565b5073ffffffffffffffffffffffffffffffffffffffff1660009081526068602052604090205490565b6114d5611f97565b610e016000612612565b600054600190610100900460ff16158015611501575060005460ff8083169116105b6115735760405162461bcd60e51b815260206004820152602e60248201527f496e697469616c697a61626c653a20636f6e747261637420697320616c72656160448201527f647920696e697469616c697a656400000000000000000000000000000000000060648201526084016108fa565b600080547fffffffffffffffffffffffffffffffffffffffffffffffffffffffffffff00001660ff8316176101001790556115ae8686612689565b6115b6612710565b6115be61278d565b6115c6612812565b6115ce612710565b61019280547fffffffffffffffffffffffff00000000000000000000000000000000000000001673ffffffffffffffffffffffffffffffffffffffff851617905561019361161c83826146f1565b50610191849055600080547fffffffffffffffffffffffffffffffffffffffffffffffffffffffffffff00ff16905560405160ff821681527f7f26b83ff96e1f2b6a682f133852f6798a09c465da95921460cefb38474024989060200160405180910390a1505050505050565b61016060205281600052604060002081815481106116a657600080fd5b60009182526020909120015473ffffffffffffffffffffffffffffffffffffffff169150829050565b6116d7611f97565b610e01612897565b6060606680546107d2906145fa565b6116f6611f97565b6101955460ff161561174a5760405162461bcd60e51b815260206004820152601660248201527f4442206d6967726174696f6e20636f6d706c657465640000000000000000000060448201526064016108fa565b60005b61016060008484848181106117645761176461464d565b602090810292909201358352508181019290925260400160009081208054600181810183559183529290912090910180547fffffffffffffffffffffffff00000000000000000000000000000000000000001673a390c5787bb318132644559053d1d036c1c4b0e41790550181811061174d57505050565b6117e4611f97565b8073ffffffffffffffffffffffffffffffffffffffff811663a9059cbb61182060fb5473ffffffffffffffffffffffffffffffffffffffff1690565b6040517f70a0823100000000000000000000000000000000000000000000000000000000815230600482015273ffffffffffffffffffffffffffffffffffffffff8516906370a0823190602401602060405180830381865afa15801561188a573d6000803e3d6000fd5b505050506040513d601f19601f820116820180604052508101906118ae919061480b565b6040517fffffffff0000000000000000000000000000000000000000000000000000000060e085901b16815273ffffffffffffffffffffffffffffffffffffffff909216600483015260248201526044016020604051808303816000875af115801561191e573d6000803e3d6000fd5b505050506040513d601f19601f8201168201806040525081019061089d9190614824565b8161194c8161206f565b61089d83836128f2565b61195e611f97565b8281146119ad5760405162461bcd60e51b815260206004820152600760248201527f216c656e6774680000000000000000000000000000000000000000000000000060448201526064016108fa565b60005b83811015611a66578282828181106119ca576119ca61464d565b90506020020160208101906119df9190614841565b61015f60008787858181106119f6576119f661464d565b9050602002016020810190611a0b9190613fc9565b73ffffffffffffffffffffffffffffffffffffffff168152602081019190915260400160002080547fffffffffffffffffffffffffffffffffffffffffffffffffffffffffffffff00169115159190911790556001016119b0565b5050505050565b8373ffffffffffffffffffffffffffffffffffffffff81163314611a9457611a943361206f565b611a66858585856128fd565b6060611aab82611ffe565b6000611ab5612985565b90506000815111611ad55760405180602001604052806000815250611b00565b80611adf84612995565b604051602001611af092919061485e565b6040516020818303038152906040525b9392505050565b611b0f611f97565b61019580547fffffffffffffffffffffffffffffffffffffffffffffffffffffffffffffff00166001179055565b60008686338585604051602001611b5895949392919061488d565b60405160208183030381529060405290506000611bb2828051906020012087878080601f016020809104026020016040519081016040528093929190818152602001838380828437600092019190915250612a5392505050565b6101925490915073ffffffffffffffffffffffffffffffffffffffff808316911614611c205760405162461bcd60e51b815260206004820152600b60248201527f496e76616c69642073696700000000000000000000000000000000000000000060448201526064016108fa565b60005b87811015611c5f57611c4d338a8a84818110611c4157611c4161464d565b90506020020135612af0565b80611c5781614978565b915050611c23565b505050505050505050565b33600090815261015f602052604090205460ff16611cca5760405162461bcd60e51b815260206004820152600d60248201527f4163636573732064656e6965640000000000000000000000000000000000000060448201526064016108fa565b60005b60008281526101606020526040902054811015611d7f57600082815261016060205260409020805433919083908110611d0857611d0861464d565b60009182526020909120015473ffffffffffffffffffffffffffffffffffffffff1603611d775760405162461bcd60e51b815260206004820152601b60248201527f494420616c7265616479206c6f636b65642062792063616c6c6572000000000060448201526064016108fa565b600101611ccd565b506000908152610160602090815260408220805460018101825590835291200180547fffffffffffffffffffffffff00000000000000000000000000000000000000001633179055565b611dd1611f97565b73ffffffffffffffffffffffffffffffffffffffff8116611e5a5760405162461bcd60e51b815260206004820152602660248201527f4f776e61626c653a206e6577206f776e657220697320746865207a65726f206160448201527f646472657373000000000000000000000000000000000000000000000000000060648201526084016108fa565b610ebb81612612565b6000805b60008481526101606020526040902054811015611ef857600084815261016060205260409020805473ffffffffffffffffffffffffffffffffffffffff8516919083908110611eb857611eb861464d565b60009182526020909120015473ffffffffffffffffffffffffffffffffffffffff1603611ee6579050610745565b80611ef081614978565b915050611e67565b5060405162461bcd60e51b815260206004820152600960248201527f4e6f7420666f756e64000000000000000000000000000000000000000000000060448201526064016108fa565b60007fffffffff0000000000000000000000000000000000000000000000000000000082167f780e9d63000000000000000000000000000000000000000000000000000000001480610745575061074582612b0a565b60fb5473ffffffffffffffffffffffffffffffffffffffff163314610e015760405162461bcd60e51b815260206004820181905260248201527f4f776e61626c653a2063616c6c6572206973206e6f7420746865206f776e657260448201526064016108fa565b60008181526067602052604090205473ffffffffffffffffffffffffffffffffffffffff16610ebb5760405162461bcd60e51b815260206004820152601860248201527f4552433732313a20696e76616c696420746f6b656e204944000000000000000060448201526064016108fa565b6daaeb6d7670e522a718067333cd4e3b15610ebb576040517fc617113400000000000000000000000000000000000000000000000000000000815230600482015273ffffffffffffffffffffffffffffffffffffffff821660248201526daaeb6d7670e522a718067333cd4e9063c617113490604401602060405180830381865afa158015612102573d6000803e3d6000fd5b505050506040513d601f19601f820116820180604052508101906121269190614824565b610ebb576040517fede71dcc00000000000000000000000000000000000000000000000000000000815273ffffffffffffffffffffffffffffffffffffffff821660048201526024016108fa565b600061217f82611318565b90508073ffffffffffffffffffffffffffffffffffffffff168373ffffffffffffffffffffffffffffffffffffffff16036122225760405162461bcd60e51b815260206004820152602160248201527f4552433732313a20617070726f76616c20746f2063757272656e74206f776e6560448201527f720000000000000000000000000000000000000000000000000000000000000060648201526084016108fa565b3373ffffffffffffffffffffffffffffffffffffffff8216148061224b575061224b81336106c1565b6122bd5760405162461bcd60e51b815260206004820152603d60248201527f4552433732313a20617070726f76652063616c6c6572206973206e6f7420746f60448201527f6b656e206f776e6572206f7220617070726f76656420666f7220616c6c00000060648201526084016108fa565b61089d8383612bed565b6122d033610e3a565b6123425760405162461bcd60e51b815260206004820152602d60248201527f4552433732313a2063616c6c6572206973206e6f7420746f6b656e206f776e6560448201527f72206f7220617070726f7665640000000000000000000000000000000000000060648201526084016108fa565b61089d838383612c8d565b612355612f47565b60c980547fffffffffffffffffffffffffffffffffffffffffffffffffffffffffffffff001690557f5db9ee0a495bf2e6ff9c91a7834c1ba4fdd244a5e8aa4e537bd38aeae4b073aa335b60405173ffffffffffffffffffffffffffffffffffffffff909116815260200160405180910390a1565b61089d83838360405180602001604052806000815250611a6d565b6000806123f183611318565b90508073ffffffffffffffffffffffffffffffffffffffff168473ffffffffffffffffffffffffffffffffffffffff16148061245f575073ffffffffffffffffffffffffffffffffffffffff8082166000908152606a602090815260408083209388168352929052205460ff165b8061249d57508373ffffffffffffffffffffffffffffffffffffffff1661248584610855565b73ffffffffffffffffffffffffffffffffffffffff16145b949350505050565b60006124b082611318565b90506124c0816000846001612f99565b6124c982611318565b600083815260696020908152604080832080547fffffffffffffffffffffffff000000000000000000000000000000000000000090811690915573ffffffffffffffffffffffffffffffffffffffff85168085526068845282852080547fffffffffffffffffffffffffffffffffffffffffffffffffffffffffffffffff0190558785526067909352818420805490911690555192935084927fddf252ad1be2c89b69c2b068fc378daa952ba7f163c4a11628f55a4df523b3ef908390a45050565b600054610100900460ff166126085760405162461bcd60e51b815260206004820152602b60248201527f496e697469616c697a61626c653a20636f6e7472616374206973206e6f74206960448201527f6e697469616c697a696e6700000000000000000000000000000000000000000060648201526084016108fa565b610f77828261300a565b60fb805473ffffffffffffffffffffffffffffffffffffffff8381167fffffffffffffffffffffffff0000000000000000000000000000000000000000831681179093556040519116919082907f8be0079c531659141344cd1fd0a4f28419497f9722a3daafe3b4186f6b6457e090600090a35050565b600054610100900460ff166127065760405162461bcd60e51b815260206004820152602b60248201527f496e697469616c697a61626c653a20636f6e7472616374206973206e6f74206960448201527f6e697469616c697a696e6700000000000000000000000000000000000000000060648201526084016108fa565b610f778282613206565b600054610100900460ff16610e015760405162461bcd60e51b815260206004820152602b60248201527f496e697469616c697a61626c653a20636f6e7472616374206973206e6f74206960448201527f6e697469616c697a696e6700000000000000000000000000000000000000000060648201526084016108fa565b600054610100900460ff1661280a5760405162461bcd60e51b815260206004820152602b60248201527f496e697469616c697a61626c653a20636f6e7472616374206973206e6f74206960448201527f6e697469616c697a696e6700000000000000000000000000000000000000000060648201526084016108fa565b610e0161329c565b600054610100900460ff1661288f5760405162461bcd60e51b815260206004820152602b60248201527f496e697469616c697a61626c653a20636f6e7472616374206973206e6f74206960448201527f6e697469616c697a696e6700000000000000000000000000000000000000000060648201526084016108fa565b610e01613343565b61289f6133c9565b60c980547fffffffffffffffffffffffffffffffffffffffffffffffffffffffffffffff001660011790557f62e78cea01bee320cd4e420270b5ea74000d11b0c9f74754ebdbfc544b05a2586123a03390565b610f7733838361341c565b61290733836123e5565b6129795760405162461bcd60e51b815260206004820152602d60248201527f4552433732313a2063616c6c6572206973206e6f7420746f6b656e206f776e6560448201527f72206f7220617070726f7665640000000000000000000000000000000000000060648201526084016108fa565b610a018484848461352f565b606061019380546107d2906145fa565b606060006129a2836135b8565b600101905060008167ffffffffffffffff8111156129c2576129c261419e565b6040519080825280601f01601f1916602001820160405280156129ec576020820181803683370190505b5090508181016020015b7fffffffffffffffffffffffffffffffffffffffffffffffffffffffffffffffff017f3031323334353637383961626364656600000000000000000000000000000000600a86061a8153600a85049450846129f657509392505050565b600080600080612a628561369a565b6040805160008152602081018083528b905260ff8516918101919091526060810183905260808101829052929550909350915060019060a0016020604051602081039080840390855afa158015612abd573d6000803e3d6000fd5b50506040517fffffffffffffffffffffffffffffffffffffffffffffffffffffffffffffffe00151979650505050505050565b610f7782826040518060200160405280600081525061370c565b60007fffffffff0000000000000000000000000000000000000000000000000000000082167f80ac58cd000000000000000000000000000000000000000000000000000000001480612b9d57507fffffffff0000000000000000000000000000000000000000000000000000000082167f5b5e139f00000000000000000000000000000000000000000000000000000000145b8061074557507f01ffc9a7000000000000000000000000000000000000000000000000000000007fffffffff00000000000000000000000000000000000000000000000000000000831614610745565b600081815260696020526040902080547fffffffffffffffffffffffff00000000000000000000000000000000000000001673ffffffffffffffffffffffffffffffffffffffff84169081179091558190612c4782611318565b73ffffffffffffffffffffffffffffffffffffffff167f8c5be1e5ebec7d5bd14f71427d1e84f3dd0314c0f7b2291e5b200ac8c7c3b92560405160405180910390a45050565b8273ffffffffffffffffffffffffffffffffffffffff16612cad82611318565b73ffffffffffffffffffffffffffffffffffffffff1614612d365760405162461bcd60e51b815260206004820152602560248201527f4552433732313a207472616e736665722066726f6d20696e636f72726563742060448201527f6f776e657200000000000000000000000000000000000000000000000000000060648201526084016108fa565b73ffffffffffffffffffffffffffffffffffffffff8216612dbe5760405162461bcd60e51b8152602060048201526024808201527f4552433732313a207472616e7366657220746f20746865207a65726f2061646460448201527f726573730000000000000000000000000000000000000000000000000000000060648201526084016108fa565b612dcb8383836001612f99565b8273ffffffffffffffffffffffffffffffffffffffff16612deb82611318565b73ffffffffffffffffffffffffffffffffffffffff1614612e745760405162461bcd60e51b815260206004820152602560248201527f4552433732313a207472616e736665722066726f6d20696e636f72726563742060448201527f6f776e657200000000000000000000000000000000000000000000000000000060648201526084016108fa565b600081815260696020908152604080832080547fffffffffffffffffffffffff000000000000000000000000000000000000000090811690915573ffffffffffffffffffffffffffffffffffffffff8781168086526068855283862080547fffffffffffffffffffffffffffffffffffffffffffffffffffffffffffffffff01905590871680865283862080546001019055868652606790945282852080549092168417909155905184937fddf252ad1be2c89b69c2b068fc378daa952ba7f163c4a11628f55a4df523b3ef91a4505050565b60c95460ff16610e015760405162461bcd60e51b815260206004820152601460248201527f5061757361626c653a206e6f742070617573656400000000000000000000000060448201526064016108fa565b612fa16133c9565b6000828152610160602052604090205415612ffe5760405162461bcd60e51b815260206004820152600c60248201527f546f6b656e206c6f636b6564000000000000000000000000000000000000000060448201526064016108fa565b610a0184848484613795565b600054610100900460ff166130875760405162461bcd60e51b815260206004820152602b60248201527f496e697469616c697a61626c653a20636f6e7472616374206973206e6f74206960448201527f6e697469616c697a696e6700000000000000000000000000000000000000000060648201526084016108fa565b6daaeb6d7670e522a718067333cd4e3b15610f7757801561313a576040517f7d3e3dbe00000000000000000000000000000000000000000000000000000000815230600482015273ffffffffffffffffffffffffffffffffffffffff831660248201526daaeb6d7670e522a718067333cd4e90637d3e3dbe906044015b600060405180830381600087803b15801561311e57600080fd5b505af1158015613132573d6000803e3d6000fd5b505050505050565b73ffffffffffffffffffffffffffffffffffffffff8216156131bc576040517fa0af290300000000000000000000000000000000000000000000000000000000815230600482015273ffffffffffffffffffffffffffffffffffffffff831660248201526daaeb6d7670e522a718067333cd4e9063a0af290390604401613104565b6040517f4420e4860000000000000000000000000000000000000000000000000000000081523060048201526daaeb6d7670e522a718067333cd4e90634420e48690602401613104565b600054610100900460ff166132835760405162461bcd60e51b815260206004820152602b60248201527f496e697469616c697a61626c653a20636f6e7472616374206973206e6f74206960448201527f6e697469616c697a696e6700000000000000000000000000000000000000000060648201526084016108fa565b606561328f83826146f1565b50606661089d82826146f1565b600054610100900460ff166133195760405162461bcd60e51b815260206004820152602b60248201527f496e697469616c697a61626c653a20636f6e7472616374206973206e6f74206960448201527f6e697469616c697a696e6700000000000000000000000000000000000000000060648201526084016108fa565b60c980547fffffffffffffffffffffffffffffffffffffffffffffffffffffffffffffff00169055565b600054610100900460ff166133c05760405162461bcd60e51b815260206004820152602b60248201527f496e697469616c697a61626c653a20636f6e7472616374206973206e6f74206960448201527f6e697469616c697a696e6700000000000000000000000000000000000000000060648201526084016108fa565b610e0133612612565b60c95460ff1615610e015760405162461bcd60e51b815260206004820152601060248201527f5061757361626c653a207061757365640000000000000000000000000000000060448201526064016108fa565b8173ffffffffffffffffffffffffffffffffffffffff168373ffffffffffffffffffffffffffffffffffffffff16036134975760405162461bcd60e51b815260206004820152601960248201527f4552433732313a20617070726f766520746f2063616c6c65720000000000000060448201526064016108fa565b73ffffffffffffffffffffffffffffffffffffffff8381166000818152606a602090815260408083209487168084529482529182902080547fffffffffffffffffffffffffffffffffffffffffffffffffffffffffffffff001686151590811790915591519182527f17307eab39ab6107e8899845ad3d59bd9653f200f220920489ca2b5937696c31910160405180910390a3505050565b61353a848484612c8d565b61354684848484613924565b610a015760405162461bcd60e51b815260206004820152603260248201527f4552433732313a207472616e7366657220746f206e6f6e20455243373231526560448201527f63656976657220696d706c656d656e746572000000000000000000000000000060648201526084016108fa565b6000807a184f03e93ff9f4daa797ed6e38ed64bf6a1f0100000000000000008310613601577a184f03e93ff9f4daa797ed6e38ed64bf6a1f010000000000000000830492506040015b6d04ee2d6d415b85acef8100000000831061362d576d04ee2d6d415b85acef8100000000830492506020015b662386f26fc10000831061364b57662386f26fc10000830492506010015b6305f5e1008310613663576305f5e100830492506008015b612710831061367757612710830492506004015b60648310613689576064830492506002015b600a83106107455760010192915050565b600080600083516041146136f05760405162461bcd60e51b815260206004820152600b60248201527f696e76616c69642073696700000000000000000000000000000000000000000060448201526064016108fa565b5050506020810151604082015160609092015160001a92909190565b6137168383613afd565b6137236000848484613924565b61089d5760405162461bcd60e51b815260206004820152603260248201527f4552433732313a207472616e7366657220746f206e6f6e20455243373231526560448201527f63656976657220696d706c656d656e746572000000000000000000000000000060648201526084016108fa565b6137a184848484613ce2565b60018111156138185760405162461bcd60e51b815260206004820152603560248201527f455243373231456e756d657261626c653a20636f6e736563757469766520747260448201527f616e7366657273206e6f7420737570706f72746564000000000000000000000060648201526084016108fa565b8173ffffffffffffffffffffffffffffffffffffffff85166138815761387c81609980546000838152609a60205260408120829055600182018355919091527f72a152ddfb8e864297c917af52ea6c1c68aead0fee1a62673fcc7e0c94979d000155565b6138be565b8373ffffffffffffffffffffffffffffffffffffffff168573ffffffffffffffffffffffffffffffffffffffff16146138be576138be8582613d9e565b73ffffffffffffffffffffffffffffffffffffffff84166138e7576138e281613e55565b611a66565b8473ffffffffffffffffffffffffffffffffffffffff168473ffffffffffffffffffffffffffffffffffffffff1614611a6657611a668482613f04565b600073ffffffffffffffffffffffffffffffffffffffff84163b15613af2576040517f150b7a0200000000000000000000000000000000000000000000000000000000815273ffffffffffffffffffffffffffffffffffffffff85169063150b7a029061399b9033908990889088906004016149b0565b6020604051808303816000875af19250505080156139f4575060408051601f3d9081017fffffffffffffffffffffffffffffffffffffffffffffffffffffffffffffffe01682019092526139f1918101906149f9565b60015b613aa7573d808015613a22576040519150601f19603f3d011682016040523d82523d6000602084013e613a27565b606091505b508051600003613a9f5760405162461bcd60e51b815260206004820152603260248201527f4552433732313a207472616e7366657220746f206e6f6e20455243373231526560448201527f63656976657220696d706c656d656e746572000000000000000000000000000060648201526084016108fa565b805181602001fd5b7fffffffff00000000000000000000000000000000000000000000000000000000167f150b7a020000000000000000000000000000000000000000000000000000000014905061249d565b506001949350505050565b73ffffffffffffffffffffffffffffffffffffffff8216613b605760405162461bcd60e51b815260206004820181905260248201527f4552433732313a206d696e7420746f20746865207a65726f206164647265737360448201526064016108fa565b60008181526067602052604090205473ffffffffffffffffffffffffffffffffffffffff1615613bd25760405162461bcd60e51b815260206004820152601c60248201527f4552433732313a20746f6b656e20616c7265616479206d696e7465640000000060448201526064016108fa565b613be0600083836001612f99565b60008181526067602052604090205473ffffffffffffffffffffffffffffffffffffffff1615613c525760405162461bcd60e51b815260206004820152601c60248201527f4552433732313a20746f6b656e20616c7265616479206d696e7465640000000060448201526064016108fa565b73ffffffffffffffffffffffffffffffffffffffff8216600081815260686020908152604080832080546001019055848352606790915280822080547fffffffffffffffffffffffff0000000000000000000000000000000000000000168417905551839291907fddf252ad1be2c89b69c2b068fc378daa952ba7f163c4a11628f55a4df523b3ef908290a45050565b6001811115610a015773ffffffffffffffffffffffffffffffffffffffff841615613d425773ffffffffffffffffffffffffffffffffffffffff841660009081526068602052604081208054839290613d3c908490614a16565b90915550505b73ffffffffffffffffffffffffffffffffffffffff831615610a015773ffffffffffffffffffffffffffffffffffffffff831660009081526068602052604081208054839290613d93908490614a29565b909155505050505050565b60006001613dab84611419565b613db59190614a16565b600083815260986020526040902054909150808214613e155773ffffffffffffffffffffffffffffffffffffffff841660009081526097602090815260408083208584528252808320548484528184208190558352609890915290208190555b50600091825260986020908152604080842084905573ffffffffffffffffffffffffffffffffffffffff9094168352609781528383209183525290812055565b609954600090613e6790600190614a16565b6000838152609a602052604081205460998054939450909284908110613e8f57613e8f61464d565b906000526020600020015490508060998381548110613eb057613eb061464d565b6000918252602080832090910192909255828152609a90915260408082208490558582528120556099805480613ee857613ee861467c565b6001900381819060005260206000200160009055905550505050565b6000613f0f83611419565b73ffffffffffffffffffffffffffffffffffffffff9093166000908152609760209081526040808320868452825280832085905593825260989052919091209190915550565b7fffffffff0000000000000000000000000000000000000000000000000000000081168114610ebb57600080fd5b600060208284031215613f9557600080fd5b8135611b0081613f55565b803573ffffffffffffffffffffffffffffffffffffffff81168114613fc457600080fd5b919050565b600060208284031215613fdb57600080fd5b611b0082613fa0565b60005b83811015613fff578181015183820152602001613fe7565b50506000910152565b60008151808452614020816020860160208601613fe4565b601f017fffffffffffffffffffffffffffffffffffffffffffffffffffffffffffffffe0169290920160200192915050565b602081526000611b006020830184614008565b60006020828403121561407757600080fd5b5035919050565b6000806040838503121561409157600080fd5b61409a83613fa0565b946020939093013593505050565b60008083601f8401126140ba57600080fd5b50813567ffffffffffffffff8111156140d257600080fd5b6020830191508360208260051b85010111156140ed57600080fd5b9250929050565b60008060006040848603121561410957600080fd5b833567ffffffffffffffff81111561412057600080fd5b61412c868287016140a8565b909790965060209590950135949350505050565b60008060006060848603121561415557600080fd5b61415e84613fa0565b925061416c60208501613fa0565b9150604084013590509250925092565b6000806040838503121561418f57600080fd5b50508035926020909101359150565b7f4e487b7100000000000000000000000000000000000000000000000000000000600052604160045260246000fd5b600067ffffffffffffffff808411156141e8576141e861419e565b604051601f85017fffffffffffffffffffffffffffffffffffffffffffffffffffffffffffffffe0908116603f0116810190828211818310171561422e5761422e61419e565b8160405280935085815286868601111561424757600080fd5b858560208301376000602087830101525050509392505050565b600082601f83011261427257600080fd5b611b00838335602085016141cd565b60006020828403121561429357600080fd5b813567ffffffffffffffff8111156142aa57600080fd5b61249d84828501614261565b600080600080600060a086880312156142ce57600080fd5b853567ffffffffffffffff808211156142e657600080fd5b6142f289838a01614261565b9650602088013591508082111561430857600080fd5b61431489838a01614261565b95506040880135945061432960608901613fa0565b9350608088013591508082111561433f57600080fd5b5061434c88828901614261565b9150509295509295909350565b6000806020838503121561436c57600080fd5b823567ffffffffffffffff81111561438357600080fd5b61438f858286016140a8565b90969095509350505050565b8015158114610ebb57600080fd5b600080604083850312156143bc57600080fd5b6143c583613fa0565b915060208301356143d58161439b565b809150509250929050565b600080600080604085870312156143f657600080fd5b843567ffffffffffffffff8082111561440e57600080fd5b61441a888389016140a8565b9096509450602087013591508082111561443357600080fd5b50614440878288016140a8565b95989497509550505050565b6000806000806080858703121561446257600080fd5b61446b85613fa0565b935061447960208601613fa0565b925060408501359150606085013567ffffffffffffffff81111561449c57600080fd5b8501601f810187136144ad57600080fd5b6144bc878235602084016141cd565b91505092959194509250565b60008083601f8401126144da57600080fd5b50813567ffffffffffffffff8111156144f257600080fd5b6020830191508360208285010111156140ed57600080fd5b6000806000806000806060878903121561452357600080fd5b863567ffffffffffffffff8082111561453b57600080fd5b6145478a838b016140a8565b9098509650602089013591508082111561456057600080fd5b61456c8a838b016144c8565b9096509450604089013591508082111561458557600080fd5b5061459289828a016144c8565b979a9699509497509295939492505050565b600080604083850312156145b757600080fd5b6145c083613fa0565b91506145ce60208401613fa0565b90509250929050565b600080604083850312156145ea57600080fd5b823591506145ce60208401613fa0565b600181811c9082168061460e57607f821691505b602082108103614647577f4e487b7100000000000000000000000000000000000000000000000000000000600052602260045260246000fd5b50919050565b7f4e487b7100000000000000000000000000000000000000000000000000000000600052603260045260246000fd5b7f4e487b7100000000000000000000000000000000000000000000000000000000600052603160045260246000fd5b601f82111561089d57600081815260208120601f850160051c810160208610156146d25750805b601f850160051c820191505b81811015613132578281556001016146de565b815167ffffffffffffffff81111561470b5761470b61419e565b61471f8161471984546145fa565b846146ab565b602080601f831160018114614772576000841561473c5750858301515b7fffffffffffffffffffffffffffffffffffffffffffffffffffffffffffffffff600386901b1c1916600185901b178555613132565b6000858152602081207fffffffffffffffffffffffffffffffffffffffffffffffffffffffffffffffe08616915b828110156147bf578886015182559484019460019091019084016147a0565b50858210156147fb57878501517fffffffffffffffffffffffffffffffffffffffffffffffffffffffffffffffff600388901b60f8161c191681555b5050505050600190811b01905550565b60006020828403121561481d57600080fd5b5051919050565b60006020828403121561483657600080fd5b8151611b008161439b565b60006020828403121561485357600080fd5b8135611b008161439b565b60008351614870818460208801613fe4565b835190830190614884818360208801613fe4565b01949350505050565b6060815284606082015260007f07ffffffffffffffffffffffffffffffffffffffffffffffffffffffffffffff8611156148c657600080fd5b8560051b8088608085013773ffffffffffffffffffffffffffffffffffffffff861660208401528201828103608090810160408501528101849052838560a0830137600060a0858301015260a07fffffffffffffffffffffffffffffffffffffffffffffffffffffffffffffffe0601f8601168201019150509695505050505050565b7f4e487b7100000000000000000000000000000000000000000000000000000000600052601160045260246000fd5b60007fffffffffffffffffffffffffffffffffffffffffffffffffffffffffffffffff82036149a9576149a9614949565b5060010190565b600073ffffffffffffffffffffffffffffffffffffffff8087168352808616602084015250836040830152608060608301526149ef6080830184614008565b9695505050505050565b600060208284031215614a0b57600080fd5b8151611b0081613f55565b8181038181111561074557610745614949565b808201808211156107455761074561494956fea26469706673582212207ec29ff1cda24e528ca04ead30a42d067fc47b61b455b6c68edfd5ecf0642d8c64736f6c63430008110033",
  "linkReferences": {},
  "deployedLinkReferences": {}
}