{
  "_format": "hh-sol-artifact-1",
  "contractName": "MKGenesisV1",
  "sourceName": "contracts/MKGenesisV1.sol",
  "abi": [
    {
      "inputs": [],
      "stateMutability": "nonpayable",
      "type": "constructor"
    },
    {
      "anonymous": false,
      "inputs": [
        {
          "indexed": true,
          "internalType": "address",
          "name": "owner",
          "type": "address"
        },
        {
          "indexed": true,
          "internalType": "address",
          "name": "approved",
          "type": "address"
        },
        {
          "indexed": true,
          "internalType": "uint256",
          "name": "tokenId",
          "type": "uint256"
        }
      ],
      "name": "Approval",
      "type": "event"
    },
    {
      "anonymous": false,
      "inputs": [
        {
          "indexed": true,
          "internalType": "address",
          "name": "owner",
          "type": "address"
        },
        {
          "indexed": true,
          "internalType": "address",
          "name": "operator",
          "type": "address"
        },
        {
          "indexed": false,
          "internalType": "bool",
          "name": "approved",
          "type": "bool"
        }
      ],
      "name": "ApprovalForAll",
      "type": "event"
    },
    {
      "anonymous": false,
      "inputs": [
        {
          "indexed": true,
          "internalType": "address",
          "name": "newSigner",
          "type": "address"
        }
      ],
      "name": "AuthSignerSet",
      "type": "event"
    },
    {
      "anonymous": false,
      "inputs": [
        {
          "indexed": false,
          "internalType": "uint8",
          "name": "version",
          "type": "uint8"
        }
      ],
      "name": "Initialized",
      "type": "event"
    },
    {
      "anonymous": false,
      "inputs": [
        {
          "indexed": true,
          "internalType": "address",
          "name": "previousOwner",
          "type": "address"
        },
        {
          "indexed": true,
          "internalType": "address",
          "name": "newOwner",
          "type": "address"
        }
      ],
      "name": "OwnershipTransferred",
      "type": "event"
    },
    {
      "anonymous": false,
      "inputs": [
        {
          "indexed": false,
          "internalType": "address",
          "name": "account",
          "type": "address"
        }
      ],
      "name": "Paused",
      "type": "event"
    },
    {
      "anonymous": false,
      "inputs": [
        {
          "indexed": true,
          "internalType": "address",
          "name": "from",
          "type": "address"
        },
        {
          "indexed": true,
          "internalType": "address",
          "name": "to",
          "type": "address"
        },
        {
          "indexed": true,
          "internalType": "uint256",
          "name": "tokenId",
          "type": "uint256"
        }
      ],
      "name": "Transfer",
      "type": "event"
    },
    {
      "anonymous": false,
      "inputs": [
        {
          "indexed": false,
          "internalType": "address",
          "name": "account",
          "type": "address"
        }
      ],
      "name": "Unpaused",
      "type": "event"
    },
    {
      "inputs": [],
      "name": "MAX_SUPPLY",
      "outputs": [
        {
          "internalType": "uint256",
          "name": "",
          "type": "uint256"
        }
      ],
      "stateMutability": "view",
      "type": "function"
    },
    {
      "inputs": [
        {
          "internalType": "address",
          "name": "to",
          "type": "address"
        },
        {
          "internalType": "uint256",
          "name": "tokenId",
          "type": "uint256"
        }
      ],
      "name": "approve",
      "outputs": [],
      "stateMutability": "nonpayable",
      "type": "function"
    },
    {
      "inputs": [
        {
          "internalType": "address",
          "name": "",
          "type": "address"
        }
      ],
      "name": "approvedContract",
      "outputs": [
        {
          "internalType": "bool",
          "name": "",
          "type": "bool"
        }
      ],
      "stateMutability": "view",
      "type": "function"
    },
    {
      "inputs": [],
      "name": "authSigner",
      "outputs": [
        {
          "internalType": "address",
          "name": "",
          "type": "address"
        }
      ],
      "stateMutability": "view",
      "type": "function"
    },
    {
      "inputs": [
        {
          "internalType": "address",
          "name": "owner",
          "type": "address"
        }
      ],
      "name": "balanceOf",
      "outputs": [
        {
          "internalType": "uint256",
          "name": "",
          "type": "uint256"
        }
      ],
      "stateMutability": "view",
      "type": "function"
    },
    {
      "inputs": [],
      "name": "baseURI",
      "outputs": [
        {
          "internalType": "string",
          "name": "",
          "type": "string"
        }
      ],
      "stateMutability": "view",
      "type": "function"
    },
    {
      "inputs": [
        {
          "internalType": "uint256",
          "name": "tokenId",
          "type": "uint256"
        }
      ],
      "name": "burn",
      "outputs": [],
      "stateMutability": "nonpayable",
      "type": "function"
    },
    {
      "inputs": [
        {
          "internalType": "uint256",
          "name": "_id",
          "type": "uint256"
        },
        {
          "internalType": "uint256",
          "name": "pos",
          "type": "uint256"
        }
      ],
      "name": "clearLockId",
      "outputs": [],
      "stateMutability": "nonpayable",
      "type": "function"
    },
    {
      "inputs": [
        {
          "internalType": "uint256",
          "name": "_id",
          "type": "uint256"
        },
        {
          "internalType": "address",
          "name": "addr",
          "type": "address"
        }
      ],
      "name": "findPos",
      "outputs": [
        {
          "internalType": "uint256",
          "name": "",
          "type": "uint256"
        }
      ],
      "stateMutability": "view",
      "type": "function"
    },
    {
      "inputs": [
        {
          "internalType": "uint256",
          "name": "tokenId",
          "type": "uint256"
        }
      ],
      "name": "getApproved",
      "outputs": [
        {
          "internalType": "address",
          "name": "",
          "type": "address"
        }
      ],
      "stateMutability": "view",
      "type": "function"
    },
    {
      "inputs": [
        {
          "internalType": "string",
          "name": "tokenName",
          "type": "string"
        },
        {
          "internalType": "string",
          "name": "tokenSymbol",
          "type": "string"
        },
        {
          "internalType": "uint256",
          "name": "maxSupply",
          "type": "uint256"
        },
        {
          "internalType": "address",
          "name": "_authSigner",
          "type": "address"
        },
        {
          "internalType": "string",
          "name": "__baseURI",
          "type": "string"
        }
      ],
      "name": "initialize",
      "outputs": [],
      "stateMutability": "nonpayable",
      "type": "function"
    },
    {
      "inputs": [
        {
          "internalType": "address",
          "name": "owner",
          "type": "address"
        },
        {
          "internalType": "address",
          "name": "operator",
          "type": "address"
        }
      ],
      "name": "isApprovedForAll",
      "outputs": [
        {
          "internalType": "bool",
          "name": "",
          "type": "bool"
        }
      ],
      "stateMutability": "view",
      "type": "function"
    },
    {
      "inputs": [
        {
          "internalType": "uint256",
          "name": "_id",
          "type": "uint256"
        }
      ],
      "name": "isUnlocked",
      "outputs": [
        {
          "internalType": "bool",
          "name": "",
          "type": "bool"
        }
      ],
      "stateMutability": "view",
      "type": "function"
    },
    {
      "inputs": [
        {
          "internalType": "uint256",
          "name": "_id",
          "type": "uint256"
        }
      ],
      "name": "lock",
      "outputs": [],
      "stateMutability": "nonpayable",
      "type": "function"
    },
    {
      "inputs": [
        {
          "internalType": "uint256",
          "name": "",
          "type": "uint256"
        },
        {
          "internalType": "uint256",
          "name": "",
          "type": "uint256"
        }
      ],
      "name": "locks",
      "outputs": [
        {
          "internalType": "address",
          "name": "",
          "type": "address"
        }
      ],
      "stateMutability": "view",
      "type": "function"
    },
    {
      "inputs": [
        {
          "internalType": "uint256[]",
          "name": "tokenIds",
          "type": "uint256[]"
        },
        {
          "internalType": "bytes",
          "name": "sig",
          "type": "bytes"
        },
        {
          "internalType": "string",
          "name": "solSig",
          "type": "string"
        }
      ],
      "name": "migrate",
      "outputs": [],
      "stateMutability": "nonpayable",
      "type": "function"
    },
    {
      "inputs": [],
      "name": "name",
      "outputs": [
        {
          "internalType": "string",
          "name": "",
          "type": "string"
        }
      ],
      "stateMutability": "view",
      "type": "function"
    },
    {
      "inputs": [],
      "name": "owner",
      "outputs": [
        {
          "internalType": "address",
          "name": "",
          "type": "address"
        }
      ],
      "stateMutability": "view",
      "type": "function"
    },
    {
      "inputs": [
        {
          "internalType": "uint256",
          "name": "tokenId",
          "type": "uint256"
        }
      ],
      "name": "ownerOf",
      "outputs": [
        {
          "internalType": "address",
          "name": "",
          "type": "address"
        }
      ],
      "stateMutability": "view",
      "type": "function"
    },
    {
      "inputs": [],
      "name": "pause",
      "outputs": [],
      "stateMutability": "nonpayable",
      "type": "function"
    },
    {
      "inputs": [],
      "name": "paused",
      "outputs": [
        {
          "internalType": "bool",
          "name": "",
          "type": "bool"
        }
      ],
      "stateMutability": "view",
      "type": "function"
    },
    {
      "inputs": [
        {
          "internalType": "address",
          "name": "tokenAddress",
          "type": "address"
        }
      ],
      "name": "recoverERC20",
      "outputs": [],
      "stateMutability": "nonpayable",
      "type": "function"
    },
    {
      "inputs": [],
      "name": "renounceOwnership",
      "outputs": [],
      "stateMutability": "nonpayable",
      "type": "function"
    },
    {
      "inputs": [
        {
          "internalType": "address",
          "name": "from",
          "type": "address"
        },
        {
          "internalType": "address",
          "name": "to",
          "type": "address"
        },
        {
          "internalType": "uint256",
          "name": "tokenId",
          "type": "uint256"
        }
      ],
      "name": "safeTransferFrom",
      "outputs": [],
      "stateMutability": "nonpayable",
      "type": "function"
    },
    {
      "inputs": [
        {
          "internalType": "address",
          "name": "from",
          "type": "address"
        },
        {
          "internalType": "address",
          "name": "to",
          "type": "address"
        },
        {
          "internalType": "uint256",
          "name": "tokenId",
          "type": "uint256"
        },
        {
          "internalType": "bytes",
          "name": "data",
          "type": "bytes"
        }
      ],
      "name": "safeTransferFrom",
      "outputs": [],
      "stateMutability": "nonpayable",
      "type": "function"
    },
    {
      "inputs": [
        {
          "internalType": "address",
          "name": "operator",
          "type": "address"
        },
        {
          "internalType": "bool",
          "name": "approved",
          "type": "bool"
        }
      ],
      "name": "setApprovalForAll",
      "outputs": [],
      "stateMutability": "nonpayable",
      "type": "function"
    },
    {
      "inputs": [
        {
          "internalType": "address",
          "name": "_authSigner",
          "type": "address"
        }
      ],
      "name": "setAuthSigner",
      "outputs": [],
      "stateMutability": "nonpayable",
      "type": "function"
    },
    {
      "inputs": [
        {
          "internalType": "string",
          "name": "newURI",
          "type": "string"
        }
      ],
      "name": "setBaseURI",
      "outputs": [],
      "stateMutability": "nonpayable",
      "type": "function"
    },
    {
      "inputs": [
        {
          "internalType": "bytes4",
          "name": "interfaceId",
          "type": "bytes4"
        }
      ],
      "name": "supportsInterface",
      "outputs": [
        {
          "internalType": "bool",
          "name": "",
          "type": "bool"
        }
      ],
      "stateMutability": "view",
      "type": "function"
    },
    {
      "inputs": [],
      "name": "symbol",
      "outputs": [
        {
          "internalType": "string",
          "name": "",
          "type": "string"
        }
      ],
      "stateMutability": "view",
      "type": "function"
    },
    {
      "inputs": [
        {
          "internalType": "uint256",
          "name": "index",
          "type": "uint256"
        }
      ],
      "name": "tokenByIndex",
      "outputs": [
        {
          "internalType": "uint256",
          "name": "",
          "type": "uint256"
        }
      ],
      "stateMutability": "view",
      "type": "function"
    },
    {
      "inputs": [
        {
          "internalType": "address",
          "name": "owner",
          "type": "address"
        },
        {
          "internalType": "uint256",
          "name": "index",
          "type": "uint256"
        }
      ],
      "name": "tokenOfOwnerByIndex",
      "outputs": [
        {
          "internalType": "uint256",
          "name": "",
          "type": "uint256"
        }
      ],
      "stateMutability": "view",
      "type": "function"
    },
    {
      "inputs": [
        {
          "internalType": "uint256",
          "name": "tokenId",
          "type": "uint256"
        }
      ],
      "name": "tokenURI",
      "outputs": [
        {
          "internalType": "string",
          "name": "",
          "type": "string"
        }
      ],
      "stateMutability": "view",
      "type": "function"
    },
    {
      "inputs": [],
      "name": "totalSupply",
      "outputs": [
        {
          "internalType": "uint256",
          "name": "",
          "type": "uint256"
        }
      ],
      "stateMutability": "view",
      "type": "function"
    },
    {
      "inputs": [
        {
          "internalType": "address",
          "name": "from",
          "type": "address"
        },
        {
          "internalType": "address",
          "name": "to",
          "type": "address"
        },
        {
          "internalType": "uint256",
          "name": "tokenId",
          "type": "uint256"
        }
      ],
      "name": "transferFrom",
      "outputs": [],
      "stateMutability": "nonpayable",
      "type": "function"
    },
    {
      "inputs": [
        {
          "internalType": "address",
          "name": "newOwner",
          "type": "address"
        }
      ],
      "name": "transferOwnership",
      "outputs": [],
      "stateMutability": "nonpayable",
      "type": "function"
    },
    {
      "inputs": [
        {
          "internalType": "uint256",
          "name": "_id",
          "type": "uint256"
        },
        {
          "internalType": "uint256",
          "name": "pos",
          "type": "uint256"
        }
      ],
      "name": "unlock",
      "outputs": [],
      "stateMutability": "nonpayable",
      "type": "function"
    },
    {
      "inputs": [],
      "name": "unpause",
      "outputs": [],
      "stateMutability": "nonpayable",
      "type": "function"
    },
    {
      "inputs": [
        {
          "internalType": "address[]",
          "name": "_contracts",
          "type": "address[]"
        },
        {
          "internalType": "bool[]",
          "name": "_values",
          "type": "bool[]"
        }
      ],
      "name": "updateApprovedContracts",
      "outputs": [],
      "stateMutability": "nonpayable",
      "type": "function"
    }
  ],
  "bytecode": "0x60806040523480156200001157600080fd5b506200001c62000022565b620000e4565b600054610100900460ff16156200008f5760405162461bcd60e51b815260206004820152602760248201527f496e697469616c697a61626c653a20636f6e747261637420697320696e697469604482015266616c697a696e6760c81b606482015260840160405180910390fd5b60005460ff9081161015620000e2576000805460ff191660ff9081179091556040519081527f7f26b83ff96e1f2b6a682f133852f6798a09c465da95921460cefb38474024989060200160405180910390a15b565b613fad80620000f46000396000f3fe608060405234801561001057600080fd5b50600436106102ad5760003560e01c806370a082311161017b578063ac52e644116100d8578063cfdaf2f61161008c578063e985e9c511610071578063e985e9c51461058c578063f2fde38b146105d5578063f82c3d95146105e857600080fd5b8063cfdaf2f614610566578063dd4670641461057957600080fd5b8063b42348ac116100bd578063b42348ac1461051f578063b88d4fde14610540578063c87b56dd1461055357600080fd5b8063ac52e644146104e8578063b1a6505f146104fb57600080fd5b80638456cb591161012f57806395d89b411161011457806395d89b41146104ba5780639e8c708e146104c2578063a22cb465146104d557600080fd5b80638456cb59146104945780638da5cb5b1461049c57600080fd5b806372abc8b71161016057806372abc8b71461044c578063806802071461046e57806383f270201461048157600080fd5b806370a0823114610431578063715018a61461044457600080fd5b806332cb6b0c1161022957806355f804b3116101dd5780635c975abb116101c25780635c975abb1461040b5780636352211e146104165780636c0360eb1461042957600080fd5b806355f804b3146103e55780635bfadb24146103f857600080fd5b806342842e0e1161020e57806342842e0e146103ac57806342966c68146103bf5780634f6ccce7146103d257600080fd5b806332cb6b0c1461039a5780633f4ba83a146103a457600080fd5b8063095ea7b31161028057806323b872dd1161026557806323b872dd146103615780632cffdfb6146103745780632f745c591461038757600080fd5b8063095ea7b31461033c57806318160ddd1461034f57600080fd5b806301ffc9a7146102b25780630532bca1146102da57806306fdde03146102ef578063081812fc14610304575b600080fd5b6102c56102c0366004613544565b6105fb565b60405190151581526020015b60405180910390f35b6102ed6102e836600461358a565b61060c565b005b6102f7610684565b6040516102d19190613613565b610317610312366004613626565b610716565b60405173ffffffffffffffffffffffffffffffffffffffff90911681526020016102d1565b6102ed61034a36600461363f565b61074a565b6099545b6040519081526020016102d1565b6102ed61036f366004613669565b6108a7565b6102ed6103823660046136a5565b61092f565b61035361039536600461363f565b610b3c565b6103536101915481565b6102ed610bf1565b6102ed6103ba366004613669565b610c03565b6102ed6103cd366004613626565b610c1e565b6103536103e0366004613626565b610ca5565b6102ed6103f33660046137aa565b610d49565b6102ed6104063660046136a5565b610d62565b60c95460ff166102c5565b610317610424366004613626565b610fba565b6102f761102c565b61035361043f36600461358a565b6110bb565b6102ed61116f565b6102c561045a366004613626565b600090815261016060205260409020541590565b6102ed61047c3660046137df565b611181565b61031761048f3660046136a5565b61132b565b6102ed611371565b60fb5473ffffffffffffffffffffffffffffffffffffffff16610317565b6102f7611381565b6102ed6104d036600461358a565b611390565b6102ed6104e3366004613890565b6114f6565b6102ed6104f6366004613913565b611501565b6102c561050936600461358a565b61015f6020526000908152604090205460ff1681565b610192546103179073ffffffffffffffffffffffffffffffffffffffff1681565b6102ed61054e36600461397f565b611618565b6102f7610561366004613626565b6116a6565b6102ed610574366004613a3d565b61170d565b6102ed610587366004613626565b61183a565b6102c561059a366004613ad7565b73ffffffffffffffffffffffffffffffffffffffff9182166000908152606a6020908152604080832093909416825291909152205460ff1690565b6102ed6105e336600461358a565b611999565b6103536105f6366004613b0a565b611a33565b600061060682611b11565b92915050565b610614611b67565b61019280547fffffffffffffffffffffffff00000000000000000000000000000000000000001673ffffffffffffffffffffffffffffffffffffffff83169081179091556040517f9ee0f407fe781f489d612b2879aea89a7ce73492166d123f0b55ec4295626e4d90600090a250565b60606065805461069390613b2d565b80601f01602080910402602001604051908101604052809291908181526020018280546106bf90613b2d565b801561070c5780601f106106e15761010080835404028352916020019161070c565b820191906000526020600020905b8154815290600101906020018083116106ef57829003601f168201915b5050505050905090565b600061072182611bce565b5060009081526069602052604090205473ffffffffffffffffffffffffffffffffffffffff1690565b600061075582610fba565b90508073ffffffffffffffffffffffffffffffffffffffff168373ffffffffffffffffffffffffffffffffffffffff16036107fd5760405162461bcd60e51b815260206004820152602160248201527f4552433732313a20617070726f76616c20746f2063757272656e74206f776e6560448201527f720000000000000000000000000000000000000000000000000000000000000060648201526084015b60405180910390fd5b3373ffffffffffffffffffffffffffffffffffffffff821614806108265750610826813361059a565b6108985760405162461bcd60e51b815260206004820152603d60248201527f4552433732313a20617070726f76652063616c6c6572206973206e6f7420746f60448201527f6b656e206f776e6572206f7220617070726f76656420666f7220616c6c00000060648201526084016107f4565b6108a28383611c3f565b505050565b6108b2335b82611cdf565b6109245760405162461bcd60e51b815260206004820152602d60248201527f4552433732313a2063616c6c6572206973206e6f7420746f6b656e206f776e6560448201527f72206f7220617070726f7665640000000000000000000000000000000000000060648201526084016107f4565b6108a2838383611d9f565b60008281526101606020526040812080548390811061095057610950613b80565b600091825260208083209091015473ffffffffffffffffffffffffffffffffffffffff1680835261015f90915260409091205490915060ff16156109d65760405162461bcd60e51b815260206004820152600d60248201527f4163636573732064656e6965640000000000000000000000000000000000000060448201526064016107f4565b600083815261016060205260409020547fffffffffffffffffffffffffffffffffffffffffffffffffffffffffffffffff01828114610ac057600084815261016060205260409020805482908110610a3057610a30613b80565b60009182526020808320909101548683526101609091526040909120805473ffffffffffffffffffffffffffffffffffffffff9092169185908110610a7757610a77613b80565b9060005260206000200160006101000a81548173ffffffffffffffffffffffffffffffffffffffff021916908373ffffffffffffffffffffffffffffffffffffffff1602179055505b600084815261016060205260409020805480610ade57610ade613baf565b60008281526020902081017fffffffffffffffffffffffffffffffffffffffffffffffffffffffffffffffff90810180547fffffffffffffffffffffffff000000000000000000000000000000000000000016905501905550505050565b6000610b47836110bb565b8210610bbb5760405162461bcd60e51b815260206004820152602b60248201527f455243373231456e756d657261626c653a206f776e657220696e646578206f7560448201527f74206f6620626f756e647300000000000000000000000000000000000000000060648201526084016107f4565b5073ffffffffffffffffffffffffffffffffffffffff919091166000908152609760209081526040808320938352929052205490565b610bf9611b67565b610c01612059565b565b6108a283838360405180602001604052806000815250611618565b610c27336108ac565b610c995760405162461bcd60e51b815260206004820152602d60248201527f4552433732313a2063616c6c6572206973206e6f7420746f6b656e206f776e6560448201527f72206f7220617070726f7665640000000000000000000000000000000000000060648201526084016107f4565b610ca2816120d6565b50565b6000610cb060995490565b8210610d245760405162461bcd60e51b815260206004820152602c60248201527f455243373231456e756d657261626c653a20676c6f62616c20696e646578206f60448201527f7574206f6620626f756e6473000000000000000000000000000000000000000060648201526084016107f4565b60998281548110610d3757610d37613b80565b90600052602060002001549050919050565b610d51611b67565b610193610d5e8282613c2c565b5050565b33600090815261015f602052604090205460ff16610dc25760405162461bcd60e51b815260206004820152600d60248201527f4163636573732064656e6965640000000000000000000000000000000000000060448201526064016107f4565b600082815261016060205260409020805433919083908110610de657610de6613b80565b60009182526020909120015473ffffffffffffffffffffffffffffffffffffffff1614610e555760405162461bcd60e51b815260206004820152600d60248201527f506f7320696e636f72726563740000000000000000000000000000000000000060448201526064016107f4565b600082815261016060205260409020547fffffffffffffffffffffffffffffffffffffffffffffffffffffffffffffffff01818114610f3f57600083815261016060205260409020805482908110610eaf57610eaf613b80565b60009182526020808320909101548583526101609091526040909120805473ffffffffffffffffffffffffffffffffffffffff9092169184908110610ef657610ef6613b80565b9060005260206000200160006101000a81548173ffffffffffffffffffffffffffffffffffffffff021916908373ffffffffffffffffffffffffffffffffffffffff1602179055505b600083815261016060205260409020805480610f5d57610f5d613baf565b60008281526020902081017fffffffffffffffffffffffffffffffffffffffffffffffffffffffffffffffff90810180547fffffffffffffffffffffffff0000000000000000000000000000000000000000169055019055505050565b60008181526067602052604081205473ffffffffffffffffffffffffffffffffffffffff16806106065760405162461bcd60e51b815260206004820152601860248201527f4552433732313a20696e76616c696420746f6b656e204944000000000000000060448201526064016107f4565b610193805461103a90613b2d565b80601f016020809104026020016040519081016040528092919081815260200182805461106690613b2d565b80156110b35780601f10611088576101008083540402835291602001916110b3565b820191906000526020600020905b81548152906001019060200180831161109657829003601f168201915b505050505081565b600073ffffffffffffffffffffffffffffffffffffffff82166111465760405162461bcd60e51b815260206004820152602960248201527f4552433732313a2061646472657373207a65726f206973206e6f74206120766160448201527f6c6964206f776e6572000000000000000000000000000000000000000000000060648201526084016107f4565b5073ffffffffffffffffffffffffffffffffffffffff1660009081526068602052604090205490565b611177611b67565b610c0160006121bc565b600054600190610100900460ff161580156111a3575060005460ff8083169116105b6112155760405162461bcd60e51b815260206004820152602e60248201527f496e697469616c697a61626c653a20636f6e747261637420697320616c72656160448201527f647920696e697469616c697a656400000000000000000000000000000000000060648201526084016107f4565b600080547fffffffffffffffffffffffffffffffffffffffffffffffffffffffffffff00001660ff8316176101001790556112508686612233565b6112586122ba565b611260612337565b6112686123bc565b6112706122ba565b61019280547fffffffffffffffffffffffff00000000000000000000000000000000000000001673ffffffffffffffffffffffffffffffffffffffff85161790556101936112be8382613c2c565b50610191849055600080547fffffffffffffffffffffffffffffffffffffffffffffffffffffffffffff00ff16905560405160ff821681527f7f26b83ff96e1f2b6a682f133852f6798a09c465da95921460cefb38474024989060200160405180910390a1505050505050565b610160602052816000526040600020818154811061134857600080fd5b60009182526020909120015473ffffffffffffffffffffffffffffffffffffffff169150829050565b611379611b67565b610c01612441565b60606066805461069390613b2d565b611398611b67565b8073ffffffffffffffffffffffffffffffffffffffff811663a9059cbb6113d460fb5473ffffffffffffffffffffffffffffffffffffffff1690565b6040517f70a0823100000000000000000000000000000000000000000000000000000000815230600482015273ffffffffffffffffffffffffffffffffffffffff8516906370a0823190602401602060405180830381865afa15801561143e573d6000803e3d6000fd5b505050506040513d601f19601f820116820180604052508101906114629190613d46565b6040517fffffffff0000000000000000000000000000000000000000000000000000000060e085901b16815273ffffffffffffffffffffffffffffffffffffffff909216600483015260248201526044016020604051808303816000875af11580156114d2573d6000803e3d6000fd5b505050506040513d601f19601f820116820180604052508101906108a29190613d5f565b610d5e33838361249c565b611509611b67565b8281146115585760405162461bcd60e51b815260206004820152600760248201527f216c656e6774680000000000000000000000000000000000000000000000000060448201526064016107f4565b60005b838110156116115782828281811061157557611575613b80565b905060200201602081019061158a9190613d7c565b61015f60008787858181106115a1576115a1613b80565b90506020020160208101906115b6919061358a565b73ffffffffffffffffffffffffffffffffffffffff168152602081019190915260400160002080547fffffffffffffffffffffffffffffffffffffffffffffffffffffffffffffff001691151591909117905560010161155b565b5050505050565b6116223383611cdf565b6116945760405162461bcd60e51b815260206004820152602d60248201527f4552433732313a2063616c6c6572206973206e6f7420746f6b656e206f776e6560448201527f72206f7220617070726f7665640000000000000000000000000000000000000060648201526084016107f4565b6116a0848484846125af565b50505050565b60606116b182611bce565b60006116bb612638565b905060008151116116db5760405180602001604052806000815250611706565b806116e584612648565b6040516020016116f6929190613d99565b6040516020818303038152906040525b9392505050565b60008686338585604051602001611728959493929190613dc8565b60405160208183030381529060405290506000611782828051906020012087878080601f01602080910402602001604051908101604052809392919081815260200183838082843760009201919091525061270692505050565b6101925490915073ffffffffffffffffffffffffffffffffffffffff8083169116146117f05760405162461bcd60e51b815260206004820152600b60248201527f496e76616c69642073696700000000000000000000000000000000000000000060448201526064016107f4565b60005b8781101561182f5761181d338a8a8481811061181157611811613b80565b905060200201356127a3565b8061182781613eb3565b9150506117f3565b505050505050505050565b33600090815261015f602052604090205460ff1661189a5760405162461bcd60e51b815260206004820152600d60248201527f4163636573732064656e6965640000000000000000000000000000000000000060448201526064016107f4565b60005b6000828152610160602052604090205481101561194f576000828152610160602052604090208054339190839081106118d8576118d8613b80565b60009182526020909120015473ffffffffffffffffffffffffffffffffffffffff16036119475760405162461bcd60e51b815260206004820152601b60248201527f494420616c7265616479206c6f636b65642062792063616c6c6572000000000060448201526064016107f4565b60010161189d565b506000908152610160602090815260408220805460018101825590835291200180547fffffffffffffffffffffffff00000000000000000000000000000000000000001633179055565b6119a1611b67565b73ffffffffffffffffffffffffffffffffffffffff8116611a2a5760405162461bcd60e51b815260206004820152602660248201527f4f776e61626c653a206e6577206f776e657220697320746865207a65726f206160448201527f646472657373000000000000000000000000000000000000000000000000000060648201526084016107f4565b610ca2816121bc565b6000805b60008481526101606020526040902054811015611ac857600084815261016060205260409020805473ffffffffffffffffffffffffffffffffffffffff8516919083908110611a8857611a88613b80565b60009182526020909120015473ffffffffffffffffffffffffffffffffffffffff1603611ab6579050610606565b80611ac081613eb3565b915050611a37565b5060405162461bcd60e51b815260206004820152600960248201527f4e6f7420666f756e64000000000000000000000000000000000000000000000060448201526064016107f4565b60007fffffffff0000000000000000000000000000000000000000000000000000000082167f780e9d630000000000000000000000000000000000000000000000000000000014806106065750610606826127bd565b60fb5473ffffffffffffffffffffffffffffffffffffffff163314610c015760405162461bcd60e51b815260206004820181905260248201527f4f776e61626c653a2063616c6c6572206973206e6f7420746865206f776e657260448201526064016107f4565b60008181526067602052604090205473ffffffffffffffffffffffffffffffffffffffff16610ca25760405162461bcd60e51b815260206004820152601860248201527f4552433732313a20696e76616c696420746f6b656e204944000000000000000060448201526064016107f4565b600081815260696020526040902080547fffffffffffffffffffffffff00000000000000000000000000000000000000001673ffffffffffffffffffffffffffffffffffffffff84169081179091558190611c9982610fba565b73ffffffffffffffffffffffffffffffffffffffff167f8c5be1e5ebec7d5bd14f71427d1e84f3dd0314c0f7b2291e5b200ac8c7c3b92560405160405180910390a45050565b600080611ceb83610fba565b90508073ffffffffffffffffffffffffffffffffffffffff168473ffffffffffffffffffffffffffffffffffffffff161480611d59575073ffffffffffffffffffffffffffffffffffffffff8082166000908152606a602090815260408083209388168352929052205460ff165b80611d9757508373ffffffffffffffffffffffffffffffffffffffff16611d7f84610716565b73ffffffffffffffffffffffffffffffffffffffff16145b949350505050565b8273ffffffffffffffffffffffffffffffffffffffff16611dbf82610fba565b73ffffffffffffffffffffffffffffffffffffffff1614611e485760405162461bcd60e51b815260206004820152602560248201527f4552433732313a207472616e736665722066726f6d20696e636f72726563742060448201527f6f776e657200000000000000000000000000000000000000000000000000000060648201526084016107f4565b73ffffffffffffffffffffffffffffffffffffffff8216611ed05760405162461bcd60e51b8152602060048201526024808201527f4552433732313a207472616e7366657220746f20746865207a65726f2061646460448201527f726573730000000000000000000000000000000000000000000000000000000060648201526084016107f4565b611edd83838360016128a0565b8273ffffffffffffffffffffffffffffffffffffffff16611efd82610fba565b73ffffffffffffffffffffffffffffffffffffffff1614611f865760405162461bcd60e51b815260206004820152602560248201527f4552433732313a207472616e736665722066726f6d20696e636f72726563742060448201527f6f776e657200000000000000000000000000000000000000000000000000000060648201526084016107f4565b600081815260696020908152604080832080547fffffffffffffffffffffffff000000000000000000000000000000000000000090811690915573ffffffffffffffffffffffffffffffffffffffff8781168086526068855283862080547fffffffffffffffffffffffffffffffffffffffffffffffffffffffffffffffff01905590871680865283862080546001019055868652606790945282852080549092168417909155905184937fddf252ad1be2c89b69c2b068fc378daa952ba7f163c4a11628f55a4df523b3ef91a4505050565b612061612911565b60c980547fffffffffffffffffffffffffffffffffffffffffffffffffffffffffffffff001690557f5db9ee0a495bf2e6ff9c91a7834c1ba4fdd244a5e8aa4e537bd38aeae4b073aa335b60405173ffffffffffffffffffffffffffffffffffffffff909116815260200160405180910390a1565b60006120e182610fba565b90506120f18160008460016128a0565b6120fa82610fba565b600083815260696020908152604080832080547fffffffffffffffffffffffff000000000000000000000000000000000000000090811690915573ffffffffffffffffffffffffffffffffffffffff85168085526068845282852080547fffffffffffffffffffffffffffffffffffffffffffffffffffffffffffffffff0190558785526067909352818420805490911690555192935084927fddf252ad1be2c89b69c2b068fc378daa952ba7f163c4a11628f55a4df523b3ef908390a45050565b60fb805473ffffffffffffffffffffffffffffffffffffffff8381167fffffffffffffffffffffffff0000000000000000000000000000000000000000831681179093556040519116919082907f8be0079c531659141344cd1fd0a4f28419497f9722a3daafe3b4186f6b6457e090600090a35050565b600054610100900460ff166122b05760405162461bcd60e51b815260206004820152602b60248201527f496e697469616c697a61626c653a20636f6e7472616374206973206e6f74206960448201527f6e697469616c697a696e6700000000000000000000000000000000000000000060648201526084016107f4565b610d5e8282612963565b600054610100900460ff16610c015760405162461bcd60e51b815260206004820152602b60248201527f496e697469616c697a61626c653a20636f6e7472616374206973206e6f74206960448201527f6e697469616c697a696e6700000000000000000000000000000000000000000060648201526084016107f4565b600054610100900460ff166123b45760405162461bcd60e51b815260206004820152602b60248201527f496e697469616c697a61626c653a20636f6e7472616374206973206e6f74206960448201527f6e697469616c697a696e6700000000000000000000000000000000000000000060648201526084016107f4565b610c016129f9565b600054610100900460ff166124395760405162461bcd60e51b815260206004820152602b60248201527f496e697469616c697a61626c653a20636f6e7472616374206973206e6f74206960448201527f6e697469616c697a696e6700000000000000000000000000000000000000000060648201526084016107f4565b610c01612aa0565b612449612b26565b60c980547fffffffffffffffffffffffffffffffffffffffffffffffffffffffffffffff001660011790557f62e78cea01bee320cd4e420270b5ea74000d11b0c9f74754ebdbfc544b05a2586120ac3390565b8173ffffffffffffffffffffffffffffffffffffffff168373ffffffffffffffffffffffffffffffffffffffff16036125175760405162461bcd60e51b815260206004820152601960248201527f4552433732313a20617070726f766520746f2063616c6c65720000000000000060448201526064016107f4565b73ffffffffffffffffffffffffffffffffffffffff8381166000818152606a602090815260408083209487168084529482529182902080547fffffffffffffffffffffffffffffffffffffffffffffffffffffffffffffff001686151590811790915591519182527f17307eab39ab6107e8899845ad3d59bd9653f200f220920489ca2b5937696c31910160405180910390a3505050565b6125ba848484611d9f565b6125c684848484612b79565b6116a05760405162461bcd60e51b815260206004820152603260248201527f4552433732313a207472616e7366657220746f206e6f6e20455243373231526560448201527f63656976657220696d706c656d656e746572000000000000000000000000000060648201526084016107f4565b6060610193805461069390613b2d565b6060600061265583612d52565b600101905060008167ffffffffffffffff811115612675576126756136c7565b6040519080825280601f01601f19166020018201604052801561269f576020820181803683370190505b5090508181016020015b7fffffffffffffffffffffffffffffffffffffffffffffffffffffffffffffffff017f3031323334353637383961626364656600000000000000000000000000000000600a86061a8153600a85049450846126a957509392505050565b60008060008061271585612e34565b6040805160008152602081018083528b905260ff8516918101919091526060810183905260808101829052929550909350915060019060a0016020604051602081039080840390855afa158015612770573d6000803e3d6000fd5b50506040517fffffffffffffffffffffffffffffffffffffffffffffffffffffffffffffffe00151979650505050505050565b610d5e828260405180602001604052806000815250612ea6565b60007fffffffff0000000000000000000000000000000000000000000000000000000082167f80ac58cd00000000000000000000000000000000000000000000000000000000148061285057507fffffffff0000000000000000000000000000000000000000000000000000000082167f5b5e139f00000000000000000000000000000000000000000000000000000000145b8061060657507f01ffc9a7000000000000000000000000000000000000000000000000000000007fffffffff00000000000000000000000000000000000000000000000000000000831614610606565b6128a8612b26565b60008281526101606020526040902054156129055760405162461bcd60e51b815260206004820152600c60248201527f546f6b656e206c6f636b6564000000000000000000000000000000000000000060448201526064016107f4565b6116a084848484612f2f565b60c95460ff16610c015760405162461bcd60e51b815260206004820152601460248201527f5061757361626c653a206e6f742070617573656400000000000000000000000060448201526064016107f4565b600054610100900460ff166129e05760405162461bcd60e51b815260206004820152602b60248201527f496e697469616c697a61626c653a20636f6e7472616374206973206e6f74206960448201527f6e697469616c697a696e6700000000000000000000000000000000000000000060648201526084016107f4565b60656129ec8382613c2c565b5060666108a28282613c2c565b600054610100900460ff16612a765760405162461bcd60e51b815260206004820152602b60248201527f496e697469616c697a61626c653a20636f6e7472616374206973206e6f74206960448201527f6e697469616c697a696e6700000000000000000000000000000000000000000060648201526084016107f4565b60c980547fffffffffffffffffffffffffffffffffffffffffffffffffffffffffffffff00169055565b600054610100900460ff16612b1d5760405162461bcd60e51b815260206004820152602b60248201527f496e697469616c697a61626c653a20636f6e7472616374206973206e6f74206960448201527f6e697469616c697a696e6700000000000000000000000000000000000000000060648201526084016107f4565b610c01336121bc565b60c95460ff1615610c015760405162461bcd60e51b815260206004820152601060248201527f5061757361626c653a207061757365640000000000000000000000000000000060448201526064016107f4565b600073ffffffffffffffffffffffffffffffffffffffff84163b15612d47576040517f150b7a0200000000000000000000000000000000000000000000000000000000815273ffffffffffffffffffffffffffffffffffffffff85169063150b7a0290612bf0903390899088908890600401613eeb565b6020604051808303816000875af1925050508015612c49575060408051601f3d9081017fffffffffffffffffffffffffffffffffffffffffffffffffffffffffffffffe0168201909252612c4691810190613f34565b60015b612cfc573d808015612c77576040519150601f19603f3d011682016040523d82523d6000602084013e612c7c565b606091505b508051600003612cf45760405162461bcd60e51b815260206004820152603260248201527f4552433732313a207472616e7366657220746f206e6f6e20455243373231526560448201527f63656976657220696d706c656d656e746572000000000000000000000000000060648201526084016107f4565b805181602001fd5b7fffffffff00000000000000000000000000000000000000000000000000000000167f150b7a0200000000000000000000000000000000000000000000000000000000149050611d97565b506001949350505050565b6000807a184f03e93ff9f4daa797ed6e38ed64bf6a1f0100000000000000008310612d9b577a184f03e93ff9f4daa797ed6e38ed64bf6a1f010000000000000000830492506040015b6d04ee2d6d415b85acef81000000008310612dc7576d04ee2d6d415b85acef8100000000830492506020015b662386f26fc100008310612de557662386f26fc10000830492506010015b6305f5e1008310612dfd576305f5e100830492506008015b6127108310612e1157612710830492506004015b60648310612e23576064830492506002015b600a83106106065760010192915050565b60008060008351604114612e8a5760405162461bcd60e51b815260206004820152600b60248201527f696e76616c69642073696700000000000000000000000000000000000000000060448201526064016107f4565b5050506020810151604082015160609092015160001a92909190565b612eb083836130be565b612ebd6000848484612b79565b6108a25760405162461bcd60e51b815260206004820152603260248201527f4552433732313a207472616e7366657220746f206e6f6e20455243373231526560448201527f63656976657220696d706c656d656e746572000000000000000000000000000060648201526084016107f4565b612f3b848484846132a3565b6001811115612fb25760405162461bcd60e51b815260206004820152603560248201527f455243373231456e756d657261626c653a20636f6e736563757469766520747260448201527f616e7366657273206e6f7420737570706f72746564000000000000000000000060648201526084016107f4565b8173ffffffffffffffffffffffffffffffffffffffff851661301b5761301681609980546000838152609a60205260408120829055600182018355919091527f72a152ddfb8e864297c917af52ea6c1c68aead0fee1a62673fcc7e0c94979d000155565b613058565b8373ffffffffffffffffffffffffffffffffffffffff168573ffffffffffffffffffffffffffffffffffffffff161461305857613058858261335f565b73ffffffffffffffffffffffffffffffffffffffff84166130815761307c81613416565b611611565b8473ffffffffffffffffffffffffffffffffffffffff168473ffffffffffffffffffffffffffffffffffffffff16146116115761161184826134c5565b73ffffffffffffffffffffffffffffffffffffffff82166131215760405162461bcd60e51b815260206004820181905260248201527f4552433732313a206d696e7420746f20746865207a65726f206164647265737360448201526064016107f4565b60008181526067602052604090205473ffffffffffffffffffffffffffffffffffffffff16156131935760405162461bcd60e51b815260206004820152601c60248201527f4552433732313a20746f6b656e20616c7265616479206d696e7465640000000060448201526064016107f4565b6131a16000838360016128a0565b60008181526067602052604090205473ffffffffffffffffffffffffffffffffffffffff16156132135760405162461bcd60e51b815260206004820152601c60248201527f4552433732313a20746f6b656e20616c7265616479206d696e7465640000000060448201526064016107f4565b73ffffffffffffffffffffffffffffffffffffffff8216600081815260686020908152604080832080546001019055848352606790915280822080547fffffffffffffffffffffffff0000000000000000000000000000000000000000168417905551839291907fddf252ad1be2c89b69c2b068fc378daa952ba7f163c4a11628f55a4df523b3ef908290a45050565b60018111156116a05773ffffffffffffffffffffffffffffffffffffffff8416156133035773ffffffffffffffffffffffffffffffffffffffff8416600090815260686020526040812080548392906132fd908490613f51565b90915550505b73ffffffffffffffffffffffffffffffffffffffff8316156116a05773ffffffffffffffffffffffffffffffffffffffff831660009081526068602052604081208054839290613354908490613f64565b909155505050505050565b6000600161336c846110bb565b6133769190613f51565b6000838152609860205260409020549091508082146133d65773ffffffffffffffffffffffffffffffffffffffff841660009081526097602090815260408083208584528252808320548484528184208190558352609890915290208190555b50600091825260986020908152604080842084905573ffffffffffffffffffffffffffffffffffffffff9094168352609781528383209183525290812055565b60995460009061342890600190613f51565b6000838152609a60205260408120546099805493945090928490811061345057613450613b80565b90600052602060002001549050806099838154811061347157613471613b80565b6000918252602080832090910192909255828152609a909152604080822084905585825281205560998054806134a9576134a9613baf565b6001900381819060005260206000200160009055905550505050565b60006134d0836110bb565b73ffffffffffffffffffffffffffffffffffffffff9093166000908152609760209081526040808320868452825280832085905593825260989052919091209190915550565b7fffffffff0000000000000000000000000000000000000000000000000000000081168114610ca257600080fd5b60006020828403121561355657600080fd5b813561170681613516565b803573ffffffffffffffffffffffffffffffffffffffff8116811461358557600080fd5b919050565b60006020828403121561359c57600080fd5b61170682613561565b60005b838110156135c05781810151838201526020016135a8565b50506000910152565b600081518084526135e18160208601602086016135a5565b601f017fffffffffffffffffffffffffffffffffffffffffffffffffffffffffffffffe0169290920160200192915050565b60208152600061170660208301846135c9565b60006020828403121561363857600080fd5b5035919050565b6000806040838503121561365257600080fd5b61365b83613561565b946020939093013593505050565b60008060006060848603121561367e57600080fd5b61368784613561565b925061369560208501613561565b9150604084013590509250925092565b600080604083850312156136b857600080fd5b50508035926020909101359150565b7f4e487b7100000000000000000000000000000000000000000000000000000000600052604160045260246000fd5b600067ffffffffffffffff80841115613711576137116136c7565b604051601f85017fffffffffffffffffffffffffffffffffffffffffffffffffffffffffffffffe0908116603f01168101908282118183101715613757576137576136c7565b8160405280935085815286868601111561377057600080fd5b858560208301376000602087830101525050509392505050565b600082601f83011261379b57600080fd5b611706838335602085016136f6565b6000602082840312156137bc57600080fd5b813567ffffffffffffffff8111156137d357600080fd5b611d978482850161378a565b600080600080600060a086880312156137f757600080fd5b853567ffffffffffffffff8082111561380f57600080fd5b61381b89838a0161378a565b9650602088013591508082111561383157600080fd5b61383d89838a0161378a565b95506040880135945061385260608901613561565b9350608088013591508082111561386857600080fd5b506138758882890161378a565b9150509295509295909350565b8015158114610ca257600080fd5b600080604083850312156138a357600080fd5b6138ac83613561565b915060208301356138bc81613882565b809150509250929050565b60008083601f8401126138d957600080fd5b50813567ffffffffffffffff8111156138f157600080fd5b6020830191508360208260051b850101111561390c57600080fd5b9250929050565b6000806000806040858703121561392957600080fd5b843567ffffffffffffffff8082111561394157600080fd5b61394d888389016138c7565b9096509450602087013591508082111561396657600080fd5b50613973878288016138c7565b95989497509550505050565b6000806000806080858703121561399557600080fd5b61399e85613561565b93506139ac60208601613561565b925060408501359150606085013567ffffffffffffffff8111156139cf57600080fd5b8501601f810187136139e057600080fd5b6139ef878235602084016136f6565b91505092959194509250565b60008083601f840112613a0d57600080fd5b50813567ffffffffffffffff811115613a2557600080fd5b60208301915083602082850101111561390c57600080fd5b60008060008060008060608789031215613a5657600080fd5b863567ffffffffffffffff80821115613a6e57600080fd5b613a7a8a838b016138c7565b90985096506020890135915080821115613a9357600080fd5b613a9f8a838b016139fb565b90965094506040890135915080821115613ab857600080fd5b50613ac589828a016139fb565b979a9699509497509295939492505050565b60008060408385031215613aea57600080fd5b613af383613561565b9150613b0160208401613561565b90509250929050565b60008060408385031215613b1d57600080fd5b82359150613b0160208401613561565b600181811c90821680613b4157607f821691505b602082108103613b7a577f4e487b7100000000000000000000000000000000000000000000000000000000600052602260045260246000fd5b50919050565b7f4e487b7100000000000000000000000000000000000000000000000000000000600052603260045260246000fd5b7f4e487b7100000000000000000000000000000000000000000000000000000000600052603160045260246000fd5b601f8211156108a257600081815260208120601f850160051c81016020861015613c055750805b601f850160051c820191505b81811015613c2457828155600101613c11565b505050505050565b815167ffffffffffffffff811115613c4657613c466136c7565b613c5a81613c548454613b2d565b84613bde565b602080601f831160018114613cad5760008415613c775750858301515b7fffffffffffffffffffffffffffffffffffffffffffffffffffffffffffffffff600386901b1c1916600185901b178555613c24565b6000858152602081207fffffffffffffffffffffffffffffffffffffffffffffffffffffffffffffffe08616915b82811015613cfa57888601518255948401946001909101908401613cdb565b5085821015613d3657878501517fffffffffffffffffffffffffffffffffffffffffffffffffffffffffffffffff600388901b60f8161c191681555b5050505050600190811b01905550565b600060208284031215613d5857600080fd5b5051919050565b600060208284031215613d7157600080fd5b815161170681613882565b600060208284031215613d8e57600080fd5b813561170681613882565b60008351613dab8184602088016135a5565b835190830190613dbf8183602088016135a5565b01949350505050565b6060815284606082015260007f07ffffffffffffffffffffffffffffffffffffffffffffffffffffffffffffff861115613e0157600080fd5b8560051b8088608085013773ffffffffffffffffffffffffffffffffffffffff861660208401528201828103608090810160408501528101849052838560a0830137600060a0858301015260a07fffffffffffffffffffffffffffffffffffffffffffffffffffffffffffffffe0601f8601168201019150509695505050505050565b7f4e487b7100000000000000000000000000000000000000000000000000000000600052601160045260246000fd5b60007fffffffffffffffffffffffffffffffffffffffffffffffffffffffffffffffff8203613ee457613ee4613e84565b5060010190565b600073ffffffffffffffffffffffffffffffffffffffff808716835280861660208401525083604083015260806060830152613f2a60808301846135c9565b9695505050505050565b600060208284031215613f4657600080fd5b815161170681613516565b8181038181111561060657610606613e84565b8082018082111561060657610606613e8456fea2646970667358221220dd45d19397dc0a90f7e87277c7e9e5e94517a5999bb16d692506c840648b928464736f6c63430008110033",
  "linkReferences": {},
  "deployedLinkReferences": {}
}