{
  "_format": "hh-sol-artifact-1",
  "contractName": "MKGenesisV1",
  "sourceName": "contracts/MKGenesisV1.sol",
  "abi": [
    {
      "inputs": [],
      "stateMutability": "nonpayable",
      "type": "constructor"
    },
    {
      "anonymous": false,
      "inputs": [
        {
          "indexed": true,
          "internalType": "address",
          "name": "owner",
          "type": "address"
        },
        {
          "indexed": true,
          "internalType": "address",
          "name": "approved",
          "type": "address"
        },
        {
          "indexed": true,
          "internalType": "uint256",
          "name": "tokenId",
          "type": "uint256"
        }
      ],
      "name": "Approval",
      "type": "event"
    },
    {
      "anonymous": false,
      "inputs": [
        {
          "indexed": true,
          "internalType": "address",
          "name": "owner",
          "type": "address"
        },
        {
          "indexed": true,
          "internalType": "address",
          "name": "operator",
          "type": "address"
        },
        {
          "indexed": false,
          "internalType": "bool",
          "name": "approved",
          "type": "bool"
        }
      ],
      "name": "ApprovalForAll",
      "type": "event"
    },
    {
      "anonymous": false,
      "inputs": [
        {
          "indexed": true,
          "internalType": "address",
          "name": "newSigner",
          "type": "address"
        }
      ],
      "name": "AuthSignerSet",
      "type": "event"
    },
    {
      "anonymous": false,
      "inputs": [
        {
          "indexed": false,
          "internalType": "uint8",
          "name": "version",
          "type": "uint8"
        }
      ],
      "name": "Initialized",
      "type": "event"
    },
    {
      "anonymous": false,
      "inputs": [
        {
          "indexed": true,
          "internalType": "address",
          "name": "previousOwner",
          "type": "address"
        },
        {
          "indexed": true,
          "internalType": "address",
          "name": "newOwner",
          "type": "address"
        }
      ],
      "name": "OwnershipTransferred",
      "type": "event"
    },
    {
      "anonymous": false,
      "inputs": [
        {
          "indexed": false,
          "internalType": "address",
          "name": "account",
          "type": "address"
        }
      ],
      "name": "Paused",
      "type": "event"
    },
    {
      "anonymous": false,
      "inputs": [
        {
          "indexed": true,
          "internalType": "address",
          "name": "from",
          "type": "address"
        },
        {
          "indexed": true,
          "internalType": "address",
          "name": "to",
          "type": "address"
        },
        {
          "indexed": true,
          "internalType": "uint256",
          "name": "tokenId",
          "type": "uint256"
        }
      ],
      "name": "Transfer",
      "type": "event"
    },
    {
      "anonymous": false,
      "inputs": [
        {
          "indexed": false,
          "internalType": "address",
          "name": "account",
          "type": "address"
        }
      ],
      "name": "Unpaused",
      "type": "event"
    },
    {
      "inputs": [],
      "name": "MAX_SUPPLY",
      "outputs": [
        {
          "internalType": "uint256",
          "name": "",
          "type": "uint256"
        }
      ],
      "stateMutability": "view",
      "type": "function"
    },
    {
      "inputs": [
        {
          "internalType": "address",
          "name": "to",
          "type": "address"
        },
        {
          "internalType": "uint256",
          "name": "tokenId",
          "type": "uint256"
        }
      ],
      "name": "approve",
      "outputs": [],
      "stateMutability": "nonpayable",
      "type": "function"
    },
    {
      "inputs": [
        {
          "internalType": "address",
          "name": "",
          "type": "address"
        }
      ],
      "name": "approvedContract",
      "outputs": [
        {
          "internalType": "bool",
          "name": "",
          "type": "bool"
        }
      ],
      "stateMutability": "view",
      "type": "function"
    },
    {
      "inputs": [],
      "name": "authSigner",
      "outputs": [
        {
          "internalType": "address",
          "name": "",
          "type": "address"
        }
      ],
      "stateMutability": "view",
      "type": "function"
    },
    {
      "inputs": [
        {
          "internalType": "address",
          "name": "owner",
          "type": "address"
        }
      ],
      "name": "balanceOf",
      "outputs": [
        {
          "internalType": "uint256",
          "name": "",
          "type": "uint256"
        }
      ],
      "stateMutability": "view",
      "type": "function"
    },
    {
      "inputs": [],
      "name": "baseURI",
      "outputs": [
        {
          "internalType": "string",
          "name": "",
          "type": "string"
        }
      ],
      "stateMutability": "view",
      "type": "function"
    },
    {
      "inputs": [
        {
          "internalType": "uint256",
          "name": "tokenId",
          "type": "uint256"
        }
      ],
      "name": "burn",
      "outputs": [],
      "stateMutability": "nonpayable",
      "type": "function"
    },
    {
      "inputs": [
        {
          "internalType": "uint256",
          "name": "_id",
          "type": "uint256"
        },
        {
          "internalType": "uint256",
          "name": "pos",
          "type": "uint256"
        }
      ],
      "name": "clearLockId",
      "outputs": [],
      "stateMutability": "nonpayable",
      "type": "function"
    },
    {
      "inputs": [
        {
          "internalType": "uint256",
          "name": "_id",
          "type": "uint256"
        },
        {
          "internalType": "address",
          "name": "addr",
          "type": "address"
        }
      ],
      "name": "findPos",
      "outputs": [
        {
          "internalType": "uint256",
          "name": "",
          "type": "uint256"
        }
      ],
      "stateMutability": "view",
      "type": "function"
    },
    {
      "inputs": [
        {
          "internalType": "uint256",
          "name": "tokenId",
          "type": "uint256"
        }
      ],
      "name": "getApproved",
      "outputs": [
        {
          "internalType": "address",
          "name": "",
          "type": "address"
        }
      ],
      "stateMutability": "view",
      "type": "function"
    },
    {
      "inputs": [
        {
          "internalType": "string",
          "name": "tokenName",
          "type": "string"
        },
        {
          "internalType": "string",
          "name": "tokenSymbol",
          "type": "string"
        },
        {
          "internalType": "uint256",
          "name": "maxSupply",
          "type": "uint256"
        },
        {
          "internalType": "address",
          "name": "_authSigner",
          "type": "address"
        },
        {
          "internalType": "string",
          "name": "__baseURI",
          "type": "string"
        }
      ],
      "name": "initialize",
      "outputs": [],
      "stateMutability": "nonpayable",
      "type": "function"
    },
    {
      "inputs": [
        {
          "internalType": "address",
          "name": "owner",
          "type": "address"
        },
        {
          "internalType": "address",
          "name": "operator",
          "type": "address"
        }
      ],
      "name": "isApprovedForAll",
      "outputs": [
        {
          "internalType": "bool",
          "name": "",
          "type": "bool"
        }
      ],
      "stateMutability": "view",
      "type": "function"
    },
    {
      "inputs": [
        {
          "internalType": "uint256",
          "name": "_id",
          "type": "uint256"
        }
      ],
      "name": "isUnlocked",
      "outputs": [
        {
          "internalType": "bool",
          "name": "",
          "type": "bool"
        }
      ],
      "stateMutability": "view",
      "type": "function"
    },
    {
      "inputs": [
        {
          "internalType": "uint256",
          "name": "_id",
          "type": "uint256"
        }
      ],
      "name": "lock",
      "outputs": [],
      "stateMutability": "nonpayable",
      "type": "function"
    },
    {
      "inputs": [
        {
          "internalType": "uint256",
          "name": "",
          "type": "uint256"
        },
        {
          "internalType": "uint256",
          "name": "",
          "type": "uint256"
        }
      ],
      "name": "locks",
      "outputs": [
        {
          "internalType": "address",
          "name": "",
          "type": "address"
        }
      ],
      "stateMutability": "view",
      "type": "function"
    },
    {
      "inputs": [
        {
          "internalType": "uint256[]",
          "name": "tokenIds",
          "type": "uint256[]"
        },
        {
          "internalType": "bytes",
          "name": "sig",
          "type": "bytes"
        },
        {
          "internalType": "string",
          "name": "solSig",
          "type": "string"
        }
      ],
      "name": "migrate",
      "outputs": [],
      "stateMutability": "nonpayable",
      "type": "function"
    },
    {
      "inputs": [],
      "name": "name",
      "outputs": [
        {
          "internalType": "string",
          "name": "",
          "type": "string"
        }
      ],
      "stateMutability": "view",
      "type": "function"
    },
    {
      "inputs": [],
      "name": "owner",
      "outputs": [
        {
          "internalType": "address",
          "name": "",
          "type": "address"
        }
      ],
      "stateMutability": "view",
      "type": "function"
    },
    {
      "inputs": [
        {
          "internalType": "uint256",
          "name": "tokenId",
          "type": "uint256"
        }
      ],
      "name": "ownerOf",
      "outputs": [
        {
          "internalType": "address",
          "name": "",
          "type": "address"
        }
      ],
      "stateMutability": "view",
      "type": "function"
    },
    {
      "inputs": [],
      "name": "pause",
      "outputs": [],
      "stateMutability": "nonpayable",
      "type": "function"
    },
    {
      "inputs": [],
      "name": "paused",
      "outputs": [
        {
          "internalType": "bool",
          "name": "",
          "type": "bool"
        }
      ],
      "stateMutability": "view",
      "type": "function"
    },
    {
      "inputs": [
        {
          "internalType": "address",
          "name": "tokenAddress",
          "type": "address"
        }
      ],
      "name": "recoverERC20",
      "outputs": [],
      "stateMutability": "nonpayable",
      "type": "function"
    },
    {
      "inputs": [],
      "name": "renounceOwnership",
      "outputs": [],
      "stateMutability": "nonpayable",
      "type": "function"
    },
    {
      "inputs": [
        {
          "internalType": "address",
          "name": "from",
          "type": "address"
        },
        {
          "internalType": "address",
          "name": "to",
          "type": "address"
        },
        {
          "internalType": "uint256",
          "name": "tokenId",
          "type": "uint256"
        }
      ],
      "name": "safeTransferFrom",
      "outputs": [],
      "stateMutability": "nonpayable",
      "type": "function"
    },
    {
      "inputs": [
        {
          "internalType": "address",
          "name": "from",
          "type": "address"
        },
        {
          "internalType": "address",
          "name": "to",
          "type": "address"
        },
        {
          "internalType": "uint256",
          "name": "tokenId",
          "type": "uint256"
        },
        {
          "internalType": "bytes",
          "name": "data",
          "type": "bytes"
        }
      ],
      "name": "safeTransferFrom",
      "outputs": [],
      "stateMutability": "nonpayable",
      "type": "function"
    },
    {
      "inputs": [
        {
          "internalType": "address",
          "name": "operator",
          "type": "address"
        },
        {
          "internalType": "bool",
          "name": "approved",
          "type": "bool"
        }
      ],
      "name": "setApprovalForAll",
      "outputs": [],
      "stateMutability": "nonpayable",
      "type": "function"
    },
    {
      "inputs": [
        {
          "internalType": "address",
          "name": "_authSigner",
          "type": "address"
        }
      ],
      "name": "setAuthSigner",
      "outputs": [],
      "stateMutability": "nonpayable",
      "type": "function"
    },
    {
      "inputs": [
        {
          "internalType": "string",
          "name": "newURI",
          "type": "string"
        }
      ],
      "name": "setBaseURI",
      "outputs": [],
      "stateMutability": "nonpayable",
      "type": "function"
    },
    {
      "inputs": [
        {
          "internalType": "bytes4",
          "name": "interfaceId",
          "type": "bytes4"
        }
      ],
      "name": "supportsInterface",
      "outputs": [
        {
          "internalType": "bool",
          "name": "",
          "type": "bool"
        }
      ],
      "stateMutability": "view",
      "type": "function"
    },
    {
      "inputs": [],
      "name": "symbol",
      "outputs": [
        {
          "internalType": "string",
          "name": "",
          "type": "string"
        }
      ],
      "stateMutability": "view",
      "type": "function"
    },
    {
      "inputs": [
        {
          "internalType": "uint256",
          "name": "index",
          "type": "uint256"
        }
      ],
      "name": "tokenByIndex",
      "outputs": [
        {
          "internalType": "uint256",
          "name": "",
          "type": "uint256"
        }
      ],
      "stateMutability": "view",
      "type": "function"
    },
    {
      "inputs": [
        {
          "internalType": "address",
          "name": "owner",
          "type": "address"
        },
        {
          "internalType": "uint256",
          "name": "index",
          "type": "uint256"
        }
      ],
      "name": "tokenOfOwnerByIndex",
      "outputs": [
        {
          "internalType": "uint256",
          "name": "",
          "type": "uint256"
        }
      ],
      "stateMutability": "view",
      "type": "function"
    },
    {
      "inputs": [
        {
          "internalType": "uint256",
          "name": "tokenId",
          "type": "uint256"
        }
      ],
      "name": "tokenURI",
      "outputs": [
        {
          "internalType": "string",
          "name": "",
          "type": "string"
        }
      ],
      "stateMutability": "view",
      "type": "function"
    },
    {
      "inputs": [],
      "name": "totalSupply",
      "outputs": [
        {
          "internalType": "uint256",
          "name": "",
          "type": "uint256"
        }
      ],
      "stateMutability": "view",
      "type": "function"
    },
    {
      "inputs": [
        {
          "internalType": "address",
          "name": "from",
          "type": "address"
        },
        {
          "internalType": "address",
          "name": "to",
          "type": "address"
        },
        {
          "internalType": "uint256",
          "name": "tokenId",
          "type": "uint256"
        }
      ],
      "name": "transferFrom",
      "outputs": [],
      "stateMutability": "nonpayable",
      "type": "function"
    },
    {
      "inputs": [
        {
          "internalType": "address",
          "name": "newOwner",
          "type": "address"
        }
      ],
      "name": "transferOwnership",
      "outputs": [],
      "stateMutability": "nonpayable",
      "type": "function"
    },
    {
      "inputs": [
        {
          "internalType": "uint256",
          "name": "_id",
          "type": "uint256"
        },
        {
          "internalType": "uint256",
          "name": "pos",
          "type": "uint256"
        }
      ],
      "name": "unlock",
      "outputs": [],
      "stateMutability": "nonpayable",
      "type": "function"
    },
    {
      "inputs": [],
      "name": "unpause",
      "outputs": [],
      "stateMutability": "nonpayable",
      "type": "function"
    },
    {
      "inputs": [
        {
          "internalType": "address[]",
          "name": "_contracts",
          "type": "address[]"
        },
        {
          "internalType": "bool[]",
          "name": "_values",
          "type": "bool[]"
        }
      ],
      "name": "updateApprovedContracts",
      "outputs": [],
      "stateMutability": "nonpayable",
      "type": "function"
    }
  ],
  "bytecode": "0x60806040523480156200001157600080fd5b506200001c62000022565b620000e4565b600054610100900460ff16156200008f5760405162461bcd60e51b815260206004820152602760248201527f496e697469616c697a61626c653a20636f6e747261637420697320696e697469604482015266616c697a696e6760c81b606482015260840160405180910390fd5b60005460ff9081161015620000e2576000805460ff191660ff9081179091556040519081527f7f26b83ff96e1f2b6a682f133852f6798a09c465da95921460cefb38474024989060200160405180910390a15b565b6139f180620000f46000396000f3fe608060405234801561001057600080fd5b50600436106102ad5760003560e01c806370a082311161017b578063ac52e644116100d8578063cfdaf2f61161008c578063e985e9c511610071578063e985e9c514610565578063f2fde38b146105a1578063f82c3d95146105b457600080fd5b8063cfdaf2f61461053f578063dd4670641461055257600080fd5b8063b42348ac116100bd578063b42348ac14610505578063b88d4fde14610519578063c87b56dd1461052c57600080fd5b8063ac52e644146104ce578063b1a6505f146104e157600080fd5b80638456cb591161012f57806395d89b411161011457806395d89b41146104a05780639e8c708e146104a8578063a22cb465146104bb57600080fd5b80638456cb59146104875780638da5cb5b1461048f57600080fd5b806372abc8b71161016057806372abc8b71461043f578063806802071461046157806383f270201461047457600080fd5b806370a0823114610424578063715018a61461043757600080fd5b806332cb6b0c1161022957806355f804b3116101dd5780635c975abb116101c25780635c975abb146103fe5780636352211e146104095780636c0360eb1461041c57600080fd5b806355f804b3146103d85780635bfadb24146103eb57600080fd5b806342842e0e1161020e57806342842e0e1461039f57806342966c68146103b25780634f6ccce7146103c557600080fd5b806332cb6b0c1461038d5780633f4ba83a1461039757600080fd5b8063095ea7b31161028057806323b872dd1161026557806323b872dd146103545780632cffdfb6146103675780632f745c591461037a57600080fd5b8063095ea7b31461032f57806318160ddd1461034257600080fd5b806301ffc9a7146102b25780630532bca1146102da57806306fdde03146102ef578063081812fc14610304575b600080fd5b6102c56102c0366004613081565b6105c7565b60405190151581526020015b60405180910390f35b6102ed6102e83660046130ba565b6105d8565b005b6102f7610643565b6040516102d19190613125565b610317610312366004613138565b6106d5565b6040516001600160a01b0390911681526020016102d1565b6102ed61033d366004613151565b6106fc565b6099545b6040519081526020016102d1565b6102ed61036236600461317b565b610832565b6102ed6103753660046131b7565b6108ba565b610346610388366004613151565b610a57565b6103466101915481565b6102ed610aff565b6102ed6103ad36600461317b565b610b11565b6102ed6103c0366004613138565b610b2c565b6103466103d3366004613138565b610bb3565b6102ed6103e636600461329e565b610c57565b6102ed6103f93660046131b7565b610c70565b60c95460ff166102c5565b610317610417366004613138565b610e58565b6102f7610ebd565b6103466104323660046130ba565b610f4c565b6102ed610fe6565b6102c561044d366004613138565b600090815261016060205260409020541590565b6102ed61046f3660046132d3565b610ff8565b6103176104823660046131b7565b611195565b6102ed6111ce565b60fb546001600160a01b0316610317565b6102f76111de565b6102ed6104b63660046130ba565b6111ed565b6102ed6104c9366004613384565b61131f565b6102ed6104dc366004613407565b61132a565b6102c56104ef3660046130ba565b61015f6020526000908152604090205460ff1681565b61019254610317906001600160a01b031681565b6102ed610527366004613473565b611434565b6102f761053a366004613138565b6114c2565b6102ed61054d366004613531565b611529565b6102ed610560366004613138565b611649565b6102c56105733660046135cb565b6001600160a01b039182166000908152606a6020908152604080832093909416825291909152205460ff1690565b6102ed6105af3660046130ba565b61179b565b6103466105c23660046135fe565b611828565b60006105d2826118ec565b92915050565b6105e0611942565b61019280547fffffffffffffffffffffffff0000000000000000000000000000000000000000166001600160a01b0383169081179091556040517f9ee0f407fe781f489d612b2879aea89a7ce73492166d123f0b55ec4295626e4d90600090a250565b60606065805461065290613621565b80601f016020809104026020016040519081016040528092919081815260200182805461067e90613621565b80156106cb5780601f106106a0576101008083540402835291602001916106cb565b820191906000526020600020905b8154815290600101906020018083116106ae57829003601f168201915b5050505050905090565b60006106e08261199c565b506000908152606960205260409020546001600160a01b031690565b600061070782610e58565b9050806001600160a01b0316836001600160a01b0316036107955760405162461bcd60e51b815260206004820152602160248201527f4552433732313a20617070726f76616c20746f2063757272656e74206f776e6560448201527f720000000000000000000000000000000000000000000000000000000000000060648201526084015b60405180910390fd5b336001600160a01b03821614806107b157506107b18133610573565b6108235760405162461bcd60e51b815260206004820152603d60248201527f4552433732313a20617070726f76652063616c6c6572206973206e6f7420746f60448201527f6b656e206f776e6572206f7220617070726f76656420666f7220616c6c000000606482015260840161078c565b61082d8383611a00565b505050565b61083d335b82611a86565b6108af5760405162461bcd60e51b815260206004820152602d60248201527f4552433732313a2063616c6c6572206973206e6f7420746f6b656e206f776e6560448201527f72206f7220617070726f76656400000000000000000000000000000000000000606482015260840161078c565b61082d838383611b05565b6000828152610160602052604081208054839081106108db576108db613674565b60009182526020808320909101546001600160a01b031680835261015f90915260409091205490915060ff16156109545760405162461bcd60e51b815260206004820152600d60248201527f4163636573732064656e69656400000000000000000000000000000000000000604482015260640161078c565b60008381526101606020526040902054600019018281146109f95760008481526101606020526040902080548290811061099057610990613674565b6000918252602080832090910154868352610160909152604090912080546001600160a01b0390921691859081106109ca576109ca613674565b9060005260206000200160006101000a8154816001600160a01b0302191690836001600160a01b031602179055505b600084815261016060205260409020805480610a1757610a176136a3565b600082815260209020810160001990810180547fffffffffffffffffffffffff000000000000000000000000000000000000000016905501905550505050565b6000610a6283610f4c565b8210610ad65760405162461bcd60e51b815260206004820152602b60248201527f455243373231456e756d657261626c653a206f776e657220696e646578206f7560448201527f74206f6620626f756e6473000000000000000000000000000000000000000000606482015260840161078c565b506001600160a01b03919091166000908152609760209081526040808320938352929052205490565b610b07611942565b610b0f611d53565b565b61082d83838360405180602001604052806000815250611434565b610b3533610837565b610ba75760405162461bcd60e51b815260206004820152602d60248201527f4552433732313a2063616c6c6572206973206e6f7420746f6b656e206f776e6560448201527f72206f7220617070726f76656400000000000000000000000000000000000000606482015260840161078c565b610bb081611dc3565b50565b6000610bbe60995490565b8210610c325760405162461bcd60e51b815260206004820152602c60248201527f455243373231456e756d657261626c653a20676c6f62616c20696e646578206f60448201527f7574206f6620626f756e64730000000000000000000000000000000000000000606482015260840161078c565b60998281548110610c4557610c45613674565b90600052602060002001549050919050565b610c5f611942565b610193610c6c8282613720565b5050565b33600090815261015f602052604090205460ff16610cd05760405162461bcd60e51b815260206004820152600d60248201527f4163636573732064656e69656400000000000000000000000000000000000000604482015260640161078c565b600082815261016060205260409020805433919083908110610cf457610cf4613674565b6000918252602090912001546001600160a01b031614610d565760405162461bcd60e51b815260206004820152600d60248201527f506f7320696e636f727265637400000000000000000000000000000000000000604482015260640161078c565b6000828152610160602052604090205460001901818114610dfb57600083815261016060205260409020805482908110610d9257610d92613674565b6000918252602080832090910154858352610160909152604090912080546001600160a01b039092169184908110610dcc57610dcc613674565b9060005260206000200160006101000a8154816001600160a01b0302191690836001600160a01b031602179055505b600083815261016060205260409020805480610e1957610e196136a3565b600082815260209020810160001990810180547fffffffffffffffffffffffff0000000000000000000000000000000000000000169055019055505050565b6000818152606760205260408120546001600160a01b0316806105d25760405162461bcd60e51b815260206004820152601860248201527f4552433732313a20696e76616c696420746f6b656e2049440000000000000000604482015260640161078c565b6101938054610ecb90613621565b80601f0160208091040260200160405190810160405280929190818152602001828054610ef790613621565b8015610f445780601f10610f1957610100808354040283529160200191610f44565b820191906000526020600020905b815481529060010190602001808311610f2757829003601f168201915b505050505081565b60006001600160a01b038216610fca5760405162461bcd60e51b815260206004820152602960248201527f4552433732313a2061646472657373207a65726f206973206e6f74206120766160448201527f6c6964206f776e65720000000000000000000000000000000000000000000000606482015260840161078c565b506001600160a01b031660009081526068602052604090205490565b610fee611942565b610b0f6000611e7e565b600054600190610100900460ff1615801561101a575060005460ff8083169116105b61108c5760405162461bcd60e51b815260206004820152602e60248201527f496e697469616c697a61626c653a20636f6e747261637420697320616c72656160448201527f647920696e697469616c697a6564000000000000000000000000000000000000606482015260840161078c565b600080547fffffffffffffffffffffffffffffffffffffffffffffffffffffffffffff00001660ff8316176101001790556110c78686611ee8565b6110cf611f6f565b6110d7611fec565b6110df612071565b6110e7611f6f565b61019280547fffffffffffffffffffffffff0000000000000000000000000000000000000000166001600160a01b0385161790556101936111288382613720565b50610191849055600080547fffffffffffffffffffffffffffffffffffffffffffffffffffffffffffff00ff16905560405160ff821681527f7f26b83ff96e1f2b6a682f133852f6798a09c465da95921460cefb38474024989060200160405180910390a1505050505050565b61016060205281600052604060002081815481106111b257600080fd5b6000918252602090912001546001600160a01b03169150829050565b6111d6611942565b610b0f6120f6565b60606066805461065290613621565b6111f5611942565b806001600160a01b03811663a9059cbb61121760fb546001600160a01b031690565b6040517f70a082310000000000000000000000000000000000000000000000000000000081523060048201526001600160a01b038516906370a0823190602401602060405180830381865afa158015611274573d6000803e3d6000fd5b505050506040513d601f19601f8201168201806040525081019061129891906137e0565b6040517fffffffff0000000000000000000000000000000000000000000000000000000060e085901b1681526001600160a01b03909216600483015260248201526044016020604051808303816000875af11580156112fb573d6000803e3d6000fd5b505050506040513d601f19601f8201168201806040525081019061082d91906137f9565b610c6c338383612151565b611332611942565b8281146113815760405162461bcd60e51b815260206004820152600760248201527f216c656e67746800000000000000000000000000000000000000000000000000604482015260640161078c565b60005b8381101561142d5782828281811061139e5761139e613674565b90506020020160208101906113b39190613816565b61015f60008787858181106113ca576113ca613674565b90506020020160208101906113df91906130ba565b6001600160a01b03168152602081019190915260400160002080547fffffffffffffffffffffffffffffffffffffffffffffffffffffffffffffff0016911515919091179055600101611384565b5050505050565b61143e3383611a86565b6114b05760405162461bcd60e51b815260206004820152602d60248201527f4552433732313a2063616c6c6572206973206e6f7420746f6b656e206f776e6560448201527f72206f7220617070726f76656400000000000000000000000000000000000000606482015260840161078c565b6114bc8484848461223d565b50505050565b60606114cd8261199c565b60006114d76122c6565b905060008151116114f75760405180602001604052806000815250611522565b80611501846122d6565b604051602001611512929190613833565b6040516020818303038152906040525b9392505050565b60008686338585604051602001611544959493929190613862565b6040516020818303038152906040529050600061159e828051906020012087878080601f01602080910402602001604051908101604052809392919081815260200183838082843760009201919091525061237692505050565b610192549091506001600160a01b038083169116146115ff5760405162461bcd60e51b815260206004820152600b60248201527f496e76616c696420736967000000000000000000000000000000000000000000604482015260640161078c565b60005b8781101561163e5761162c338a8a8481811061162057611620613674565b905060200201356123f5565b8061163681613922565b915050611602565b505050505050505050565b33600090815261015f602052604090205460ff166116a95760405162461bcd60e51b815260206004820152600d60248201527f4163636573732064656e69656400000000000000000000000000000000000000604482015260640161078c565b60005b60008281526101606020526040902054811015611751576000828152610160602052604090208054339190839081106116e7576116e7613674565b6000918252602090912001546001600160a01b0316036117495760405162461bcd60e51b815260206004820152601b60248201527f494420616c7265616479206c6f636b65642062792063616c6c65720000000000604482015260640161078c565b6001016116ac565b506000908152610160602090815260408220805460018101825590835291200180547fffffffffffffffffffffffff00000000000000000000000000000000000000001633179055565b6117a3611942565b6001600160a01b03811661181f5760405162461bcd60e51b815260206004820152602660248201527f4f776e61626c653a206e6577206f776e657220697320746865207a65726f206160448201527f6464726573730000000000000000000000000000000000000000000000000000606482015260840161078c565b610bb081611e7e565b6000805b600084815261016060205260409020548110156118a35760008481526101606020526040902080546001600160a01b03851691908390811061187057611870613674565b6000918252602090912001546001600160a01b0316036118915790506105d2565b8061189b81613922565b91505061182c565b5060405162461bcd60e51b815260206004820152600960248201527f4e6f7420666f756e640000000000000000000000000000000000000000000000604482015260640161078c565b60007fffffffff0000000000000000000000000000000000000000000000000000000082167f780e9d630000000000000000000000000000000000000000000000000000000014806105d257506105d28261240f565b60fb546001600160a01b03163314610b0f5760405162461bcd60e51b815260206004820181905260248201527f4f776e61626c653a2063616c6c6572206973206e6f7420746865206f776e6572604482015260640161078c565b6000818152606760205260409020546001600160a01b0316610bb05760405162461bcd60e51b815260206004820152601860248201527f4552433732313a20696e76616c696420746f6b656e2049440000000000000000604482015260640161078c565b600081815260696020526040902080547fffffffffffffffffffffffff0000000000000000000000000000000000000000166001600160a01b0384169081179091558190611a4d82610e58565b6001600160a01b03167f8c5be1e5ebec7d5bd14f71427d1e84f3dd0314c0f7b2291e5b200ac8c7c3b92560405160405180910390a45050565b600080611a9283610e58565b9050806001600160a01b0316846001600160a01b03161480611ad957506001600160a01b038082166000908152606a602090815260408083209388168352929052205460ff165b80611afd5750836001600160a01b0316611af2846106d5565b6001600160a01b0316145b949350505050565b826001600160a01b0316611b1882610e58565b6001600160a01b031614611b945760405162461bcd60e51b815260206004820152602560248201527f4552433732313a207472616e736665722066726f6d20696e636f72726563742060448201527f6f776e6572000000000000000000000000000000000000000000000000000000606482015260840161078c565b6001600160a01b038216611c0f5760405162461bcd60e51b8152602060048201526024808201527f4552433732313a207472616e7366657220746f20746865207a65726f2061646460448201527f7265737300000000000000000000000000000000000000000000000000000000606482015260840161078c565b611c1c83838360016124f2565b826001600160a01b0316611c2f82610e58565b6001600160a01b031614611cab5760405162461bcd60e51b815260206004820152602560248201527f4552433732313a207472616e736665722066726f6d20696e636f72726563742060448201527f6f776e6572000000000000000000000000000000000000000000000000000000606482015260840161078c565b600081815260696020908152604080832080547fffffffffffffffffffffffff00000000000000000000000000000000000000009081169091556001600160a01b0387811680865260688552838620805460001901905590871680865283862080546001019055868652606790945282852080549092168417909155905184937fddf252ad1be2c89b69c2b068fc378daa952ba7f163c4a11628f55a4df523b3ef91a4505050565b611d5b612563565b60c980547fffffffffffffffffffffffffffffffffffffffffffffffffffffffffffffff001690557f5db9ee0a495bf2e6ff9c91a7834c1ba4fdd244a5e8aa4e537bd38aeae4b073aa335b6040516001600160a01b03909116815260200160405180910390a1565b6000611dce82610e58565b9050611dde8160008460016124f2565b611de782610e58565b600083815260696020908152604080832080547fffffffffffffffffffffffff00000000000000000000000000000000000000009081169091556001600160a01b0385168085526068845282852080546000190190558785526067909352818420805490911690555192935084927fddf252ad1be2c89b69c2b068fc378daa952ba7f163c4a11628f55a4df523b3ef908390a45050565b60fb80546001600160a01b038381167fffffffffffffffffffffffff0000000000000000000000000000000000000000831681179093556040519116919082907f8be0079c531659141344cd1fd0a4f28419497f9722a3daafe3b4186f6b6457e090600090a35050565b600054610100900460ff16611f655760405162461bcd60e51b815260206004820152602b60248201527f496e697469616c697a61626c653a20636f6e7472616374206973206e6f74206960448201527f6e697469616c697a696e67000000000000000000000000000000000000000000606482015260840161078c565b610c6c82826125b5565b600054610100900460ff16610b0f5760405162461bcd60e51b815260206004820152602b60248201527f496e697469616c697a61626c653a20636f6e7472616374206973206e6f74206960448201527f6e697469616c697a696e67000000000000000000000000000000000000000000606482015260840161078c565b600054610100900460ff166120695760405162461bcd60e51b815260206004820152602b60248201527f496e697469616c697a61626c653a20636f6e7472616374206973206e6f74206960448201527f6e697469616c697a696e67000000000000000000000000000000000000000000606482015260840161078c565b610b0f61264b565b600054610100900460ff166120ee5760405162461bcd60e51b815260206004820152602b60248201527f496e697469616c697a61626c653a20636f6e7472616374206973206e6f74206960448201527f6e697469616c697a696e67000000000000000000000000000000000000000000606482015260840161078c565b610b0f6126f2565b6120fe612778565b60c980547fffffffffffffffffffffffffffffffffffffffffffffffffffffffffffffff001660011790557f62e78cea01bee320cd4e420270b5ea74000d11b0c9f74754ebdbfc544b05a258611da63390565b816001600160a01b0316836001600160a01b0316036121b25760405162461bcd60e51b815260206004820152601960248201527f4552433732313a20617070726f766520746f2063616c6c657200000000000000604482015260640161078c565b6001600160a01b038381166000818152606a602090815260408083209487168084529482529182902080547fffffffffffffffffffffffffffffffffffffffffffffffffffffffffffffff001686151590811790915591519182527f17307eab39ab6107e8899845ad3d59bd9653f200f220920489ca2b5937696c31910160405180910390a3505050565b612248848484611b05565b612254848484846127cb565b6114bc5760405162461bcd60e51b815260206004820152603260248201527f4552433732313a207472616e7366657220746f206e6f6e20455243373231526560448201527f63656976657220696d706c656d656e7465720000000000000000000000000000606482015260840161078c565b6060610193805461065290613621565b606060006122e38361296c565b600101905060008167ffffffffffffffff811115612303576123036131d9565b6040519080825280601f01601f19166020018201604052801561232d576020820181803683370190505b5090508181016020015b600019017f3031323334353637383961626364656600000000000000000000000000000000600a86061a8153600a850494508461233757509392505050565b60008060008061238585612a4e565b6040805160008152602081018083528b905260ff8516918101919091526060810183905260808101829052929550909350915060019060a0016020604051602081039080840390855afa1580156123e0573d6000803e3d6000fd5b5050604051601f190151979650505050505050565b610c6c828260405180602001604052806000815250612ac0565b60007fffffffff0000000000000000000000000000000000000000000000000000000082167f80ac58cd0000000000000000000000000000000000000000000000000000000014806124a257507fffffffff0000000000000000000000000000000000000000000000000000000082167f5b5e139f00000000000000000000000000000000000000000000000000000000145b806105d257507f01ffc9a7000000000000000000000000000000000000000000000000000000007fffffffff000000000000000000000000000000000000000000000000000000008316146105d2565b6124fa612778565b60008281526101606020526040902054156125575760405162461bcd60e51b815260206004820152600c60248201527f546f6b656e206c6f636b65640000000000000000000000000000000000000000604482015260640161078c565b6114bc84848484612b49565b60c95460ff16610b0f5760405162461bcd60e51b815260206004820152601460248201527f5061757361626c653a206e6f7420706175736564000000000000000000000000604482015260640161078c565b600054610100900460ff166126325760405162461bcd60e51b815260206004820152602b60248201527f496e697469616c697a61626c653a20636f6e7472616374206973206e6f74206960448201527f6e697469616c697a696e67000000000000000000000000000000000000000000606482015260840161078c565b606561263e8382613720565b50606661082d8282613720565b600054610100900460ff166126c85760405162461bcd60e51b815260206004820152602b60248201527f496e697469616c697a61626c653a20636f6e7472616374206973206e6f74206960448201527f6e697469616c697a696e67000000000000000000000000000000000000000000606482015260840161078c565b60c980547fffffffffffffffffffffffffffffffffffffffffffffffffffffffffffffff00169055565b600054610100900460ff1661276f5760405162461bcd60e51b815260206004820152602b60248201527f496e697469616c697a61626c653a20636f6e7472616374206973206e6f74206960448201527f6e697469616c697a696e67000000000000000000000000000000000000000000606482015260840161078c565b610b0f33611e7e565b60c95460ff1615610b0f5760405162461bcd60e51b815260206004820152601060248201527f5061757361626c653a2070617573656400000000000000000000000000000000604482015260640161078c565b60006001600160a01b0384163b15612961576040517f150b7a020000000000000000000000000000000000000000000000000000000081526001600160a01b0385169063150b7a029061282890339089908890889060040161393c565b6020604051808303816000875af1925050508015612863575060408051601f3d908101601f1916820190925261286091810190613978565b60015b612916573d808015612891576040519150601f19603f3d011682016040523d82523d6000602084013e612896565b606091505b50805160000361290e5760405162461bcd60e51b815260206004820152603260248201527f4552433732313a207472616e7366657220746f206e6f6e20455243373231526560448201527f63656976657220696d706c656d656e7465720000000000000000000000000000606482015260840161078c565b805181602001fd5b7fffffffff00000000000000000000000000000000000000000000000000000000167f150b7a0200000000000000000000000000000000000000000000000000000000149050611afd565b506001949350505050565b6000807a184f03e93ff9f4daa797ed6e38ed64bf6a1f01000000000000000083106129b5577a184f03e93ff9f4daa797ed6e38ed64bf6a1f010000000000000000830492506040015b6d04ee2d6d415b85acef810000000083106129e1576d04ee2d6d415b85acef8100000000830492506020015b662386f26fc1000083106129ff57662386f26fc10000830492506010015b6305f5e1008310612a17576305f5e100830492506008015b6127108310612a2b57612710830492506004015b60648310612a3d576064830492506002015b600a83106105d25760010192915050565b60008060008351604114612aa45760405162461bcd60e51b815260206004820152600b60248201527f696e76616c696420736967000000000000000000000000000000000000000000604482015260640161078c565b5050506020810151604082015160609092015160001a92909190565b612aca8383612c8a565b612ad760008484846127cb565b61082d5760405162461bcd60e51b815260206004820152603260248201527f4552433732313a207472616e7366657220746f206e6f6e20455243373231526560448201527f63656976657220696d706c656d656e7465720000000000000000000000000000606482015260840161078c565b612b5584848484612e3b565b6001811115612bcc5760405162461bcd60e51b815260206004820152603560248201527f455243373231456e756d657261626c653a20636f6e736563757469766520747260448201527f616e7366657273206e6f7420737570706f727465640000000000000000000000606482015260840161078c565b816001600160a01b038516612c2857612c2381609980546000838152609a60205260408120829055600182018355919091527f72a152ddfb8e864297c917af52ea6c1c68aead0fee1a62673fcc7e0c94979d000155565b612c4b565b836001600160a01b0316856001600160a01b031614612c4b57612c4b8582612ec3565b6001600160a01b038416612c6757612c6281612f60565b61142d565b846001600160a01b0316846001600160a01b03161461142d5761142d848261300f565b6001600160a01b038216612ce05760405162461bcd60e51b815260206004820181905260248201527f4552433732313a206d696e7420746f20746865207a65726f2061646472657373604482015260640161078c565b6000818152606760205260409020546001600160a01b031615612d455760405162461bcd60e51b815260206004820152601c60248201527f4552433732313a20746f6b656e20616c7265616479206d696e74656400000000604482015260640161078c565b612d536000838360016124f2565b6000818152606760205260409020546001600160a01b031615612db85760405162461bcd60e51b815260206004820152601c60248201527f4552433732313a20746f6b656e20616c7265616479206d696e74656400000000604482015260640161078c565b6001600160a01b038216600081815260686020908152604080832080546001019055848352606790915280822080547fffffffffffffffffffffffff0000000000000000000000000000000000000000168417905551839291907fddf252ad1be2c89b69c2b068fc378daa952ba7f163c4a11628f55a4df523b3ef908290a45050565b60018111156114bc576001600160a01b03841615612e81576001600160a01b03841660009081526068602052604081208054839290612e7b908490613995565b90915550505b6001600160a01b038316156114bc576001600160a01b03831660009081526068602052604081208054839290612eb89084906139a8565b909155505050505050565b60006001612ed084610f4c565b612eda9190613995565b600083815260986020526040902054909150808214612f2d576001600160a01b03841660009081526097602090815260408083208584528252808320548484528184208190558352609890915290208190555b5060009182526098602090815260408084208490556001600160a01b039094168352609781528383209183525290812055565b609954600090612f7290600190613995565b6000838152609a602052604081205460998054939450909284908110612f9a57612f9a613674565b906000526020600020015490508060998381548110612fbb57612fbb613674565b6000918252602080832090910192909255828152609a90915260408082208490558582528120556099805480612ff357612ff36136a3565b6001900381819060005260206000200160009055905550505050565b600061301a83610f4c565b6001600160a01b039093166000908152609760209081526040808320868452825280832085905593825260989052919091209190915550565b7fffffffff0000000000000000000000000000000000000000000000000000000081168114610bb057600080fd5b60006020828403121561309357600080fd5b813561152281613053565b80356001600160a01b03811681146130b557600080fd5b919050565b6000602082840312156130cc57600080fd5b6115228261309e565b60005b838110156130f05781810151838201526020016130d8565b50506000910152565b600081518084526131118160208601602086016130d5565b601f01601f19169290920160200192915050565b60208152600061152260208301846130f9565b60006020828403121561314a57600080fd5b5035919050565b6000806040838503121561316457600080fd5b61316d8361309e565b946020939093013593505050565b60008060006060848603121561319057600080fd5b6131998461309e565b92506131a76020850161309e565b9150604084013590509250925092565b600080604083850312156131ca57600080fd5b50508035926020909101359150565b7f4e487b7100000000000000000000000000000000000000000000000000000000600052604160045260246000fd5b600067ffffffffffffffff80841115613223576132236131d9565b604051601f8501601f19908116603f0116810190828211818310171561324b5761324b6131d9565b8160405280935085815286868601111561326457600080fd5b858560208301376000602087830101525050509392505050565b600082601f83011261328f57600080fd5b61152283833560208501613208565b6000602082840312156132b057600080fd5b813567ffffffffffffffff8111156132c757600080fd5b611afd8482850161327e565b600080600080600060a086880312156132eb57600080fd5b853567ffffffffffffffff8082111561330357600080fd5b61330f89838a0161327e565b9650602088013591508082111561332557600080fd5b61333189838a0161327e565b9550604088013594506133466060890161309e565b9350608088013591508082111561335c57600080fd5b506133698882890161327e565b9150509295509295909350565b8015158114610bb057600080fd5b6000806040838503121561339757600080fd5b6133a08361309e565b915060208301356133b081613376565b809150509250929050565b60008083601f8401126133cd57600080fd5b50813567ffffffffffffffff8111156133e557600080fd5b6020830191508360208260051b850101111561340057600080fd5b9250929050565b6000806000806040858703121561341d57600080fd5b843567ffffffffffffffff8082111561343557600080fd5b613441888389016133bb565b9096509450602087013591508082111561345a57600080fd5b50613467878288016133bb565b95989497509550505050565b6000806000806080858703121561348957600080fd5b6134928561309e565b93506134a06020860161309e565b925060408501359150606085013567ffffffffffffffff8111156134c357600080fd5b8501601f810187136134d457600080fd5b6134e387823560208401613208565b91505092959194509250565b60008083601f84011261350157600080fd5b50813567ffffffffffffffff81111561351957600080fd5b60208301915083602082850101111561340057600080fd5b6000806000806000806060878903121561354a57600080fd5b863567ffffffffffffffff8082111561356257600080fd5b61356e8a838b016133bb565b9098509650602089013591508082111561358757600080fd5b6135938a838b016134ef565b909650945060408901359150808211156135ac57600080fd5b506135b989828a016134ef565b979a9699509497509295939492505050565b600080604083850312156135de57600080fd5b6135e78361309e565b91506135f56020840161309e565b90509250929050565b6000806040838503121561361157600080fd5b823591506135f56020840161309e565b600181811c9082168061363557607f821691505b60208210810361366e577f4e487b7100000000000000000000000000000000000000000000000000000000600052602260045260246000fd5b50919050565b7f4e487b7100000000000000000000000000000000000000000000000000000000600052603260045260246000fd5b7f4e487b7100000000000000000000000000000000000000000000000000000000600052603160045260246000fd5b601f82111561082d57600081815260208120601f850160051c810160208610156136f95750805b601f850160051c820191505b8181101561371857828155600101613705565b505050505050565b815167ffffffffffffffff81111561373a5761373a6131d9565b61374e816137488454613621565b846136d2565b602080601f831160018114613783576000841561376b5750858301515b600019600386901b1c1916600185901b178555613718565b600085815260208120601f198616915b828110156137b257888601518255948401946001909101908401613793565b50858210156137d05787850151600019600388901b60f8161c191681555b5050505050600190811b01905550565b6000602082840312156137f257600080fd5b5051919050565b60006020828403121561380b57600080fd5b815161152281613376565b60006020828403121561382857600080fd5b813561152281613376565b600083516138458184602088016130d5565b8351908301906138598183602088016130d5565b01949350505050565b6060815284606082015260007f07ffffffffffffffffffffffffffffffffffffffffffffffffffffffffffffff86111561389b57600080fd5b8560051b808860808501376001600160a01b03861660208401528201828103608090810160408501528101849052838560a0830137600060a0858301015260a0601f19601f8601168201019150509695505050505050565b7f4e487b7100000000000000000000000000000000000000000000000000000000600052601160045260246000fd5b60006000198203613935576139356138f3565b5060010190565b60006001600160a01b0380871683528086166020840152508360408301526080606083015261396e60808301846130f9565b9695505050505050565b60006020828403121561398a57600080fd5b815161152281613053565b818103818111156105d2576105d26138f3565b808201808211156105d2576105d26138f356fea26469706673582212200dc69c233507b480962ab1e5b3f4fe6252a7464c49cf350924d6b4c56bf7c5f364736f6c63430008110033",
  "linkReferences": {},
  "deployedLinkReferences": {}
}