{
  "_format": "hh-sol-artifact-1",
  "contractName": "MKGenesisV2",
  "sourceName": "contracts/MKGenesisV2.sol",
  "abi": [
    {
      "inputs": [
        {
          "internalType": "address",
          "name": "operator",
          "type": "address"
        }
      ],
      "name": "OperatorNotAllowed",
      "type": "error"
    },
    {
      "anonymous": false,
      "inputs": [
        {
          "indexed": true,
          "internalType": "address",
          "name": "owner",
          "type": "address"
        },
        {
          "indexed": true,
          "internalType": "address",
          "name": "approved",
          "type": "address"
        },
        {
          "indexed": true,
          "internalType": "uint256",
          "name": "tokenId",
          "type": "uint256"
        }
      ],
      "name": "Approval",
      "type": "event"
    },
    {
      "anonymous": false,
      "inputs": [
        {
          "indexed": true,
          "internalType": "address",
          "name": "owner",
          "type": "address"
        },
        {
          "indexed": true,
          "internalType": "address",
          "name": "operator",
          "type": "address"
        },
        {
          "indexed": false,
          "internalType": "bool",
          "name": "approved",
          "type": "bool"
        }
      ],
      "name": "ApprovalForAll",
      "type": "event"
    },
    {
      "anonymous": false,
      "inputs": [
        {
          "indexed": true,
          "internalType": "address",
          "name": "newSigner",
          "type": "address"
        }
      ],
      "name": "AuthSignerSet",
      "type": "event"
    },
    {
      "anonymous": false,
      "inputs": [
        {
          "indexed": false,
          "internalType": "uint8",
          "name": "version",
          "type": "uint8"
        }
      ],
      "name": "Initialized",
      "type": "event"
    },
    {
      "anonymous": false,
      "inputs": [
        {
          "indexed": true,
          "internalType": "address",
          "name": "previousOwner",
          "type": "address"
        },
        {
          "indexed": true,
          "internalType": "address",
          "name": "newOwner",
          "type": "address"
        }
      ],
      "name": "OwnershipTransferred",
      "type": "event"
    },
    {
      "anonymous": false,
      "inputs": [
        {
          "indexed": false,
          "internalType": "address",
          "name": "account",
          "type": "address"
        }
      ],
      "name": "Paused",
      "type": "event"
    },
    {
      "anonymous": false,
      "inputs": [
        {
          "indexed": true,
          "internalType": "address",
          "name": "from",
          "type": "address"
        },
        {
          "indexed": true,
          "internalType": "address",
          "name": "to",
          "type": "address"
        },
        {
          "indexed": true,
          "internalType": "uint256",
          "name": "tokenId",
          "type": "uint256"
        }
      ],
      "name": "Transfer",
      "type": "event"
    },
    {
      "anonymous": false,
      "inputs": [
        {
          "indexed": false,
          "internalType": "address",
          "name": "account",
          "type": "address"
        }
      ],
      "name": "Unpaused",
      "type": "event"
    },
    {
      "inputs": [],
      "name": "MAX_SUPPLY",
      "outputs": [
        {
          "internalType": "uint256",
          "name": "",
          "type": "uint256"
        }
      ],
      "stateMutability": "view",
      "type": "function"
    },
    {
      "inputs": [],
      "name": "OPERATOR_FILTER_REGISTRY",
      "outputs": [
        {
          "internalType": "contract IOperatorFilterRegistry",
          "name": "",
          "type": "address"
        }
      ],
      "stateMutability": "view",
      "type": "function"
    },
    {
      "inputs": [
        {
          "internalType": "address",
          "name": "operator",
          "type": "address"
        },
        {
          "internalType": "uint256",
          "name": "tokenId",
          "type": "uint256"
        }
      ],
      "name": "approve",
      "outputs": [],
      "stateMutability": "nonpayable",
      "type": "function"
    },
    {
      "inputs": [
        {
          "internalType": "address",
          "name": "",
          "type": "address"
        }
      ],
      "name": "approvedContract",
      "outputs": [
        {
          "internalType": "bool",
          "name": "",
          "type": "bool"
        }
      ],
      "stateMutability": "view",
      "type": "function"
    },
    {
      "inputs": [],
      "name": "authSigner",
      "outputs": [
        {
          "internalType": "address",
          "name": "",
          "type": "address"
        }
      ],
      "stateMutability": "view",
      "type": "function"
    },
    {
      "inputs": [
        {
          "internalType": "address",
          "name": "owner",
          "type": "address"
        }
      ],
      "name": "balanceOf",
      "outputs": [
        {
          "internalType": "uint256",
          "name": "",
          "type": "uint256"
        }
      ],
      "stateMutability": "view",
      "type": "function"
    },
    {
      "inputs": [],
      "name": "baseURI",
      "outputs": [
        {
          "internalType": "string",
          "name": "",
          "type": "string"
        }
      ],
      "stateMutability": "view",
      "type": "function"
    },
    {
      "inputs": [
        {
          "internalType": "uint256",
          "name": "tokenId",
          "type": "uint256"
        }
      ],
      "name": "burn",
      "outputs": [],
      "stateMutability": "nonpayable",
      "type": "function"
    },
    {
      "inputs": [
        {
          "internalType": "uint256",
          "name": "_id",
          "type": "uint256"
        },
        {
          "internalType": "uint256",
          "name": "pos",
          "type": "uint256"
        }
      ],
      "name": "clearLockId",
      "outputs": [],
      "stateMutability": "nonpayable",
      "type": "function"
    },
    {
      "inputs": [
        {
          "internalType": "uint256",
          "name": "_id",
          "type": "uint256"
        },
        {
          "internalType": "address",
          "name": "addr",
          "type": "address"
        }
      ],
      "name": "findPos",
      "outputs": [
        {
          "internalType": "uint256",
          "name": "",
          "type": "uint256"
        }
      ],
      "stateMutability": "view",
      "type": "function"
    },
    {
      "inputs": [
        {
          "internalType": "uint256",
          "name": "tokenId",
          "type": "uint256"
        }
      ],
      "name": "getApproved",
      "outputs": [
        {
          "internalType": "address",
          "name": "",
          "type": "address"
        }
      ],
      "stateMutability": "view",
      "type": "function"
    },
    {
      "inputs": [
        {
          "internalType": "string",
          "name": "tokenName",
          "type": "string"
        },
        {
          "internalType": "string",
          "name": "tokenSymbol",
          "type": "string"
        },
        {
          "internalType": "uint256",
          "name": "maxSupply",
          "type": "uint256"
        },
        {
          "internalType": "address",
          "name": "_authSigner",
          "type": "address"
        },
        {
          "internalType": "string",
          "name": "__baseURI",
          "type": "string"
        }
      ],
      "name": "initialize",
      "outputs": [],
      "stateMutability": "nonpayable",
      "type": "function"
    },
    {
      "inputs": [],
      "name": "initializeV2",
      "outputs": [],
      "stateMutability": "nonpayable",
      "type": "function"
    },
    {
      "inputs": [
        {
          "internalType": "address",
          "name": "owner",
          "type": "address"
        },
        {
          "internalType": "address",
          "name": "operator",
          "type": "address"
        }
      ],
      "name": "isApprovedForAll",
      "outputs": [
        {
          "internalType": "bool",
          "name": "",
          "type": "bool"
        }
      ],
      "stateMutability": "view",
      "type": "function"
    },
    {
      "inputs": [
        {
          "internalType": "uint256",
          "name": "_id",
          "type": "uint256"
        }
      ],
      "name": "isUnlocked",
      "outputs": [
        {
          "internalType": "bool",
          "name": "",
          "type": "bool"
        }
      ],
      "stateMutability": "view",
      "type": "function"
    },
    {
      "inputs": [
        {
          "internalType": "uint256",
          "name": "_id",
          "type": "uint256"
        }
      ],
      "name": "lock",
      "outputs": [],
      "stateMutability": "nonpayable",
      "type": "function"
    },
    {
      "inputs": [
        {
          "internalType": "uint256",
          "name": "",
          "type": "uint256"
        },
        {
          "internalType": "uint256",
          "name": "",
          "type": "uint256"
        }
      ],
      "name": "locks",
      "outputs": [
        {
          "internalType": "address",
          "name": "",
          "type": "address"
        }
      ],
      "stateMutability": "view",
      "type": "function"
    },
    {
      "inputs": [
        {
          "internalType": "uint256[]",
          "name": "tokenIds",
          "type": "uint256[]"
        },
        {
          "internalType": "bytes",
          "name": "sig",
          "type": "bytes"
        },
        {
          "internalType": "string",
          "name": "solSig",
          "type": "string"
        }
      ],
      "name": "migrate",
      "outputs": [],
      "stateMutability": "nonpayable",
      "type": "function"
    },
    {
      "inputs": [],
      "name": "name",
      "outputs": [
        {
          "internalType": "string",
          "name": "",
          "type": "string"
        }
      ],
      "stateMutability": "view",
      "type": "function"
    },
    {
      "inputs": [],
      "name": "owner",
      "outputs": [
        {
          "internalType": "address",
          "name": "",
          "type": "address"
        }
      ],
      "stateMutability": "view",
      "type": "function"
    },
    {
      "inputs": [
        {
          "internalType": "uint256",
          "name": "tokenId",
          "type": "uint256"
        }
      ],
      "name": "ownerOf",
      "outputs": [
        {
          "internalType": "address",
          "name": "",
          "type": "address"
        }
      ],
      "stateMutability": "view",
      "type": "function"
    },
    {
      "inputs": [],
      "name": "pause",
      "outputs": [],
      "stateMutability": "nonpayable",
      "type": "function"
    },
    {
      "inputs": [],
      "name": "paused",
      "outputs": [
        {
          "internalType": "bool",
          "name": "",
          "type": "bool"
        }
      ],
      "stateMutability": "view",
      "type": "function"
    },
    {
      "inputs": [
        {
          "internalType": "address",
          "name": "tokenAddress",
          "type": "address"
        }
      ],
      "name": "recoverERC20",
      "outputs": [],
      "stateMutability": "nonpayable",
      "type": "function"
    },
    {
      "inputs": [],
      "name": "renounceOwnership",
      "outputs": [],
      "stateMutability": "nonpayable",
      "type": "function"
    },
    {
      "inputs": [
        {
          "internalType": "address",
          "name": "from",
          "type": "address"
        },
        {
          "internalType": "address",
          "name": "to",
          "type": "address"
        },
        {
          "internalType": "uint256",
          "name": "tokenId",
          "type": "uint256"
        }
      ],
      "name": "safeTransferFrom",
      "outputs": [],
      "stateMutability": "nonpayable",
      "type": "function"
    },
    {
      "inputs": [
        {
          "internalType": "address",
          "name": "from",
          "type": "address"
        },
        {
          "internalType": "address",
          "name": "to",
          "type": "address"
        },
        {
          "internalType": "uint256",
          "name": "tokenId",
          "type": "uint256"
        },
        {
          "internalType": "bytes",
          "name": "data",
          "type": "bytes"
        }
      ],
      "name": "safeTransferFrom",
      "outputs": [],
      "stateMutability": "nonpayable",
      "type": "function"
    },
    {
      "inputs": [
        {
          "internalType": "address",
          "name": "operator",
          "type": "address"
        },
        {
          "internalType": "bool",
          "name": "approved",
          "type": "bool"
        }
      ],
      "name": "setApprovalForAll",
      "outputs": [],
      "stateMutability": "nonpayable",
      "type": "function"
    },
    {
      "inputs": [
        {
          "internalType": "address",
          "name": "_authSigner",
          "type": "address"
        }
      ],
      "name": "setAuthSigner",
      "outputs": [],
      "stateMutability": "nonpayable",
      "type": "function"
    },
    {
      "inputs": [
        {
          "internalType": "string",
          "name": "newURI",
          "type": "string"
        }
      ],
      "name": "setBaseURI",
      "outputs": [],
      "stateMutability": "nonpayable",
      "type": "function"
    },
    {
      "inputs": [
        {
          "internalType": "bytes4",
          "name": "interfaceId",
          "type": "bytes4"
        }
      ],
      "name": "supportsInterface",
      "outputs": [
        {
          "internalType": "bool",
          "name": "",
          "type": "bool"
        }
      ],
      "stateMutability": "view",
      "type": "function"
    },
    {
      "inputs": [],
      "name": "symbol",
      "outputs": [
        {
          "internalType": "string",
          "name": "",
          "type": "string"
        }
      ],
      "stateMutability": "view",
      "type": "function"
    },
    {
      "inputs": [],
      "name": "test",
      "outputs": [
        {
          "internalType": "uint256",
          "name": "",
          "type": "uint256"
        }
      ],
      "stateMutability": "view",
      "type": "function"
    },
    {
      "inputs": [
        {
          "internalType": "uint256",
          "name": "index",
          "type": "uint256"
        }
      ],
      "name": "tokenByIndex",
      "outputs": [
        {
          "internalType": "uint256",
          "name": "",
          "type": "uint256"
        }
      ],
      "stateMutability": "view",
      "type": "function"
    },
    {
      "inputs": [
        {
          "internalType": "address",
          "name": "owner",
          "type": "address"
        },
        {
          "internalType": "uint256",
          "name": "index",
          "type": "uint256"
        }
      ],
      "name": "tokenOfOwnerByIndex",
      "outputs": [
        {
          "internalType": "uint256",
          "name": "",
          "type": "uint256"
        }
      ],
      "stateMutability": "view",
      "type": "function"
    },
    {
      "inputs": [
        {
          "internalType": "uint256",
          "name": "tokenId",
          "type": "uint256"
        }
      ],
      "name": "tokenURI",
      "outputs": [
        {
          "internalType": "string",
          "name": "",
          "type": "string"
        }
      ],
      "stateMutability": "view",
      "type": "function"
    },
    {
      "inputs": [],
      "name": "totalSupply",
      "outputs": [
        {
          "internalType": "uint256",
          "name": "",
          "type": "uint256"
        }
      ],
      "stateMutability": "view",
      "type": "function"
    },
    {
      "inputs": [
        {
          "internalType": "address",
          "name": "from",
          "type": "address"
        },
        {
          "internalType": "address",
          "name": "to",
          "type": "address"
        },
        {
          "internalType": "uint256",
          "name": "tokenId",
          "type": "uint256"
        }
      ],
      "name": "transferFrom",
      "outputs": [],
      "stateMutability": "nonpayable",
      "type": "function"
    },
    {
      "inputs": [
        {
          "internalType": "address",
          "name": "newOwner",
          "type": "address"
        }
      ],
      "name": "transferOwnership",
      "outputs": [],
      "stateMutability": "nonpayable",
      "type": "function"
    },
    {
      "inputs": [
        {
          "internalType": "uint256",
          "name": "_id",
          "type": "uint256"
        },
        {
          "internalType": "uint256",
          "name": "pos",
          "type": "uint256"
        }
      ],
      "name": "unlock",
      "outputs": [],
      "stateMutability": "nonpayable",
      "type": "function"
    },
    {
      "inputs": [],
      "name": "unpause",
      "outputs": [],
      "stateMutability": "nonpayable",
      "type": "function"
    },
    {
      "inputs": [
        {
          "internalType": "address[]",
          "name": "_contracts",
          "type": "address[]"
        },
        {
          "internalType": "bool[]",
          "name": "_values",
          "type": "bool[]"
        }
      ],
      "name": "updateApprovedContracts",
      "outputs": [],
      "stateMutability": "nonpayable",
      "type": "function"
    }
  ],
  "bytecode": "0x60806040523480156200001157600080fd5b506200001c62000022565b620000e4565b600054610100900460ff16156200008f5760405162461bcd60e51b815260206004820152602760248201527f496e697469616c697a61626c653a20636f6e747261637420697320696e697469604482015266616c697a696e6760c81b606482015260840160405180910390fd5b60005460ff9081161015620000e2576000805460ff191660ff9081179091556040519081527f7f26b83ff96e1f2b6a682f133852f6798a09c465da95921460cefb38474024989060200160405180910390a15b565b613f6b80620000f46000396000f3fe608060405234801561001057600080fd5b50600436106102de5760003560e01c806370a0823111610186578063ac52e644116100e3578063cfdaf2f611610097578063f2fde38b11610071578063f2fde38b146105ef578063f82c3d9514610602578063f8a8fd6d1461061557600080fd5b8063cfdaf2f61461058d578063dd467064146105a0578063e985e9c5146105b357600080fd5b8063b42348ac116100c8578063b42348ac14610553578063b88d4fde14610567578063c87b56dd1461057a57600080fd5b8063ac52e6441461051c578063b1a6505f1461052f57600080fd5b80638456cb591161013a57806395d89b411161011f57806395d89b41146104ee5780639e8c708e146104f6578063a22cb4651461050957600080fd5b80638456cb59146104d55780638da5cb5b146104dd57600080fd5b806372abc8b71161016b57806372abc8b71461048d57806380680207146104af57806383f27020146104c257600080fd5b806370a0823114610472578063715018a61461048557600080fd5b80633f4ba83a1161023f57806355f804b3116101f35780635cd8a76b116101cd5780635cd8a76b1461044f5780636352211e146104575780636c0360eb1461046a57600080fd5b806355f804b31461041e5780635bfadb24146104315780635c975abb1461044457600080fd5b806342842e0e1161022457806342842e0e146103e557806342966c68146103f85780634f6ccce71461040b57600080fd5b80633f4ba83a146103c857806341f43434146103d057600080fd5b806318160ddd116102965780632cffdfb61161027b5780632cffdfb6146103985780632f745c59146103ab57806332cb6b0c146103be57600080fd5b806318160ddd1461037357806323b872dd1461038557600080fd5b806306fdde03116102c757806306fdde0314610320578063081812fc14610335578063095ea7b31461036057600080fd5b806301ffc9a7146102e35780630532bca11461030b575b600080fd5b6102f66102f1366004613603565b61061f565b60405190151581526020015b60405180910390f35b61031e61031936600461363c565b610630565b005b61032861069b565b60405161030291906136a7565b6103486103433660046136ba565b61072d565b6040516001600160a01b039091168152602001610302565b61031e61036e3660046136d3565b610754565b6099545b604051908152602001610302565b61031e6103933660046136fd565b61076d565b61031e6103a6366004613739565b610798565b6103776103b93660046136d3565b61093a565b6103776101915481565b61031e6109e2565b6103486daaeb6d7670e522a718067333cd4e81565b61031e6103f33660046136fd565b6109f4565b61031e6104063660046136ba565b610a19565b6103776104193660046136ba565b610aa2565b61031e61042c366004613820565b610b46565b61031e61043f366004613739565b610b5f565b60c95460ff166102f6565b61031e610d47565b6103486104653660046136ba565b610e92565b610328610ef7565b61037761048036600461363c565b610f86565b61031e611020565b6102f661049b3660046136ba565b600090815261016060205260409020541590565b61031e6104bd366004613855565b611032565b6103486104d0366004613739565b6111cf565b61031e611208565b60fb546001600160a01b0316610348565b610328611218565b61031e61050436600461363c565b611227565b61031e610517366004613906565b611359565b61031e61052a366004613989565b61136d565b6102f661053d36600461363c565b61015f6020526000908152604090205460ff1681565b61019254610348906001600160a01b031681565b61031e6105753660046139f5565b611477565b6103286105883660046136ba565b61149d565b61031e61059b366004613ab3565b611504565b61031e6105ae3660046136ba565b611624565b6102f66105c1366004613b4d565b6001600160a01b039182166000908152606a6020908152604080832093909416825291909152205460ff1690565b61031e6105fd36600461363c565b611776565b610377610610366004613b80565b611803565b6103776101945481565b600061062a826118c7565b92915050565b61063861191d565b61019280547fffffffffffffffffffffffff0000000000000000000000000000000000000000166001600160a01b0383169081179091556040517f9ee0f407fe781f489d612b2879aea89a7ce73492166d123f0b55ec4295626e4d90600090a250565b6060606580546106aa90613ba3565b80601f01602080910402602001604051908101604052809291908181526020018280546106d690613ba3565b80156107235780601f106106f857610100808354040283529160200191610723565b820191906000526020600020905b81548152906001019060200180831161070657829003601f168201915b5050505050905090565b600061073882611977565b506000908152606960205260409020546001600160a01b031690565b8161075e816119db565b6107688383611ac6565b505050565b826001600160a01b038116331461078757610787336119db565b610792848484611bf2565b50505050565b6000828152610160602052604081208054839081106107b9576107b9613bf6565b60009182526020808320909101546001600160a01b031680835261015f90915260409091205490915060ff16156108375760405162461bcd60e51b815260206004820152600d60248201527f4163636573732064656e6965640000000000000000000000000000000000000060448201526064015b60405180910390fd5b60008381526101606020526040902054600019018281146108dc5760008481526101606020526040902080548290811061087357610873613bf6565b6000918252602080832090910154868352610160909152604090912080546001600160a01b0390921691859081106108ad576108ad613bf6565b9060005260206000200160006101000a8154816001600160a01b0302191690836001600160a01b031602179055505b6000848152610160602052604090208054806108fa576108fa613c25565b600082815260209020810160001990810180547fffffffffffffffffffffffff000000000000000000000000000000000000000016905501905550505050565b600061094583610f86565b82106109b95760405162461bcd60e51b815260206004820152602b60248201527f455243373231456e756d657261626c653a206f776e657220696e646578206f7560448201527f74206f6620626f756e6473000000000000000000000000000000000000000000606482015260840161082e565b506001600160a01b03919091166000908152609760209081526040808320938352929052205490565b6109ea61191d565b6109f2611c78565b565b826001600160a01b0381163314610a0e57610a0e336119db565b610792848484611ce8565b610a24335b82611d03565b610a965760405162461bcd60e51b815260206004820152602d60248201527f4552433732313a2063616c6c6572206973206e6f7420746f6b656e206f776e6560448201527f72206f7220617070726f76656400000000000000000000000000000000000000606482015260840161082e565b610a9f81611d82565b50565b6000610aad60995490565b8210610b215760405162461bcd60e51b815260206004820152602c60248201527f455243373231456e756d657261626c653a20676c6f62616c20696e646578206f60448201527f7574206f6620626f756e64730000000000000000000000000000000000000000606482015260840161082e565b60998281548110610b3457610b34613bf6565b90600052602060002001549050919050565b610b4e61191d565b610193610b5b8282613c9a565b5050565b33600090815261015f602052604090205460ff16610bbf5760405162461bcd60e51b815260206004820152600d60248201527f4163636573732064656e69656400000000000000000000000000000000000000604482015260640161082e565b600082815261016060205260409020805433919083908110610be357610be3613bf6565b6000918252602090912001546001600160a01b031614610c455760405162461bcd60e51b815260206004820152600d60248201527f506f7320696e636f727265637400000000000000000000000000000000000000604482015260640161082e565b6000828152610160602052604090205460001901818114610cea57600083815261016060205260409020805482908110610c8157610c81613bf6565b6000918252602080832090910154858352610160909152604090912080546001600160a01b039092169184908110610cbb57610cbb613bf6565b9060005260206000200160006101000a8154816001600160a01b0302191690836001600160a01b031602179055505b600083815261016060205260409020805480610d0857610d08613c25565b600082815260209020810160001990810180547fffffffffffffffffffffffff0000000000000000000000000000000000000000169055019055505050565b600054600290610100900460ff16158015610d69575060005460ff8083169116105b610ddb5760405162461bcd60e51b815260206004820152602e60248201527f496e697469616c697a61626c653a20636f6e747261637420697320616c72656160448201527f647920696e697469616c697a6564000000000000000000000000000000000000606482015260840161082e565b600080547fffffffffffffffffffffffffffffffffffffffffffffffffffffffffffff00001660ff831617610100179055610e2b733cc6cdda760b79bafa08df41ecfa224f810dceb66001611e3d565b600161019455600080547fffffffffffffffffffffffffffffffffffffffffffffffffffffffffffff00ff16905560405160ff821681527f7f26b83ff96e1f2b6a682f133852f6798a09c465da95921460cefb38474024989060200160405180910390a150565b6000818152606760205260408120546001600160a01b03168061062a5760405162461bcd60e51b815260206004820152601860248201527f4552433732313a20696e76616c696420746f6b656e2049440000000000000000604482015260640161082e565b6101938054610f0590613ba3565b80601f0160208091040260200160405190810160405280929190818152602001828054610f3190613ba3565b8015610f7e5780601f10610f5357610100808354040283529160200191610f7e565b820191906000526020600020905b815481529060010190602001808311610f6157829003601f168201915b505050505081565b60006001600160a01b0382166110045760405162461bcd60e51b815260206004820152602960248201527f4552433732313a2061646472657373207a65726f206973206e6f74206120766160448201527f6c6964206f776e65720000000000000000000000000000000000000000000000606482015260840161082e565b506001600160a01b031660009081526068602052604090205490565b61102861191d565b6109f26000611ec4565b600054600190610100900460ff16158015611054575060005460ff8083169116105b6110c65760405162461bcd60e51b815260206004820152602e60248201527f496e697469616c697a61626c653a20636f6e747261637420697320616c72656160448201527f647920696e697469616c697a6564000000000000000000000000000000000000606482015260840161082e565b600080547fffffffffffffffffffffffffffffffffffffffffffffffffffffffffffff00001660ff8316176101001790556111018686611f2e565b611109611fb5565b611111612032565b6111196120b7565b611121611fb5565b61019280547fffffffffffffffffffffffff0000000000000000000000000000000000000000166001600160a01b0385161790556101936111628382613c9a565b50610191849055600080547fffffffffffffffffffffffffffffffffffffffffffffffffffffffffffff00ff16905560405160ff821681527f7f26b83ff96e1f2b6a682f133852f6798a09c465da95921460cefb38474024989060200160405180910390a1505050505050565b61016060205281600052604060002081815481106111ec57600080fd5b6000918252602090912001546001600160a01b03169150829050565b61121061191d565b6109f261213c565b6060606680546106aa90613ba3565b61122f61191d565b806001600160a01b03811663a9059cbb61125160fb546001600160a01b031690565b6040517f70a082310000000000000000000000000000000000000000000000000000000081523060048201526001600160a01b038516906370a0823190602401602060405180830381865afa1580156112ae573d6000803e3d6000fd5b505050506040513d601f19601f820116820180604052508101906112d29190613d5a565b6040517fffffffff0000000000000000000000000000000000000000000000000000000060e085901b1681526001600160a01b03909216600483015260248201526044016020604051808303816000875af1158015611335573d6000803e3d6000fd5b505050506040513d601f19601f820116820180604052508101906107689190613d73565b81611363816119db565b6107688383612197565b61137561191d565b8281146113c45760405162461bcd60e51b815260206004820152600760248201527f216c656e67746800000000000000000000000000000000000000000000000000604482015260640161082e565b60005b83811015611470578282828181106113e1576113e1613bf6565b90506020020160208101906113f69190613d90565b61015f600087878581811061140d5761140d613bf6565b9050602002016020810190611422919061363c565b6001600160a01b03168152602081019190915260400160002080547fffffffffffffffffffffffffffffffffffffffffffffffffffffffffffffff00169115159190911790556001016113c7565b5050505050565b836001600160a01b038116331461149157611491336119db565b611470858585856121a2565b60606114a882611977565b60006114b261222a565b905060008151116114d257604051806020016040528060008152506114fd565b806114dc8461223a565b6040516020016114ed929190613dad565b6040516020818303038152906040525b9392505050565b6000868633858560405160200161151f959493929190613ddc565b60405160208183030381529060405290506000611579828051906020012087878080601f0160208091040260200160405190810160405280939291908181526020018383808284376000920191909152506122da92505050565b610192549091506001600160a01b038083169116146115da5760405162461bcd60e51b815260206004820152600b60248201527f496e76616c696420736967000000000000000000000000000000000000000000604482015260640161082e565b60005b8781101561161957611607338a8a848181106115fb576115fb613bf6565b90506020020135612359565b8061161181613e9c565b9150506115dd565b505050505050505050565b33600090815261015f602052604090205460ff166116845760405162461bcd60e51b815260206004820152600d60248201527f4163636573732064656e69656400000000000000000000000000000000000000604482015260640161082e565b60005b6000828152610160602052604090205481101561172c576000828152610160602052604090208054339190839081106116c2576116c2613bf6565b6000918252602090912001546001600160a01b0316036117245760405162461bcd60e51b815260206004820152601b60248201527f494420616c7265616479206c6f636b65642062792063616c6c65720000000000604482015260640161082e565b600101611687565b506000908152610160602090815260408220805460018101825590835291200180547fffffffffffffffffffffffff00000000000000000000000000000000000000001633179055565b61177e61191d565b6001600160a01b0381166117fa5760405162461bcd60e51b815260206004820152602660248201527f4f776e61626c653a206e6577206f776e657220697320746865207a65726f206160448201527f6464726573730000000000000000000000000000000000000000000000000000606482015260840161082e565b610a9f81611ec4565b6000805b6000848152610160602052604090205481101561187e5760008481526101606020526040902080546001600160a01b03851691908390811061184b5761184b613bf6565b6000918252602090912001546001600160a01b03160361186c57905061062a565b8061187681613e9c565b915050611807565b5060405162461bcd60e51b815260206004820152600960248201527f4e6f7420666f756e640000000000000000000000000000000000000000000000604482015260640161082e565b60007fffffffff0000000000000000000000000000000000000000000000000000000082167f780e9d6300000000000000000000000000000000000000000000000000000000148061062a575061062a82612373565b60fb546001600160a01b031633146109f25760405162461bcd60e51b815260206004820181905260248201527f4f776e61626c653a2063616c6c6572206973206e6f7420746865206f776e6572604482015260640161082e565b6000818152606760205260409020546001600160a01b0316610a9f5760405162461bcd60e51b815260206004820152601860248201527f4552433732313a20696e76616c696420746f6b656e2049440000000000000000604482015260640161082e565b6daaeb6d7670e522a718067333cd4e3b15610a9f576040517fc61711340000000000000000000000000000000000000000000000000000000081523060048201526001600160a01b03821660248201526daaeb6d7670e522a718067333cd4e9063c617113490604401602060405180830381865afa158015611a61573d6000803e3d6000fd5b505050506040513d601f19601f82011682018060405250810190611a859190613d73565b610a9f576040517fede71dcc0000000000000000000000000000000000000000000000000000000081526001600160a01b038216600482015260240161082e565b6000611ad182610e92565b9050806001600160a01b0316836001600160a01b031603611b5a5760405162461bcd60e51b815260206004820152602160248201527f4552433732313a20617070726f76616c20746f2063757272656e74206f776e6560448201527f7200000000000000000000000000000000000000000000000000000000000000606482015260840161082e565b336001600160a01b0382161480611b765750611b7681336105c1565b611be85760405162461bcd60e51b815260206004820152603d60248201527f4552433732313a20617070726f76652063616c6c6572206973206e6f7420746f60448201527f6b656e206f776e6572206f7220617070726f76656420666f7220616c6c000000606482015260840161082e565b6107688383612456565b611bfb33610a1e565b611c6d5760405162461bcd60e51b815260206004820152602d60248201527f4552433732313a2063616c6c6572206973206e6f7420746f6b656e206f776e6560448201527f72206f7220617070726f76656400000000000000000000000000000000000000606482015260840161082e565b6107688383836124dc565b611c8061272a565b60c980547fffffffffffffffffffffffffffffffffffffffffffffffffffffffffffffff001690557f5db9ee0a495bf2e6ff9c91a7834c1ba4fdd244a5e8aa4e537bd38aeae4b073aa335b6040516001600160a01b03909116815260200160405180910390a1565b61076883838360405180602001604052806000815250611477565b600080611d0f83610e92565b9050806001600160a01b0316846001600160a01b03161480611d5657506001600160a01b038082166000908152606a602090815260408083209388168352929052205460ff165b80611d7a5750836001600160a01b0316611d6f8461072d565b6001600160a01b0316145b949350505050565b6000611d8d82610e92565b9050611d9d81600084600161277c565b611da682610e92565b600083815260696020908152604080832080547fffffffffffffffffffffffff00000000000000000000000000000000000000009081169091556001600160a01b0385168085526068845282852080546000190190558785526067909352818420805490911690555192935084927fddf252ad1be2c89b69c2b068fc378daa952ba7f163c4a11628f55a4df523b3ef908390a45050565b600054610100900460ff16611eba5760405162461bcd60e51b815260206004820152602b60248201527f496e697469616c697a61626c653a20636f6e7472616374206973206e6f74206960448201527f6e697469616c697a696e67000000000000000000000000000000000000000000606482015260840161082e565b610b5b82826127ed565b60fb80546001600160a01b038381167fffffffffffffffffffffffff0000000000000000000000000000000000000000831681179093556040519116919082907f8be0079c531659141344cd1fd0a4f28419497f9722a3daafe3b4186f6b6457e090600090a35050565b600054610100900460ff16611fab5760405162461bcd60e51b815260206004820152602b60248201527f496e697469616c697a61626c653a20636f6e7472616374206973206e6f74206960448201527f6e697469616c697a696e67000000000000000000000000000000000000000000606482015260840161082e565b610b5b82826129c2565b600054610100900460ff166109f25760405162461bcd60e51b815260206004820152602b60248201527f496e697469616c697a61626c653a20636f6e7472616374206973206e6f74206960448201527f6e697469616c697a696e67000000000000000000000000000000000000000000606482015260840161082e565b600054610100900460ff166120af5760405162461bcd60e51b815260206004820152602b60248201527f496e697469616c697a61626c653a20636f6e7472616374206973206e6f74206960448201527f6e697469616c697a696e67000000000000000000000000000000000000000000606482015260840161082e565b6109f2612a58565b600054610100900460ff166121345760405162461bcd60e51b815260206004820152602b60248201527f496e697469616c697a61626c653a20636f6e7472616374206973206e6f74206960448201527f6e697469616c697a696e67000000000000000000000000000000000000000000606482015260840161082e565b6109f2612aff565b612144612b85565b60c980547fffffffffffffffffffffffffffffffffffffffffffffffffffffffffffffff001660011790557f62e78cea01bee320cd4e420270b5ea74000d11b0c9f74754ebdbfc544b05a258611ccb3390565b610b5b338383612bd8565b6121ac3383611d03565b61221e5760405162461bcd60e51b815260206004820152602d60248201527f4552433732313a2063616c6c6572206973206e6f7420746f6b656e206f776e6560448201527f72206f7220617070726f76656400000000000000000000000000000000000000606482015260840161082e565b61079284848484612cc4565b606061019380546106aa90613ba3565b6060600061224783612d4d565b600101905060008167ffffffffffffffff8111156122675761226761375b565b6040519080825280601f01601f191660200182016040528015612291576020820181803683370190505b5090508181016020015b600019017f3031323334353637383961626364656600000000000000000000000000000000600a86061a8153600a850494508461229b57509392505050565b6000806000806122e985612e2f565b6040805160008152602081018083528b905260ff8516918101919091526060810183905260808101829052929550909350915060019060a0016020604051602081039080840390855afa158015612344573d6000803e3d6000fd5b5050604051601f190151979650505050505050565b610b5b828260405180602001604052806000815250612ea1565b60007fffffffff0000000000000000000000000000000000000000000000000000000082167f80ac58cd00000000000000000000000000000000000000000000000000000000148061240657507fffffffff0000000000000000000000000000000000000000000000000000000082167f5b5e139f00000000000000000000000000000000000000000000000000000000145b8061062a57507f01ffc9a7000000000000000000000000000000000000000000000000000000007fffffffff0000000000000000000000000000000000000000000000000000000083161461062a565b600081815260696020526040902080547fffffffffffffffffffffffff0000000000000000000000000000000000000000166001600160a01b03841690811790915581906124a382610e92565b6001600160a01b03167f8c5be1e5ebec7d5bd14f71427d1e84f3dd0314c0f7b2291e5b200ac8c7c3b92560405160405180910390a45050565b826001600160a01b03166124ef82610e92565b6001600160a01b03161461256b5760405162461bcd60e51b815260206004820152602560248201527f4552433732313a207472616e736665722066726f6d20696e636f72726563742060448201527f6f776e6572000000000000000000000000000000000000000000000000000000606482015260840161082e565b6001600160a01b0382166125e65760405162461bcd60e51b8152602060048201526024808201527f4552433732313a207472616e7366657220746f20746865207a65726f2061646460448201527f7265737300000000000000000000000000000000000000000000000000000000606482015260840161082e565b6125f3838383600161277c565b826001600160a01b031661260682610e92565b6001600160a01b0316146126825760405162461bcd60e51b815260206004820152602560248201527f4552433732313a207472616e736665722066726f6d20696e636f72726563742060448201527f6f776e6572000000000000000000000000000000000000000000000000000000606482015260840161082e565b600081815260696020908152604080832080547fffffffffffffffffffffffff00000000000000000000000000000000000000009081169091556001600160a01b0387811680865260688552838620805460001901905590871680865283862080546001019055868652606790945282852080549092168417909155905184937fddf252ad1be2c89b69c2b068fc378daa952ba7f163c4a11628f55a4df523b3ef91a4505050565b60c95460ff166109f25760405162461bcd60e51b815260206004820152601460248201527f5061757361626c653a206e6f7420706175736564000000000000000000000000604482015260640161082e565b612784612b85565b60008281526101606020526040902054156127e15760405162461bcd60e51b815260206004820152600c60248201527f546f6b656e206c6f636b65640000000000000000000000000000000000000000604482015260640161082e565b61079284848484612f2a565b600054610100900460ff1661286a5760405162461bcd60e51b815260206004820152602b60248201527f496e697469616c697a61626c653a20636f6e7472616374206973206e6f74206960448201527f6e697469616c697a696e67000000000000000000000000000000000000000000606482015260840161082e565b6daaeb6d7670e522a718067333cd4e3b15610b5b578015612910576040517f7d3e3dbe0000000000000000000000000000000000000000000000000000000081523060048201526001600160a01b03831660248201526daaeb6d7670e522a718067333cd4e90637d3e3dbe906044015b600060405180830381600087803b1580156128f457600080fd5b505af1158015612908573d6000803e3d6000fd5b505050505050565b6001600160a01b03821615612978576040517fa0af29030000000000000000000000000000000000000000000000000000000081523060048201526001600160a01b03831660248201526daaeb6d7670e522a718067333cd4e9063a0af2903906044016128da565b6040517f4420e4860000000000000000000000000000000000000000000000000000000081523060048201526daaeb6d7670e522a718067333cd4e90634420e486906024016128da565b600054610100900460ff16612a3f5760405162461bcd60e51b815260206004820152602b60248201527f496e697469616c697a61626c653a20636f6e7472616374206973206e6f74206960448201527f6e697469616c697a696e67000000000000000000000000000000000000000000606482015260840161082e565b6065612a4b8382613c9a565b5060666107688282613c9a565b600054610100900460ff16612ad55760405162461bcd60e51b815260206004820152602b60248201527f496e697469616c697a61626c653a20636f6e7472616374206973206e6f74206960448201527f6e697469616c697a696e67000000000000000000000000000000000000000000606482015260840161082e565b60c980547fffffffffffffffffffffffffffffffffffffffffffffffffffffffffffffff00169055565b600054610100900460ff16612b7c5760405162461bcd60e51b815260206004820152602b60248201527f496e697469616c697a61626c653a20636f6e7472616374206973206e6f74206960448201527f6e697469616c697a696e67000000000000000000000000000000000000000000606482015260840161082e565b6109f233611ec4565b60c95460ff16156109f25760405162461bcd60e51b815260206004820152601060248201527f5061757361626c653a2070617573656400000000000000000000000000000000604482015260640161082e565b816001600160a01b0316836001600160a01b031603612c395760405162461bcd60e51b815260206004820152601960248201527f4552433732313a20617070726f766520746f2063616c6c657200000000000000604482015260640161082e565b6001600160a01b038381166000818152606a602090815260408083209487168084529482529182902080547fffffffffffffffffffffffffffffffffffffffffffffffffffffffffffffff001686151590811790915591519182527f17307eab39ab6107e8899845ad3d59bd9653f200f220920489ca2b5937696c31910160405180910390a3505050565b612ccf8484846124dc565b612cdb8484848461306b565b6107925760405162461bcd60e51b815260206004820152603260248201527f4552433732313a207472616e7366657220746f206e6f6e20455243373231526560448201527f63656976657220696d706c656d656e7465720000000000000000000000000000606482015260840161082e565b6000807a184f03e93ff9f4daa797ed6e38ed64bf6a1f0100000000000000008310612d96577a184f03e93ff9f4daa797ed6e38ed64bf6a1f010000000000000000830492506040015b6d04ee2d6d415b85acef81000000008310612dc2576d04ee2d6d415b85acef8100000000830492506020015b662386f26fc100008310612de057662386f26fc10000830492506010015b6305f5e1008310612df8576305f5e100830492506008015b6127108310612e0c57612710830492506004015b60648310612e1e576064830492506002015b600a831061062a5760010192915050565b60008060008351604114612e855760405162461bcd60e51b815260206004820152600b60248201527f696e76616c696420736967000000000000000000000000000000000000000000604482015260640161082e565b5050506020810151604082015160609092015160001a92909190565b612eab838361320c565b612eb8600084848461306b565b6107685760405162461bcd60e51b815260206004820152603260248201527f4552433732313a207472616e7366657220746f206e6f6e20455243373231526560448201527f63656976657220696d706c656d656e7465720000000000000000000000000000606482015260840161082e565b612f36848484846133bd565b6001811115612fad5760405162461bcd60e51b815260206004820152603560248201527f455243373231456e756d657261626c653a20636f6e736563757469766520747260448201527f616e7366657273206e6f7420737570706f727465640000000000000000000000606482015260840161082e565b816001600160a01b0385166130095761300481609980546000838152609a60205260408120829055600182018355919091527f72a152ddfb8e864297c917af52ea6c1c68aead0fee1a62673fcc7e0c94979d000155565b61302c565b836001600160a01b0316856001600160a01b03161461302c5761302c8582613445565b6001600160a01b03841661304857613043816134e2565b611470565b846001600160a01b0316846001600160a01b031614611470576114708482613591565b60006001600160a01b0384163b15613201576040517f150b7a020000000000000000000000000000000000000000000000000000000081526001600160a01b0385169063150b7a02906130c8903390899088908890600401613eb6565b6020604051808303816000875af1925050508015613103575060408051601f3d908101601f1916820190925261310091810190613ef2565b60015b6131b6573d808015613131576040519150601f19603f3d011682016040523d82523d6000602084013e613136565b606091505b5080516000036131ae5760405162461bcd60e51b815260206004820152603260248201527f4552433732313a207472616e7366657220746f206e6f6e20455243373231526560448201527f63656976657220696d706c656d656e7465720000000000000000000000000000606482015260840161082e565b805181602001fd5b7fffffffff00000000000000000000000000000000000000000000000000000000167f150b7a0200000000000000000000000000000000000000000000000000000000149050611d7a565b506001949350505050565b6001600160a01b0382166132625760405162461bcd60e51b815260206004820181905260248201527f4552433732313a206d696e7420746f20746865207a65726f2061646472657373604482015260640161082e565b6000818152606760205260409020546001600160a01b0316156132c75760405162461bcd60e51b815260206004820152601c60248201527f4552433732313a20746f6b656e20616c7265616479206d696e74656400000000604482015260640161082e565b6132d560008383600161277c565b6000818152606760205260409020546001600160a01b03161561333a5760405162461bcd60e51b815260206004820152601c60248201527f4552433732313a20746f6b656e20616c7265616479206d696e74656400000000604482015260640161082e565b6001600160a01b038216600081815260686020908152604080832080546001019055848352606790915280822080547fffffffffffffffffffffffff0000000000000000000000000000000000000000168417905551839291907fddf252ad1be2c89b69c2b068fc378daa952ba7f163c4a11628f55a4df523b3ef908290a45050565b6001811115610792576001600160a01b03841615613403576001600160a01b038416600090815260686020526040812080548392906133fd908490613f0f565b90915550505b6001600160a01b03831615610792576001600160a01b0383166000908152606860205260408120805483929061343a908490613f22565b909155505050505050565b6000600161345284610f86565b61345c9190613f0f565b6000838152609860205260409020549091508082146134af576001600160a01b03841660009081526097602090815260408083208584528252808320548484528184208190558352609890915290208190555b5060009182526098602090815260408084208490556001600160a01b039094168352609781528383209183525290812055565b6099546000906134f490600190613f0f565b6000838152609a60205260408120546099805493945090928490811061351c5761351c613bf6565b90600052602060002001549050806099838154811061353d5761353d613bf6565b6000918252602080832090910192909255828152609a9091526040808220849055858252812055609980548061357557613575613c25565b6001900381819060005260206000200160009055905550505050565b600061359c83610f86565b6001600160a01b039093166000908152609760209081526040808320868452825280832085905593825260989052919091209190915550565b7fffffffff0000000000000000000000000000000000000000000000000000000081168114610a9f57600080fd5b60006020828403121561361557600080fd5b81356114fd816135d5565b80356001600160a01b038116811461363757600080fd5b919050565b60006020828403121561364e57600080fd5b6114fd82613620565b60005b8381101561367257818101518382015260200161365a565b50506000910152565b60008151808452613693816020860160208601613657565b601f01601f19169290920160200192915050565b6020815260006114fd602083018461367b565b6000602082840312156136cc57600080fd5b5035919050565b600080604083850312156136e657600080fd5b6136ef83613620565b946020939093013593505050565b60008060006060848603121561371257600080fd5b61371b84613620565b925061372960208501613620565b9150604084013590509250925092565b6000806040838503121561374c57600080fd5b50508035926020909101359150565b7f4e487b7100000000000000000000000000000000000000000000000000000000600052604160045260246000fd5b600067ffffffffffffffff808411156137a5576137a561375b565b604051601f8501601f19908116603f011681019082821181831017156137cd576137cd61375b565b816040528093508581528686860111156137e657600080fd5b858560208301376000602087830101525050509392505050565b600082601f83011261381157600080fd5b6114fd8383356020850161378a565b60006020828403121561383257600080fd5b813567ffffffffffffffff81111561384957600080fd5b611d7a84828501613800565b600080600080600060a0868803121561386d57600080fd5b853567ffffffffffffffff8082111561388557600080fd5b61389189838a01613800565b965060208801359150808211156138a757600080fd5b6138b389838a01613800565b9550604088013594506138c860608901613620565b935060808801359150808211156138de57600080fd5b506138eb88828901613800565b9150509295509295909350565b8015158114610a9f57600080fd5b6000806040838503121561391957600080fd5b61392283613620565b91506020830135613932816138f8565b809150509250929050565b60008083601f84011261394f57600080fd5b50813567ffffffffffffffff81111561396757600080fd5b6020830191508360208260051b850101111561398257600080fd5b9250929050565b6000806000806040858703121561399f57600080fd5b843567ffffffffffffffff808211156139b757600080fd5b6139c38883890161393d565b909650945060208701359150808211156139dc57600080fd5b506139e98782880161393d565b95989497509550505050565b60008060008060808587031215613a0b57600080fd5b613a1485613620565b9350613a2260208601613620565b925060408501359150606085013567ffffffffffffffff811115613a4557600080fd5b8501601f81018713613a5657600080fd5b613a658782356020840161378a565b91505092959194509250565b60008083601f840112613a8357600080fd5b50813567ffffffffffffffff811115613a9b57600080fd5b60208301915083602082850101111561398257600080fd5b60008060008060008060608789031215613acc57600080fd5b863567ffffffffffffffff80821115613ae457600080fd5b613af08a838b0161393d565b90985096506020890135915080821115613b0957600080fd5b613b158a838b01613a71565b90965094506040890135915080821115613b2e57600080fd5b50613b3b89828a01613a71565b979a9699509497509295939492505050565b60008060408385031215613b6057600080fd5b613b6983613620565b9150613b7760208401613620565b90509250929050565b60008060408385031215613b9357600080fd5b82359150613b7760208401613620565b600181811c90821680613bb757607f821691505b602082108103613bf0577f4e487b7100000000000000000000000000000000000000000000000000000000600052602260045260246000fd5b50919050565b7f4e487b7100000000000000000000000000000000000000000000000000000000600052603260045260246000fd5b7f4e487b7100000000000000000000000000000000000000000000000000000000600052603160045260246000fd5b601f82111561076857600081815260208120601f850160051c81016020861015613c7b5750805b601f850160051c820191505b8181101561290857828155600101613c87565b815167ffffffffffffffff811115613cb457613cb461375b565b613cc881613cc28454613ba3565b84613c54565b602080601f831160018114613cfd5760008415613ce55750858301515b600019600386901b1c1916600185901b178555612908565b600085815260208120601f198616915b82811015613d2c57888601518255948401946001909101908401613d0d565b5085821015613d4a5787850151600019600388901b60f8161c191681555b5050505050600190811b01905550565b600060208284031215613d6c57600080fd5b5051919050565b600060208284031215613d8557600080fd5b81516114fd816138f8565b600060208284031215613da257600080fd5b81356114fd816138f8565b60008351613dbf818460208801613657565b835190830190613dd3818360208801613657565b01949350505050565b6060815284606082015260007f07ffffffffffffffffffffffffffffffffffffffffffffffffffffffffffffff861115613e1557600080fd5b8560051b808860808501376001600160a01b03861660208401528201828103608090810160408501528101849052838560a0830137600060a0858301015260a0601f19601f8601168201019150509695505050505050565b7f4e487b7100000000000000000000000000000000000000000000000000000000600052601160045260246000fd5b60006000198203613eaf57613eaf613e6d565b5060010190565b60006001600160a01b03808716835280861660208401525083604083015260806060830152613ee8608083018461367b565b9695505050505050565b600060208284031215613f0457600080fd5b81516114fd816135d5565b8181038181111561062a5761062a613e6d565b8082018082111561062a5761062a613e6d56fea26469706673582212204b43ba3e70cadddec2045b7b203d05a2a24e54840c0949ba9928ccb82c878cca64736f6c63430008110033",
  "linkReferences": {},
  "deployedLinkReferences": {}
}