{
  "_format": "hh-sol-artifact-1",
  "contractName": "MKGenesisV2",
  "sourceName": "contracts/MKGenesisV2.sol",
  "abi": [
    {
      "inputs": [
        {
          "internalType": "address",
          "name": "operator",
          "type": "address"
        }
      ],
      "name": "OperatorNotAllowed",
      "type": "error"
    },
    {
      "anonymous": false,
      "inputs": [
        {
          "indexed": true,
          "internalType": "address",
          "name": "owner",
          "type": "address"
        },
        {
          "indexed": true,
          "internalType": "address",
          "name": "approved",
          "type": "address"
        },
        {
          "indexed": true,
          "internalType": "uint256",
          "name": "tokenId",
          "type": "uint256"
        }
      ],
      "name": "Approval",
      "type": "event"
    },
    {
      "anonymous": false,
      "inputs": [
        {
          "indexed": true,
          "internalType": "address",
          "name": "owner",
          "type": "address"
        },
        {
          "indexed": true,
          "internalType": "address",
          "name": "operator",
          "type": "address"
        },
        {
          "indexed": false,
          "internalType": "bool",
          "name": "approved",
          "type": "bool"
        }
      ],
      "name": "ApprovalForAll",
      "type": "event"
    },
    {
      "anonymous": false,
      "inputs": [
        {
          "indexed": true,
          "internalType": "address",
          "name": "newSigner",
          "type": "address"
        }
      ],
      "name": "AuthSignerSet",
      "type": "event"
    },
    {
      "anonymous": false,
      "inputs": [
        {
          "indexed": false,
          "internalType": "uint8",
          "name": "version",
          "type": "uint8"
        }
      ],
      "name": "Initialized",
      "type": "event"
    },
    {
      "anonymous": false,
      "inputs": [
        {
          "indexed": true,
          "internalType": "address",
          "name": "previousOwner",
          "type": "address"
        },
        {
          "indexed": true,
          "internalType": "address",
          "name": "newOwner",
          "type": "address"
        }
      ],
      "name": "OwnershipTransferred",
      "type": "event"
    },
    {
      "anonymous": false,
      "inputs": [
        {
          "indexed": false,
          "internalType": "address",
          "name": "account",
          "type": "address"
        }
      ],
      "name": "Paused",
      "type": "event"
    },
    {
      "anonymous": false,
      "inputs": [
        {
          "indexed": true,
          "internalType": "address",
          "name": "from",
          "type": "address"
        },
        {
          "indexed": true,
          "internalType": "address",
          "name": "to",
          "type": "address"
        },
        {
          "indexed": true,
          "internalType": "uint256",
          "name": "tokenId",
          "type": "uint256"
        }
      ],
      "name": "Transfer",
      "type": "event"
    },
    {
      "anonymous": false,
      "inputs": [
        {
          "indexed": false,
          "internalType": "address",
          "name": "account",
          "type": "address"
        }
      ],
      "name": "Unpaused",
      "type": "event"
    },
    {
      "inputs": [],
      "name": "MAX_SUPPLY",
      "outputs": [
        {
          "internalType": "uint256",
          "name": "",
          "type": "uint256"
        }
      ],
      "stateMutability": "view",
      "type": "function"
    },
    {
      "inputs": [],
      "name": "OPERATOR_FILTER_REGISTRY",
      "outputs": [
        {
          "internalType": "contract IOperatorFilterRegistry",
          "name": "",
          "type": "address"
        }
      ],
      "stateMutability": "view",
      "type": "function"
    },
    {
      "inputs": [
        {
          "internalType": "address",
          "name": "operator",
          "type": "address"
        },
        {
          "internalType": "uint256",
          "name": "tokenId",
          "type": "uint256"
        }
      ],
      "name": "approve",
      "outputs": [],
      "stateMutability": "nonpayable",
      "type": "function"
    },
    {
      "inputs": [
        {
          "internalType": "address",
          "name": "",
          "type": "address"
        }
      ],
      "name": "approvedContract",
      "outputs": [
        {
          "internalType": "bool",
          "name": "",
          "type": "bool"
        }
      ],
      "stateMutability": "view",
      "type": "function"
    },
    {
      "inputs": [],
      "name": "authSigner",
      "outputs": [
        {
          "internalType": "address",
          "name": "",
          "type": "address"
        }
      ],
      "stateMutability": "view",
      "type": "function"
    },
    {
      "inputs": [
        {
          "internalType": "address",
          "name": "owner",
          "type": "address"
        }
      ],
      "name": "balanceOf",
      "outputs": [
        {
          "internalType": "uint256",
          "name": "",
          "type": "uint256"
        }
      ],
      "stateMutability": "view",
      "type": "function"
    },
    {
      "inputs": [],
      "name": "baseURI",
      "outputs": [
        {
          "internalType": "string",
          "name": "",
          "type": "string"
        }
      ],
      "stateMutability": "view",
      "type": "function"
    },
    {
      "inputs": [
        {
          "internalType": "uint256",
          "name": "tokenId",
          "type": "uint256"
        }
      ],
      "name": "burn",
      "outputs": [],
      "stateMutability": "nonpayable",
      "type": "function"
    },
    {
      "inputs": [
        {
          "internalType": "uint256",
          "name": "_id",
          "type": "uint256"
        },
        {
          "internalType": "uint256",
          "name": "pos",
          "type": "uint256"
        }
      ],
      "name": "clearLockId",
      "outputs": [],
      "stateMutability": "nonpayable",
      "type": "function"
    },
    {
      "inputs": [
        {
          "internalType": "uint256",
          "name": "_id",
          "type": "uint256"
        },
        {
          "internalType": "address",
          "name": "addr",
          "type": "address"
        }
      ],
      "name": "findPos",
      "outputs": [
        {
          "internalType": "uint256",
          "name": "",
          "type": "uint256"
        }
      ],
      "stateMutability": "view",
      "type": "function"
    },
    {
      "inputs": [
        {
          "internalType": "uint256",
          "name": "tokenId",
          "type": "uint256"
        }
      ],
      "name": "getApproved",
      "outputs": [
        {
          "internalType": "address",
          "name": "",
          "type": "address"
        }
      ],
      "stateMutability": "view",
      "type": "function"
    },
    {
      "inputs": [
        {
          "internalType": "string",
          "name": "tokenName",
          "type": "string"
        },
        {
          "internalType": "string",
          "name": "tokenSymbol",
          "type": "string"
        },
        {
          "internalType": "uint256",
          "name": "maxSupply",
          "type": "uint256"
        },
        {
          "internalType": "address",
          "name": "_authSigner",
          "type": "address"
        },
        {
          "internalType": "string",
          "name": "__baseURI",
          "type": "string"
        }
      ],
      "name": "initialize",
      "outputs": [],
      "stateMutability": "nonpayable",
      "type": "function"
    },
    {
      "inputs": [],
      "name": "initializeV2",
      "outputs": [],
      "stateMutability": "nonpayable",
      "type": "function"
    },
    {
      "inputs": [
        {
          "internalType": "address",
          "name": "owner",
          "type": "address"
        },
        {
          "internalType": "address",
          "name": "operator",
          "type": "address"
        }
      ],
      "name": "isApprovedForAll",
      "outputs": [
        {
          "internalType": "bool",
          "name": "",
          "type": "bool"
        }
      ],
      "stateMutability": "view",
      "type": "function"
    },
    {
      "inputs": [
        {
          "internalType": "uint256",
          "name": "_id",
          "type": "uint256"
        }
      ],
      "name": "isUnlocked",
      "outputs": [
        {
          "internalType": "bool",
          "name": "",
          "type": "bool"
        }
      ],
      "stateMutability": "view",
      "type": "function"
    },
    {
      "inputs": [
        {
          "internalType": "uint256",
          "name": "_id",
          "type": "uint256"
        }
      ],
      "name": "lock",
      "outputs": [],
      "stateMutability": "nonpayable",
      "type": "function"
    },
    {
      "inputs": [
        {
          "internalType": "uint256",
          "name": "",
          "type": "uint256"
        },
        {
          "internalType": "uint256",
          "name": "",
          "type": "uint256"
        }
      ],
      "name": "locks",
      "outputs": [
        {
          "internalType": "address",
          "name": "",
          "type": "address"
        }
      ],
      "stateMutability": "view",
      "type": "function"
    },
    {
      "inputs": [
        {
          "internalType": "uint256[]",
          "name": "tokenIds",
          "type": "uint256[]"
        },
        {
          "internalType": "bytes",
          "name": "sig",
          "type": "bytes"
        },
        {
          "internalType": "string",
          "name": "solSig",
          "type": "string"
        }
      ],
      "name": "migrate",
      "outputs": [],
      "stateMutability": "nonpayable",
      "type": "function"
    },
    {
      "inputs": [],
      "name": "name",
      "outputs": [
        {
          "internalType": "string",
          "name": "",
          "type": "string"
        }
      ],
      "stateMutability": "view",
      "type": "function"
    },
    {
      "inputs": [],
      "name": "owner",
      "outputs": [
        {
          "internalType": "address",
          "name": "",
          "type": "address"
        }
      ],
      "stateMutability": "view",
      "type": "function"
    },
    {
      "inputs": [
        {
          "internalType": "uint256",
          "name": "tokenId",
          "type": "uint256"
        }
      ],
      "name": "ownerOf",
      "outputs": [
        {
          "internalType": "address",
          "name": "",
          "type": "address"
        }
      ],
      "stateMutability": "view",
      "type": "function"
    },
    {
      "inputs": [],
      "name": "pause",
      "outputs": [],
      "stateMutability": "nonpayable",
      "type": "function"
    },
    {
      "inputs": [],
      "name": "paused",
      "outputs": [
        {
          "internalType": "bool",
          "name": "",
          "type": "bool"
        }
      ],
      "stateMutability": "view",
      "type": "function"
    },
    {
      "inputs": [
        {
          "internalType": "address",
          "name": "tokenAddress",
          "type": "address"
        }
      ],
      "name": "recoverERC20",
      "outputs": [],
      "stateMutability": "nonpayable",
      "type": "function"
    },
    {
      "inputs": [],
      "name": "renounceOwnership",
      "outputs": [],
      "stateMutability": "nonpayable",
      "type": "function"
    },
    {
      "inputs": [
        {
          "internalType": "address",
          "name": "from",
          "type": "address"
        },
        {
          "internalType": "address",
          "name": "to",
          "type": "address"
        },
        {
          "internalType": "uint256",
          "name": "tokenId",
          "type": "uint256"
        }
      ],
      "name": "safeTransferFrom",
      "outputs": [],
      "stateMutability": "nonpayable",
      "type": "function"
    },
    {
      "inputs": [
        {
          "internalType": "address",
          "name": "from",
          "type": "address"
        },
        {
          "internalType": "address",
          "name": "to",
          "type": "address"
        },
        {
          "internalType": "uint256",
          "name": "tokenId",
          "type": "uint256"
        },
        {
          "internalType": "bytes",
          "name": "data",
          "type": "bytes"
        }
      ],
      "name": "safeTransferFrom",
      "outputs": [],
      "stateMutability": "nonpayable",
      "type": "function"
    },
    {
      "inputs": [
        {
          "internalType": "address",
          "name": "operator",
          "type": "address"
        },
        {
          "internalType": "bool",
          "name": "approved",
          "type": "bool"
        }
      ],
      "name": "setApprovalForAll",
      "outputs": [],
      "stateMutability": "nonpayable",
      "type": "function"
    },
    {
      "inputs": [
        {
          "internalType": "address",
          "name": "_authSigner",
          "type": "address"
        }
      ],
      "name": "setAuthSigner",
      "outputs": [],
      "stateMutability": "nonpayable",
      "type": "function"
    },
    {
      "inputs": [
        {
          "internalType": "string",
          "name": "newURI",
          "type": "string"
        }
      ],
      "name": "setBaseURI",
      "outputs": [],
      "stateMutability": "nonpayable",
      "type": "function"
    },
    {
      "inputs": [
        {
          "internalType": "bytes4",
          "name": "interfaceId",
          "type": "bytes4"
        }
      ],
      "name": "supportsInterface",
      "outputs": [
        {
          "internalType": "bool",
          "name": "",
          "type": "bool"
        }
      ],
      "stateMutability": "view",
      "type": "function"
    },
    {
      "inputs": [],
      "name": "symbol",
      "outputs": [
        {
          "internalType": "string",
          "name": "",
          "type": "string"
        }
      ],
      "stateMutability": "view",
      "type": "function"
    },
    {
      "inputs": [
        {
          "internalType": "uint256",
          "name": "index",
          "type": "uint256"
        }
      ],
      "name": "tokenByIndex",
      "outputs": [
        {
          "internalType": "uint256",
          "name": "",
          "type": "uint256"
        }
      ],
      "stateMutability": "view",
      "type": "function"
    },
    {
      "inputs": [
        {
          "internalType": "address",
          "name": "owner",
          "type": "address"
        },
        {
          "internalType": "uint256",
          "name": "index",
          "type": "uint256"
        }
      ],
      "name": "tokenOfOwnerByIndex",
      "outputs": [
        {
          "internalType": "uint256",
          "name": "",
          "type": "uint256"
        }
      ],
      "stateMutability": "view",
      "type": "function"
    },
    {
      "inputs": [
        {
          "internalType": "uint256",
          "name": "tokenId",
          "type": "uint256"
        }
      ],
      "name": "tokenURI",
      "outputs": [
        {
          "internalType": "string",
          "name": "",
          "type": "string"
        }
      ],
      "stateMutability": "view",
      "type": "function"
    },
    {
      "inputs": [],
      "name": "totalSupply",
      "outputs": [
        {
          "internalType": "uint256",
          "name": "",
          "type": "uint256"
        }
      ],
      "stateMutability": "view",
      "type": "function"
    },
    {
      "inputs": [
        {
          "internalType": "address",
          "name": "from",
          "type": "address"
        },
        {
          "internalType": "address",
          "name": "to",
          "type": "address"
        },
        {
          "internalType": "uint256",
          "name": "tokenId",
          "type": "uint256"
        }
      ],
      "name": "transferFrom",
      "outputs": [],
      "stateMutability": "nonpayable",
      "type": "function"
    },
    {
      "inputs": [
        {
          "internalType": "address",
          "name": "newOwner",
          "type": "address"
        }
      ],
      "name": "transferOwnership",
      "outputs": [],
      "stateMutability": "nonpayable",
      "type": "function"
    },
    {
      "inputs": [
        {
          "internalType": "uint256",
          "name": "_id",
          "type": "uint256"
        },
        {
          "internalType": "uint256",
          "name": "pos",
          "type": "uint256"
        }
      ],
      "name": "unlock",
      "outputs": [],
      "stateMutability": "nonpayable",
      "type": "function"
    },
    {
      "inputs": [],
      "name": "unpause",
      "outputs": [],
      "stateMutability": "nonpayable",
      "type": "function"
    },
    {
      "inputs": [
        {
          "internalType": "address[]",
          "name": "_contracts",
          "type": "address[]"
        },
        {
          "internalType": "bool[]",
          "name": "_values",
          "type": "bool[]"
        }
      ],
      "name": "updateApprovedContracts",
      "outputs": [],
      "stateMutability": "nonpayable",
      "type": "function"
    }
  ],
  "bytecode": "0x60806040523480156200001157600080fd5b506200001c62000022565b620000e4565b600054610100900460ff16156200008f5760405162461bcd60e51b815260206004820152602760248201527f496e697469616c697a61626c653a20636f6e747261637420697320696e697469604482015266616c697a696e6760c81b606482015260840160405180910390fd5b60005460ff9081161015620000e2576000805460ff191660ff9081179091556040519081527f7f26b83ff96e1f2b6a682f133852f6798a09c465da95921460cefb38474024989060200160405180910390a15b565b61457480620000f46000396000f3fe608060405234801561001057600080fd5b50600436106102d35760003560e01c80636c0360eb11610186578063a22cb465116100e3578063c87b56dd11610097578063e985e9c511610071578063e985e9c5146105cf578063f2fde38b14610618578063f82c3d951461062b57600080fd5b8063c87b56dd14610596578063cfdaf2f6146105a9578063dd467064146105bc57600080fd5b8063b1a6505f116100c8578063b1a6505f1461053e578063b42348ac14610562578063b88d4fde1461058357600080fd5b8063a22cb46514610518578063ac52e6441461052b57600080fd5b806383f270201161013a5780638da5cb5b1161011f5780638da5cb5b146104df57806395d89b41146104fd5780639e8c708e1461050557600080fd5b806383f27020146104c45780638456cb59146104d757600080fd5b8063715018a61161016b578063715018a61461048757806372abc8b71461048f57806380680207146104b157600080fd5b80636c0360eb1461046c57806370a082311461047457600080fd5b80633f4ba83a1161023457806355f804b3116101e85780635c975abb116101cd5780635c975abb146104465780635cd8a76b146104515780636352211e1461045957600080fd5b806355f804b3146104205780635bfadb241461043357600080fd5b806342842e0e1161021957806342842e0e146103e757806342966c68146103fa5780634f6ccce71461040d57600080fd5b80633f4ba83a146103ca57806341f43434146103d257600080fd5b806318160ddd1161028b5780632cffdfb6116102705780632cffdfb61461039a5780632f745c59146103ad57806332cb6b0c146103c057600080fd5b806318160ddd1461037557806323b872dd1461038757600080fd5b806306fdde03116102bc57806306fdde0314610315578063081812fc1461032a578063095ea7b31461036257600080fd5b806301ffc9a7146102d85780630532bca114610300575b600080fd5b6102eb6102e6366004613b13565b61063e565b60405190151581526020015b60405180910390f35b61031361030e366004613b59565b61064f565b005b61031d6106c7565b6040516102f79190613be2565b61033d610338366004613bf5565b610759565b60405173ffffffffffffffffffffffffffffffffffffffff90911681526020016102f7565b610313610370366004613c0e565b61078d565b6099545b6040519081526020016102f7565b610313610395366004613c38565b6107a6565b6103136103a8366004613c74565b6107de565b6103796103bb366004613c0e565b6109f0565b6103796101915481565b610313610aa5565b61033d6daaeb6d7670e522a718067333cd4e81565b6103136103f5366004613c38565b610ab7565b610313610408366004613bf5565b610ae9565b61037961041b366004613bf5565b610b72565b61031361042e366004613d79565b610c16565b610313610441366004613c74565b610c2f565b60c95460ff166102eb565b610313610e87565b61033d610467366004613bf5565b610fcc565b61031d61103e565b610379610482366004613b59565b6110cd565b610313611181565b6102eb61049d366004613bf5565b600090815261016060205260409020541590565b6103136104bf366004613dae565b611193565b61033d6104d2366004613c74565b61133d565b610313611383565b60fb5473ffffffffffffffffffffffffffffffffffffffff1661033d565b61031d611393565b610313610513366004613b59565b6113a2565b610313610526366004613e5f565b611508565b610313610539366004613ee2565b61151c565b6102eb61054c366004613b59565b61015f6020526000908152604090205460ff1681565b6101925461033d9073ffffffffffffffffffffffffffffffffffffffff1681565b610313610591366004613f4e565b611633565b61031d6105a4366004613bf5565b611666565b6103136105b736600461400c565b6116cd565b6103136105ca366004613bf5565b6117fa565b6102eb6105dd3660046140a6565b73ffffffffffffffffffffffffffffffffffffffff9182166000908152606a6020908152604080832093909416825291909152205460ff1690565b610313610626366004613b59565b611959565b6103796106393660046140d9565b6119f3565b600061064982611ad1565b92915050565b610657611b27565b61019280547fffffffffffffffffffffffff00000000000000000000000000000000000000001673ffffffffffffffffffffffffffffffffffffffff83169081179091556040517f9ee0f407fe781f489d612b2879aea89a7ce73492166d123f0b55ec4295626e4d90600090a250565b6060606580546106d6906140fc565b80601f0160208091040260200160405190810160405280929190818152602001828054610702906140fc565b801561074f5780601f106107245761010080835404028352916020019161074f565b820191906000526020600020905b81548152906001019060200180831161073257829003601f168201915b5050505050905090565b600061076482611b8e565b5060009081526069602052604090205473ffffffffffffffffffffffffffffffffffffffff1690565b8161079781611bff565b6107a18383611d04565b505050565b8273ffffffffffffffffffffffffffffffffffffffff811633146107cd576107cd33611bff565b6107d8848484611e57565b50505050565b6000828152610160602052604081208054839081106107ff576107ff61414f565b600091825260208083209091015473ffffffffffffffffffffffffffffffffffffffff1680835261015f90915260409091205490915060ff161561088a5760405162461bcd60e51b815260206004820152600d60248201527f4163636573732064656e6965640000000000000000000000000000000000000060448201526064015b60405180910390fd5b600083815261016060205260409020547fffffffffffffffffffffffffffffffffffffffffffffffffffffffffffffffff01828114610974576000848152610160602052604090208054829081106108e4576108e461414f565b60009182526020808320909101548683526101609091526040909120805473ffffffffffffffffffffffffffffffffffffffff909216918590811061092b5761092b61414f565b9060005260206000200160006101000a81548173ffffffffffffffffffffffffffffffffffffffff021916908373ffffffffffffffffffffffffffffffffffffffff1602179055505b6000848152610160602052604090208054806109925761099261417e565b60008281526020902081017fffffffffffffffffffffffffffffffffffffffffffffffffffffffffffffffff90810180547fffffffffffffffffffffffff000000000000000000000000000000000000000016905501905550505050565b60006109fb836110cd565b8210610a6f5760405162461bcd60e51b815260206004820152602b60248201527f455243373231456e756d657261626c653a206f776e657220696e646578206f7560448201527f74206f6620626f756e64730000000000000000000000000000000000000000006064820152608401610881565b5073ffffffffffffffffffffffffffffffffffffffff919091166000908152609760209081526040808320938352929052205490565b610aad611b27565b610ab5611edd565b565b8273ffffffffffffffffffffffffffffffffffffffff81163314610ade57610ade33611bff565b6107d8848484611f5a565b610af4335b82611f75565b610b665760405162461bcd60e51b815260206004820152602d60248201527f4552433732313a2063616c6c6572206973206e6f7420746f6b656e206f776e6560448201527f72206f7220617070726f766564000000000000000000000000000000000000006064820152608401610881565b610b6f81612035565b50565b6000610b7d60995490565b8210610bf15760405162461bcd60e51b815260206004820152602c60248201527f455243373231456e756d657261626c653a20676c6f62616c20696e646578206f60448201527f7574206f6620626f756e647300000000000000000000000000000000000000006064820152608401610881565b60998281548110610c0457610c0461414f565b90600052602060002001549050919050565b610c1e611b27565b610193610c2b82826141f3565b5050565b33600090815261015f602052604090205460ff16610c8f5760405162461bcd60e51b815260206004820152600d60248201527f4163636573732064656e696564000000000000000000000000000000000000006044820152606401610881565b600082815261016060205260409020805433919083908110610cb357610cb361414f565b60009182526020909120015473ffffffffffffffffffffffffffffffffffffffff1614610d225760405162461bcd60e51b815260206004820152600d60248201527f506f7320696e636f7272656374000000000000000000000000000000000000006044820152606401610881565b600082815261016060205260409020547fffffffffffffffffffffffffffffffffffffffffffffffffffffffffffffffff01818114610e0c57600083815261016060205260409020805482908110610d7c57610d7c61414f565b60009182526020808320909101548583526101609091526040909120805473ffffffffffffffffffffffffffffffffffffffff9092169184908110610dc357610dc361414f565b9060005260206000200160006101000a81548173ffffffffffffffffffffffffffffffffffffffff021916908373ffffffffffffffffffffffffffffffffffffffff1602179055505b600083815261016060205260409020805480610e2a57610e2a61417e565b60008281526020902081017fffffffffffffffffffffffffffffffffffffffffffffffffffffffffffffffff90810180547fffffffffffffffffffffffff0000000000000000000000000000000000000000169055019055505050565b600054600290610100900460ff16158015610ea9575060005460ff8083169116105b610f1b5760405162461bcd60e51b815260206004820152602e60248201527f496e697469616c697a61626c653a20636f6e747261637420697320616c72656160448201527f647920696e697469616c697a65640000000000000000000000000000000000006064820152608401610881565b600080547fffffffffffffffffffffffffffffffffffffffffffffffffffffffffffff00001660ff831617610100179055610f6b733cc6cdda760b79bafa08df41ecfa224f810dceb6600161211b565b600080547fffffffffffffffffffffffffffffffffffffffffffffffffffffffffffff00ff16905560405160ff821681527f7f26b83ff96e1f2b6a682f133852f6798a09c465da95921460cefb38474024989060200160405180910390a150565b60008181526067602052604081205473ffffffffffffffffffffffffffffffffffffffff16806106495760405162461bcd60e51b815260206004820152601860248201527f4552433732313a20696e76616c696420746f6b656e20494400000000000000006044820152606401610881565b610193805461104c906140fc565b80601f0160208091040260200160405190810160405280929190818152602001828054611078906140fc565b80156110c55780601f1061109a576101008083540402835291602001916110c5565b820191906000526020600020905b8154815290600101906020018083116110a857829003601f168201915b505050505081565b600073ffffffffffffffffffffffffffffffffffffffff82166111585760405162461bcd60e51b815260206004820152602960248201527f4552433732313a2061646472657373207a65726f206973206e6f74206120766160448201527f6c6964206f776e657200000000000000000000000000000000000000000000006064820152608401610881565b5073ffffffffffffffffffffffffffffffffffffffff1660009081526068602052604090205490565b611189611b27565b610ab560006121a2565b600054600190610100900460ff161580156111b5575060005460ff8083169116105b6112275760405162461bcd60e51b815260206004820152602e60248201527f496e697469616c697a61626c653a20636f6e747261637420697320616c72656160448201527f647920696e697469616c697a65640000000000000000000000000000000000006064820152608401610881565b600080547fffffffffffffffffffffffffffffffffffffffffffffffffffffffffffff00001660ff8316176101001790556112628686612219565b61126a6122a0565b61127261231d565b61127a6123a2565b6112826122a0565b61019280547fffffffffffffffffffffffff00000000000000000000000000000000000000001673ffffffffffffffffffffffffffffffffffffffff85161790556101936112d083826141f3565b50610191849055600080547fffffffffffffffffffffffffffffffffffffffffffffffffffffffffffff00ff16905560405160ff821681527f7f26b83ff96e1f2b6a682f133852f6798a09c465da95921460cefb38474024989060200160405180910390a1505050505050565b610160602052816000526040600020818154811061135a57600080fd5b60009182526020909120015473ffffffffffffffffffffffffffffffffffffffff169150829050565b61138b611b27565b610ab5612427565b6060606680546106d6906140fc565b6113aa611b27565b8073ffffffffffffffffffffffffffffffffffffffff811663a9059cbb6113e660fb5473ffffffffffffffffffffffffffffffffffffffff1690565b6040517f70a0823100000000000000000000000000000000000000000000000000000000815230600482015273ffffffffffffffffffffffffffffffffffffffff8516906370a0823190602401602060405180830381865afa158015611450573d6000803e3d6000fd5b505050506040513d601f19601f82011682018060405250810190611474919061430d565b6040517fffffffff0000000000000000000000000000000000000000000000000000000060e085901b16815273ffffffffffffffffffffffffffffffffffffffff909216600483015260248201526044016020604051808303816000875af11580156114e4573d6000803e3d6000fd5b505050506040513d601f19601f820116820180604052508101906107a19190614326565b8161151281611bff565b6107a18383612482565b611524611b27565b8281146115735760405162461bcd60e51b815260206004820152600760248201527f216c656e677468000000000000000000000000000000000000000000000000006044820152606401610881565b60005b8381101561162c578282828181106115905761159061414f565b90506020020160208101906115a59190614343565b61015f60008787858181106115bc576115bc61414f565b90506020020160208101906115d19190613b59565b73ffffffffffffffffffffffffffffffffffffffff168152602081019190915260400160002080547fffffffffffffffffffffffffffffffffffffffffffffffffffffffffffffff0016911515919091179055600101611576565b5050505050565b8373ffffffffffffffffffffffffffffffffffffffff8116331461165a5761165a33611bff565b61162c8585858561248d565b606061167182611b8e565b600061167b612515565b9050600081511161169b57604051806020016040528060008152506116c6565b806116a584612525565b6040516020016116b6929190614360565b6040516020818303038152906040525b9392505050565b600086863385856040516020016116e895949392919061438f565b60405160208183030381529060405290506000611742828051906020012087878080601f0160208091040260200160405190810160405280939291908181526020018383808284376000920191909152506125e392505050565b6101925490915073ffffffffffffffffffffffffffffffffffffffff8083169116146117b05760405162461bcd60e51b815260206004820152600b60248201527f496e76616c6964207369670000000000000000000000000000000000000000006044820152606401610881565b60005b878110156117ef576117dd338a8a848181106117d1576117d161414f565b90506020020135612680565b806117e78161447a565b9150506117b3565b505050505050505050565b33600090815261015f602052604090205460ff1661185a5760405162461bcd60e51b815260206004820152600d60248201527f4163636573732064656e696564000000000000000000000000000000000000006044820152606401610881565b60005b6000828152610160602052604090205481101561190f576000828152610160602052604090208054339190839081106118985761189861414f565b60009182526020909120015473ffffffffffffffffffffffffffffffffffffffff16036119075760405162461bcd60e51b815260206004820152601b60248201527f494420616c7265616479206c6f636b65642062792063616c6c657200000000006044820152606401610881565b60010161185d565b506000908152610160602090815260408220805460018101825590835291200180547fffffffffffffffffffffffff00000000000000000000000000000000000000001633179055565b611961611b27565b73ffffffffffffffffffffffffffffffffffffffff81166119ea5760405162461bcd60e51b815260206004820152602660248201527f4f776e61626c653a206e6577206f776e657220697320746865207a65726f206160448201527f64647265737300000000000000000000000000000000000000000000000000006064820152608401610881565b610b6f816121a2565b6000805b60008481526101606020526040902054811015611a8857600084815261016060205260409020805473ffffffffffffffffffffffffffffffffffffffff8516919083908110611a4857611a4861414f565b60009182526020909120015473ffffffffffffffffffffffffffffffffffffffff1603611a76579050610649565b80611a808161447a565b9150506119f7565b5060405162461bcd60e51b815260206004820152600960248201527f4e6f7420666f756e6400000000000000000000000000000000000000000000006044820152606401610881565b60007fffffffff0000000000000000000000000000000000000000000000000000000082167f780e9d6300000000000000000000000000000000000000000000000000000000148061064957506106498261269a565b60fb5473ffffffffffffffffffffffffffffffffffffffff163314610ab55760405162461bcd60e51b815260206004820181905260248201527f4f776e61626c653a2063616c6c6572206973206e6f7420746865206f776e65726044820152606401610881565b60008181526067602052604090205473ffffffffffffffffffffffffffffffffffffffff16610b6f5760405162461bcd60e51b815260206004820152601860248201527f4552433732313a20696e76616c696420746f6b656e20494400000000000000006044820152606401610881565b6daaeb6d7670e522a718067333cd4e3b15610b6f576040517fc617113400000000000000000000000000000000000000000000000000000000815230600482015273ffffffffffffffffffffffffffffffffffffffff821660248201526daaeb6d7670e522a718067333cd4e9063c617113490604401602060405180830381865afa158015611c92573d6000803e3d6000fd5b505050506040513d601f19601f82011682018060405250810190611cb69190614326565b610b6f576040517fede71dcc00000000000000000000000000000000000000000000000000000000815273ffffffffffffffffffffffffffffffffffffffff82166004820152602401610881565b6000611d0f82610fcc565b90508073ffffffffffffffffffffffffffffffffffffffff168373ffffffffffffffffffffffffffffffffffffffff1603611db25760405162461bcd60e51b815260206004820152602160248201527f4552433732313a20617070726f76616c20746f2063757272656e74206f776e6560448201527f72000000000000000000000000000000000000000000000000000000000000006064820152608401610881565b3373ffffffffffffffffffffffffffffffffffffffff82161480611ddb5750611ddb81336105dd565b611e4d5760405162461bcd60e51b815260206004820152603d60248201527f4552433732313a20617070726f76652063616c6c6572206973206e6f7420746f60448201527f6b656e206f776e6572206f7220617070726f76656420666f7220616c6c0000006064820152608401610881565b6107a1838361277d565b611e6033610aee565b611ed25760405162461bcd60e51b815260206004820152602d60248201527f4552433732313a2063616c6c6572206973206e6f7420746f6b656e206f776e6560448201527f72206f7220617070726f766564000000000000000000000000000000000000006064820152608401610881565b6107a183838361281d565b611ee5612ad7565b60c980547fffffffffffffffffffffffffffffffffffffffffffffffffffffffffffffff001690557f5db9ee0a495bf2e6ff9c91a7834c1ba4fdd244a5e8aa4e537bd38aeae4b073aa335b60405173ffffffffffffffffffffffffffffffffffffffff909116815260200160405180910390a1565b6107a183838360405180602001604052806000815250611633565b600080611f8183610fcc565b90508073ffffffffffffffffffffffffffffffffffffffff168473ffffffffffffffffffffffffffffffffffffffff161480611fef575073ffffffffffffffffffffffffffffffffffffffff8082166000908152606a602090815260408083209388168352929052205460ff165b8061202d57508373ffffffffffffffffffffffffffffffffffffffff1661201584610759565b73ffffffffffffffffffffffffffffffffffffffff16145b949350505050565b600061204082610fcc565b9050612050816000846001612b29565b61205982610fcc565b600083815260696020908152604080832080547fffffffffffffffffffffffff000000000000000000000000000000000000000090811690915573ffffffffffffffffffffffffffffffffffffffff85168085526068845282852080547fffffffffffffffffffffffffffffffffffffffffffffffffffffffffffffffff0190558785526067909352818420805490911690555192935084927fddf252ad1be2c89b69c2b068fc378daa952ba7f163c4a11628f55a4df523b3ef908390a45050565b600054610100900460ff166121985760405162461bcd60e51b815260206004820152602b60248201527f496e697469616c697a61626c653a20636f6e7472616374206973206e6f74206960448201527f6e697469616c697a696e670000000000000000000000000000000000000000006064820152608401610881565b610c2b8282612b9a565b60fb805473ffffffffffffffffffffffffffffffffffffffff8381167fffffffffffffffffffffffff0000000000000000000000000000000000000000831681179093556040519116919082907f8be0079c531659141344cd1fd0a4f28419497f9722a3daafe3b4186f6b6457e090600090a35050565b600054610100900460ff166122965760405162461bcd60e51b815260206004820152602b60248201527f496e697469616c697a61626c653a20636f6e7472616374206973206e6f74206960448201527f6e697469616c697a696e670000000000000000000000000000000000000000006064820152608401610881565b610c2b8282612d96565b600054610100900460ff16610ab55760405162461bcd60e51b815260206004820152602b60248201527f496e697469616c697a61626c653a20636f6e7472616374206973206e6f74206960448201527f6e697469616c697a696e670000000000000000000000000000000000000000006064820152608401610881565b600054610100900460ff1661239a5760405162461bcd60e51b815260206004820152602b60248201527f496e697469616c697a61626c653a20636f6e7472616374206973206e6f74206960448201527f6e697469616c697a696e670000000000000000000000000000000000000000006064820152608401610881565b610ab5612e2c565b600054610100900460ff1661241f5760405162461bcd60e51b815260206004820152602b60248201527f496e697469616c697a61626c653a20636f6e7472616374206973206e6f74206960448201527f6e697469616c697a696e670000000000000000000000000000000000000000006064820152608401610881565b610ab5612ed3565b61242f612f59565b60c980547fffffffffffffffffffffffffffffffffffffffffffffffffffffffffffffff001660011790557f62e78cea01bee320cd4e420270b5ea74000d11b0c9f74754ebdbfc544b05a258611f303390565b610c2b338383612fac565b6124973383611f75565b6125095760405162461bcd60e51b815260206004820152602d60248201527f4552433732313a2063616c6c6572206973206e6f7420746f6b656e206f776e6560448201527f72206f7220617070726f766564000000000000000000000000000000000000006064820152608401610881565b6107d8848484846130bf565b606061019380546106d6906140fc565b6060600061253283613148565b600101905060008167ffffffffffffffff81111561255257612552613c96565b6040519080825280601f01601f19166020018201604052801561257c576020820181803683370190505b5090508181016020015b7fffffffffffffffffffffffffffffffffffffffffffffffffffffffffffffffff017f3031323334353637383961626364656600000000000000000000000000000000600a86061a8153600a850494508461258657509392505050565b6000806000806125f28561322a565b6040805160008152602081018083528b905260ff8516918101919091526060810183905260808101829052929550909350915060019060a0016020604051602081039080840390855afa15801561264d573d6000803e3d6000fd5b50506040517fffffffffffffffffffffffffffffffffffffffffffffffffffffffffffffffe00151979650505050505050565b610c2b82826040518060200160405280600081525061329c565b60007fffffffff0000000000000000000000000000000000000000000000000000000082167f80ac58cd00000000000000000000000000000000000000000000000000000000148061272d57507fffffffff0000000000000000000000000000000000000000000000000000000082167f5b5e139f00000000000000000000000000000000000000000000000000000000145b8061064957507f01ffc9a7000000000000000000000000000000000000000000000000000000007fffffffff00000000000000000000000000000000000000000000000000000000831614610649565b600081815260696020526040902080547fffffffffffffffffffffffff00000000000000000000000000000000000000001673ffffffffffffffffffffffffffffffffffffffff841690811790915581906127d782610fcc565b73ffffffffffffffffffffffffffffffffffffffff167f8c5be1e5ebec7d5bd14f71427d1e84f3dd0314c0f7b2291e5b200ac8c7c3b92560405160405180910390a45050565b8273ffffffffffffffffffffffffffffffffffffffff1661283d82610fcc565b73ffffffffffffffffffffffffffffffffffffffff16146128c65760405162461bcd60e51b815260206004820152602560248201527f4552433732313a207472616e736665722066726f6d20696e636f72726563742060448201527f6f776e65720000000000000000000000000000000000000000000000000000006064820152608401610881565b73ffffffffffffffffffffffffffffffffffffffff821661294e5760405162461bcd60e51b8152602060048201526024808201527f4552433732313a207472616e7366657220746f20746865207a65726f2061646460448201527f72657373000000000000000000000000000000000000000000000000000000006064820152608401610881565b61295b8383836001612b29565b8273ffffffffffffffffffffffffffffffffffffffff1661297b82610fcc565b73ffffffffffffffffffffffffffffffffffffffff1614612a045760405162461bcd60e51b815260206004820152602560248201527f4552433732313a207472616e736665722066726f6d20696e636f72726563742060448201527f6f776e65720000000000000000000000000000000000000000000000000000006064820152608401610881565b600081815260696020908152604080832080547fffffffffffffffffffffffff000000000000000000000000000000000000000090811690915573ffffffffffffffffffffffffffffffffffffffff8781168086526068855283862080547fffffffffffffffffffffffffffffffffffffffffffffffffffffffffffffffff01905590871680865283862080546001019055868652606790945282852080549092168417909155905184937fddf252ad1be2c89b69c2b068fc378daa952ba7f163c4a11628f55a4df523b3ef91a4505050565b60c95460ff16610ab55760405162461bcd60e51b815260206004820152601460248201527f5061757361626c653a206e6f74207061757365640000000000000000000000006044820152606401610881565b612b31612f59565b6000828152610160602052604090205415612b8e5760405162461bcd60e51b815260206004820152600c60248201527f546f6b656e206c6f636b656400000000000000000000000000000000000000006044820152606401610881565b6107d884848484613325565b600054610100900460ff16612c175760405162461bcd60e51b815260206004820152602b60248201527f496e697469616c697a61626c653a20636f6e7472616374206973206e6f74206960448201527f6e697469616c697a696e670000000000000000000000000000000000000000006064820152608401610881565b6daaeb6d7670e522a718067333cd4e3b15610c2b578015612cca576040517f7d3e3dbe00000000000000000000000000000000000000000000000000000000815230600482015273ffffffffffffffffffffffffffffffffffffffff831660248201526daaeb6d7670e522a718067333cd4e90637d3e3dbe906044015b600060405180830381600087803b158015612cae57600080fd5b505af1158015612cc2573d6000803e3d6000fd5b505050505050565b73ffffffffffffffffffffffffffffffffffffffff821615612d4c576040517fa0af290300000000000000000000000000000000000000000000000000000000815230600482015273ffffffffffffffffffffffffffffffffffffffff831660248201526daaeb6d7670e522a718067333cd4e9063a0af290390604401612c94565b6040517f4420e4860000000000000000000000000000000000000000000000000000000081523060048201526daaeb6d7670e522a718067333cd4e90634420e48690602401612c94565b600054610100900460ff16612e135760405162461bcd60e51b815260206004820152602b60248201527f496e697469616c697a61626c653a20636f6e7472616374206973206e6f74206960448201527f6e697469616c697a696e670000000000000000000000000000000000000000006064820152608401610881565b6065612e1f83826141f3565b5060666107a182826141f3565b600054610100900460ff16612ea95760405162461bcd60e51b815260206004820152602b60248201527f496e697469616c697a61626c653a20636f6e7472616374206973206e6f74206960448201527f6e697469616c697a696e670000000000000000000000000000000000000000006064820152608401610881565b60c980547fffffffffffffffffffffffffffffffffffffffffffffffffffffffffffffff00169055565b600054610100900460ff16612f505760405162461bcd60e51b815260206004820152602b60248201527f496e697469616c697a61626c653a20636f6e7472616374206973206e6f74206960448201527f6e697469616c697a696e670000000000000000000000000000000000000000006064820152608401610881565b610ab5336121a2565b60c95460ff1615610ab55760405162461bcd60e51b815260206004820152601060248201527f5061757361626c653a20706175736564000000000000000000000000000000006044820152606401610881565b8173ffffffffffffffffffffffffffffffffffffffff168373ffffffffffffffffffffffffffffffffffffffff16036130275760405162461bcd60e51b815260206004820152601960248201527f4552433732313a20617070726f766520746f2063616c6c6572000000000000006044820152606401610881565b73ffffffffffffffffffffffffffffffffffffffff8381166000818152606a602090815260408083209487168084529482529182902080547fffffffffffffffffffffffffffffffffffffffffffffffffffffffffffffff001686151590811790915591519182527f17307eab39ab6107e8899845ad3d59bd9653f200f220920489ca2b5937696c31910160405180910390a3505050565b6130ca84848461281d565b6130d6848484846134b4565b6107d85760405162461bcd60e51b815260206004820152603260248201527f4552433732313a207472616e7366657220746f206e6f6e20455243373231526560448201527f63656976657220696d706c656d656e74657200000000000000000000000000006064820152608401610881565b6000807a184f03e93ff9f4daa797ed6e38ed64bf6a1f0100000000000000008310613191577a184f03e93ff9f4daa797ed6e38ed64bf6a1f010000000000000000830492506040015b6d04ee2d6d415b85acef810000000083106131bd576d04ee2d6d415b85acef8100000000830492506020015b662386f26fc1000083106131db57662386f26fc10000830492506010015b6305f5e10083106131f3576305f5e100830492506008015b612710831061320757612710830492506004015b60648310613219576064830492506002015b600a83106106495760010192915050565b600080600083516041146132805760405162461bcd60e51b815260206004820152600b60248201527f696e76616c6964207369670000000000000000000000000000000000000000006044820152606401610881565b5050506020810151604082015160609092015160001a92909190565b6132a6838361368d565b6132b360008484846134b4565b6107a15760405162461bcd60e51b815260206004820152603260248201527f4552433732313a207472616e7366657220746f206e6f6e20455243373231526560448201527f63656976657220696d706c656d656e74657200000000000000000000000000006064820152608401610881565b61333184848484613872565b60018111156133a85760405162461bcd60e51b815260206004820152603560248201527f455243373231456e756d657261626c653a20636f6e736563757469766520747260448201527f616e7366657273206e6f7420737570706f7274656400000000000000000000006064820152608401610881565b8173ffffffffffffffffffffffffffffffffffffffff85166134115761340c81609980546000838152609a60205260408120829055600182018355919091527f72a152ddfb8e864297c917af52ea6c1c68aead0fee1a62673fcc7e0c94979d000155565b61344e565b8373ffffffffffffffffffffffffffffffffffffffff168573ffffffffffffffffffffffffffffffffffffffff161461344e5761344e858261392e565b73ffffffffffffffffffffffffffffffffffffffff841661347757613472816139e5565b61162c565b8473ffffffffffffffffffffffffffffffffffffffff168473ffffffffffffffffffffffffffffffffffffffff161461162c5761162c8482613a94565b600073ffffffffffffffffffffffffffffffffffffffff84163b15613682576040517f150b7a0200000000000000000000000000000000000000000000000000000000815273ffffffffffffffffffffffffffffffffffffffff85169063150b7a029061352b9033908990889088906004016144b2565b6020604051808303816000875af1925050508015613584575060408051601f3d9081017fffffffffffffffffffffffffffffffffffffffffffffffffffffffffffffffe0168201909252613581918101906144fb565b60015b613637573d8080156135b2576040519150601f19603f3d011682016040523d82523d6000602084013e6135b7565b606091505b50805160000361362f5760405162461bcd60e51b815260206004820152603260248201527f4552433732313a207472616e7366657220746f206e6f6e20455243373231526560448201527f63656976657220696d706c656d656e74657200000000000000000000000000006064820152608401610881565b805181602001fd5b7fffffffff00000000000000000000000000000000000000000000000000000000167f150b7a020000000000000000000000000000000000000000000000000000000014905061202d565b506001949350505050565b73ffffffffffffffffffffffffffffffffffffffff82166136f05760405162461bcd60e51b815260206004820181905260248201527f4552433732313a206d696e7420746f20746865207a65726f20616464726573736044820152606401610881565b60008181526067602052604090205473ffffffffffffffffffffffffffffffffffffffff16156137625760405162461bcd60e51b815260206004820152601c60248201527f4552433732313a20746f6b656e20616c7265616479206d696e746564000000006044820152606401610881565b613770600083836001612b29565b60008181526067602052604090205473ffffffffffffffffffffffffffffffffffffffff16156137e25760405162461bcd60e51b815260206004820152601c60248201527f4552433732313a20746f6b656e20616c7265616479206d696e746564000000006044820152606401610881565b73ffffffffffffffffffffffffffffffffffffffff8216600081815260686020908152604080832080546001019055848352606790915280822080547fffffffffffffffffffffffff0000000000000000000000000000000000000000168417905551839291907fddf252ad1be2c89b69c2b068fc378daa952ba7f163c4a11628f55a4df523b3ef908290a45050565b60018111156107d85773ffffffffffffffffffffffffffffffffffffffff8416156138d25773ffffffffffffffffffffffffffffffffffffffff8416600090815260686020526040812080548392906138cc908490614518565b90915550505b73ffffffffffffffffffffffffffffffffffffffff8316156107d85773ffffffffffffffffffffffffffffffffffffffff83166000908152606860205260408120805483929061392390849061452b565b909155505050505050565b6000600161393b846110cd565b6139459190614518565b6000838152609860205260409020549091508082146139a55773ffffffffffffffffffffffffffffffffffffffff841660009081526097602090815260408083208584528252808320548484528184208190558352609890915290208190555b50600091825260986020908152604080842084905573ffffffffffffffffffffffffffffffffffffffff9094168352609781528383209183525290812055565b6099546000906139f790600190614518565b6000838152609a602052604081205460998054939450909284908110613a1f57613a1f61414f565b906000526020600020015490508060998381548110613a4057613a4061414f565b6000918252602080832090910192909255828152609a90915260408082208490558582528120556099805480613a7857613a7861417e565b6001900381819060005260206000200160009055905550505050565b6000613a9f836110cd565b73ffffffffffffffffffffffffffffffffffffffff9093166000908152609760209081526040808320868452825280832085905593825260989052919091209190915550565b7fffffffff0000000000000000000000000000000000000000000000000000000081168114610b6f57600080fd5b600060208284031215613b2557600080fd5b81356116c681613ae5565b803573ffffffffffffffffffffffffffffffffffffffff81168114613b5457600080fd5b919050565b600060208284031215613b6b57600080fd5b6116c682613b30565b60005b83811015613b8f578181015183820152602001613b77565b50506000910152565b60008151808452613bb0816020860160208601613b74565b601f017fffffffffffffffffffffffffffffffffffffffffffffffffffffffffffffffe0169290920160200192915050565b6020815260006116c66020830184613b98565b600060208284031215613c0757600080fd5b5035919050565b60008060408385031215613c2157600080fd5b613c2a83613b30565b946020939093013593505050565b600080600060608486031215613c4d57600080fd5b613c5684613b30565b9250613c6460208501613b30565b9150604084013590509250925092565b60008060408385031215613c8757600080fd5b50508035926020909101359150565b7f4e487b7100000000000000000000000000000000000000000000000000000000600052604160045260246000fd5b600067ffffffffffffffff80841115613ce057613ce0613c96565b604051601f85017fffffffffffffffffffffffffffffffffffffffffffffffffffffffffffffffe0908116603f01168101908282118183101715613d2657613d26613c96565b81604052809350858152868686011115613d3f57600080fd5b858560208301376000602087830101525050509392505050565b600082601f830112613d6a57600080fd5b6116c683833560208501613cc5565b600060208284031215613d8b57600080fd5b813567ffffffffffffffff811115613da257600080fd5b61202d84828501613d59565b600080600080600060a08688031215613dc657600080fd5b853567ffffffffffffffff80821115613dde57600080fd5b613dea89838a01613d59565b96506020880135915080821115613e0057600080fd5b613e0c89838a01613d59565b955060408801359450613e2160608901613b30565b93506080880135915080821115613e3757600080fd5b50613e4488828901613d59565b9150509295509295909350565b8015158114610b6f57600080fd5b60008060408385031215613e7257600080fd5b613e7b83613b30565b91506020830135613e8b81613e51565b809150509250929050565b60008083601f840112613ea857600080fd5b50813567ffffffffffffffff811115613ec057600080fd5b6020830191508360208260051b8501011115613edb57600080fd5b9250929050565b60008060008060408587031215613ef857600080fd5b843567ffffffffffffffff80821115613f1057600080fd5b613f1c88838901613e96565b90965094506020870135915080821115613f3557600080fd5b50613f4287828801613e96565b95989497509550505050565b60008060008060808587031215613f6457600080fd5b613f6d85613b30565b9350613f7b60208601613b30565b925060408501359150606085013567ffffffffffffffff811115613f9e57600080fd5b8501601f81018713613faf57600080fd5b613fbe87823560208401613cc5565b91505092959194509250565b60008083601f840112613fdc57600080fd5b50813567ffffffffffffffff811115613ff457600080fd5b602083019150836020828501011115613edb57600080fd5b6000806000806000806060878903121561402557600080fd5b863567ffffffffffffffff8082111561403d57600080fd5b6140498a838b01613e96565b9098509650602089013591508082111561406257600080fd5b61406e8a838b01613fca565b9096509450604089013591508082111561408757600080fd5b5061409489828a01613fca565b979a9699509497509295939492505050565b600080604083850312156140b957600080fd5b6140c283613b30565b91506140d060208401613b30565b90509250929050565b600080604083850312156140ec57600080fd5b823591506140d060208401613b30565b600181811c9082168061411057607f821691505b602082108103614149577f4e487b7100000000000000000000000000000000000000000000000000000000600052602260045260246000fd5b50919050565b7f4e487b7100000000000000000000000000000000000000000000000000000000600052603260045260246000fd5b7f4e487b7100000000000000000000000000000000000000000000000000000000600052603160045260246000fd5b601f8211156107a157600081815260208120601f850160051c810160208610156141d45750805b601f850160051c820191505b81811015612cc2578281556001016141e0565b815167ffffffffffffffff81111561420d5761420d613c96565b6142218161421b84546140fc565b846141ad565b602080601f831160018114614274576000841561423e5750858301515b7fffffffffffffffffffffffffffffffffffffffffffffffffffffffffffffffff600386901b1c1916600185901b178555612cc2565b6000858152602081207fffffffffffffffffffffffffffffffffffffffffffffffffffffffffffffffe08616915b828110156142c1578886015182559484019460019091019084016142a2565b50858210156142fd57878501517fffffffffffffffffffffffffffffffffffffffffffffffffffffffffffffffff600388901b60f8161c191681555b5050505050600190811b01905550565b60006020828403121561431f57600080fd5b5051919050565b60006020828403121561433857600080fd5b81516116c681613e51565b60006020828403121561435557600080fd5b81356116c681613e51565b60008351614372818460208801613b74565b835190830190614386818360208801613b74565b01949350505050565b6060815284606082015260007f07ffffffffffffffffffffffffffffffffffffffffffffffffffffffffffffff8611156143c857600080fd5b8560051b8088608085013773ffffffffffffffffffffffffffffffffffffffff861660208401528201828103608090810160408501528101849052838560a0830137600060a0858301015260a07fffffffffffffffffffffffffffffffffffffffffffffffffffffffffffffffe0601f8601168201019150509695505050505050565b7f4e487b7100000000000000000000000000000000000000000000000000000000600052601160045260246000fd5b60007fffffffffffffffffffffffffffffffffffffffffffffffffffffffffffffffff82036144ab576144ab61444b565b5060010190565b600073ffffffffffffffffffffffffffffffffffffffff8087168352808616602084015250836040830152608060608301526144f16080830184613b98565b9695505050505050565b60006020828403121561450d57600080fd5b81516116c681613ae5565b818103818111156106495761064961444b565b808201808211156106495761064961444b56fea26469706673582212202cd125d58802e0d1e8247f5616606830e2566f24a9944526496ecc7cb60c916164736f6c63430008110033",
  "linkReferences": {},
  "deployedLinkReferences": {}
}